{"abi":[{"inputs":[{"internalType":"uint256","name":"minimum","type":"uint256"},{"internalType":"string","name":"name","type":"string"},{"internalType":"string","name":"description","type":"string"},{"internalType":"string","name":"image","type":"string"},{"internalType":"uint256","name":"target","type":"uint256"}],"name":"createCampaign","outputs":[],"stateMutability":"nonpayable","type":"function"},{"inputs":[{"internalType":"uint256","name":"","type":"uint256"}],"name":"deployedCampaigns","outputs":[{"internalType":"address","name":"","type":"address"}],"stateMutability":"view","type":"function"},{"inputs":[],"name":"getDeployCampaign","outputs":[{"internalType":"address[]","name":"","type":"address[]"}],"stateMutability":"view","type":"function"}],"devdoc":{"kind":"dev","methods":{},"version":1},"evm":{"assembly":"    /* \"Campaign.sol\":63:545  contract CampaignMain{... */\n  mstore(0x40, 0x80)\n  callvalue\n  dup1\n  iszero\n  tag_1\n  jumpi\n  0x00\n  dup1\n  revert\ntag_1:\n  pop\n  dataSize(sub_0)\n  dup1\n  dataOffset(sub_0)\n  0x00\n  codecopy\n  0x00\n  return\nstop\n\nsub_0: assembly {\n        /* \"Campaign.sol\":63:545  contract CampaignMain{... */\n      mstore(0x40, 0x80)\n      callvalue\n      dup1\n      iszero\n      tag_1\n      jumpi\n      0x00\n      dup1\n      revert\n    tag_1:\n      pop\n      jumpi(tag_2, lt(calldatasize, 0x04))\n      shr(0xe0, calldataload(0x00))\n      dup1\n      0x339d50a5\n      eq\n      tag_3\n      jumpi\n      dup1\n      0xcd7b7329\n      eq\n      tag_4\n      jumpi\n      dup1\n      0xd4ddd71a\n      eq\n      tag_5\n      jumpi\n    tag_2:\n      0x00\n      dup1\n      revert\n        /* \"Campaign.sol\":90:124  address[] public deployedCampaigns */\n    tag_3:\n      tag_6\n      0x04\n      dup1\n      calldatasize\n      sub\n      dup2\n      add\n      swap1\n      tag_7\n      swap2\n      swap1\n      tag_8\n      jump\t// in\n    tag_7:\n      tag_9\n      jump\t// in\n    tag_6:\n      mload(0x40)\n      tag_10\n      swap2\n      swap1\n      tag_11\n      jump\t// in\n    tag_10:\n      mload(0x40)\n      dup1\n      swap2\n      sub\n      swap1\n      return\n        /* \"Campaign.sol\":424:531  function getDeployCampaign() public view returns(address[] memory){... */\n    tag_4:\n      tag_12\n      tag_13\n      jump\t// in\n    tag_12:\n      mload(0x40)\n      tag_14\n      swap2\n      swap1\n      tag_15\n      jump\t// in\n    tag_14:\n      mload(0x40)\n      dup1\n      swap2\n      sub\n      swap1\n      return\n        /* \"Campaign.sol\":135:418  function createCampaign(uint minimum,string memory name,string memory  description,string memory  image,uint target) public {... */\n    tag_5:\n      tag_16\n      0x04\n      dup1\n      calldatasize\n      sub\n      dup2\n      add\n      swap1\n      tag_17\n      swap2\n      swap1\n      tag_18\n      jump\t// in\n    tag_17:\n      tag_19\n      jump\t// in\n    tag_16:\n      stop\n        /* \"Campaign.sol\":90:124  address[] public deployedCampaigns */\n    tag_9:\n      0x00\n      dup2\n      dup2\n      sload\n      dup2\n      lt\n      tag_20\n      jumpi\n      0x00\n      dup1\n      revert\n    tag_20:\n      swap1\n      0x00\n      mstore\n      keccak256(0x00, 0x20)\n      add\n      0x00\n      swap2\n      pop\n      sload\n      swap1\n      0x0100\n      exp\n      swap1\n      div\n      0xffffffffffffffffffffffffffffffffffffffff\n      and\n      dup2\n      jump\t// out\n        /* \"Campaign.sol\":424:531  function getDeployCampaign() public view returns(address[] memory){... */\n    tag_13:\n        /* \"Campaign.sol\":473:489  address[] memory */\n      0x60\n        /* \"Campaign.sol\":507:524  deployedCampaigns */\n      0x00\n        /* \"Campaign.sol\":500:524  return deployedCampaigns */\n      dup1\n      sload\n      dup1\n      0x20\n      mul\n      0x20\n      add\n      mload(0x40)\n      swap1\n      dup2\n      add\n      0x40\n      mstore\n      dup1\n      swap3\n      swap2\n      swap1\n      dup2\n      dup2\n      mstore\n      0x20\n      add\n      dup3\n      dup1\n      sload\n      dup1\n      iszero\n      tag_23\n      jumpi\n      0x20\n      mul\n      dup3\n      add\n      swap2\n      swap1\n      0x00\n      mstore\n      keccak256(0x00, 0x20)\n      swap1\n    tag_24:\n      dup2\n      0x00\n      swap1\n      sload\n      swap1\n      0x0100\n      exp\n      swap1\n      div\n      0xffffffffffffffffffffffffffffffffffffffff\n      and\n      0xffffffffffffffffffffffffffffffffffffffff\n      and\n      dup2\n      mstore\n      0x20\n      add\n      swap1\n      0x01\n      add\n      swap1\n      dup1\n      dup4\n      gt\n      tag_24\n      jumpi\n    tag_23:\n      pop\n      pop\n      pop\n      pop\n      pop\n      swap1\n      pop\n        /* \"Campaign.sol\":424:531  function getDeployCampaign() public view returns(address[] memory){... */\n      swap1\n      jump\t// out\n        /* \"Campaign.sol\":135:418  function createCampaign(uint minimum,string memory name,string memory  description,string memory  image,uint target) public {... */\n    tag_19:\n        /* \"Campaign.sol\":269:288  address newCampaign */\n      0x00\n        /* \"Campaign.sol\":312:319  minimum */\n      dup6\n        /* \"Campaign.sol\":321:331  msg.sender */\n      caller\n        /* \"Campaign.sol\":332:336  name */\n      dup7\n        /* \"Campaign.sol\":337:348  description */\n      dup7\n        /* \"Campaign.sol\":349:354  image */\n      dup7\n        /* \"Campaign.sol\":355:361  target */\n      dup7\n        /* \"Campaign.sol\":299:362  new Campaign(minimum, msg.sender,name,description,image,target) */\n      mload(0x40)\n      tag_26\n      swap1\n      tag_27\n      jump\t// in\n    tag_26:\n      tag_28\n      swap7\n      swap6\n      swap5\n      swap4\n      swap3\n      swap2\n      swap1\n      tag_29\n      jump\t// in\n    tag_28:\n      mload(0x40)\n      dup1\n      swap2\n      sub\n      swap1\n      0x00\n      create\n      dup1\n      iszero\n      dup1\n      iszero\n      tag_30\n      jumpi\n      returndatasize\n      0x00\n      dup1\n      returndatacopy\n      revert(0x00, returndatasize)\n    tag_30:\n      pop\n        /* \"Campaign.sol\":269:363  address newCampaign = address(new Campaign(minimum, msg.sender,name,description,image,target)) */\n      swap1\n      pop\n        /* \"Campaign.sol\":374:391  deployedCampaigns */\n      0x00\n        /* \"Campaign.sol\":397:408  newCampaign */\n      dup2\n        /* \"Campaign.sol\":374:409  deployedCampaigns.push(newCampaign) */\n      swap1\n      dup1\n      0x01\n      dup2\n      sload\n      add\n      dup1\n      dup3\n      sstore\n      dup1\n      swap2\n      pop\n      pop\n      0x01\n      swap1\n      sub\n      swap1\n      0x00\n      mstore\n      keccak256(0x00, 0x20)\n      add\n      0x00\n      swap1\n      swap2\n      swap1\n      swap2\n      swap1\n      swap2\n      0x0100\n      exp\n      dup2\n      sload\n      dup2\n      0xffffffffffffffffffffffffffffffffffffffff\n      mul\n      not\n      and\n      swap1\n      dup4\n      0xffffffffffffffffffffffffffffffffffffffff\n      and\n      mul\n      or\n      swap1\n      sstore\n      pop\n        /* \"Campaign.sol\":259:418  {... */\n      pop\n        /* \"Campaign.sol\":135:418  function createCampaign(uint minimum,string memory name,string memory  description,string memory  image,uint target) public {... */\n      pop\n      pop\n      pop\n      pop\n      pop\n      jump\t// out\n    tag_27:\n      dataSize(sub_0)\n      dup1\n      dataOffset(sub_0)\n      dup4\n      codecopy\n      add\n      swap1\n      jump\t// out\n        /* \"#utility.yul\":7:82   */\n    tag_32:\n        /* \"#utility.yul\":40:46   */\n      0x00\n        /* \"#utility.yul\":73:75   */\n      0x40\n        /* \"#utility.yul\":67:76   */\n      mload\n        /* \"#utility.yul\":57:76   */\n      swap1\n      pop\n        /* \"#utility.yul\":7:82   */\n      swap1\n      jump\t// out\n        /* \"#utility.yul\":88:205   */\n    tag_33:\n        /* \"#utility.yul\":197:198   */\n      0x00\n        /* \"#utility.yul\":194:195   */\n      dup1\n        /* \"#utility.yul\":187:199   */\n      revert\n        /* \"#utility.yul\":211:328   */\n    tag_34:\n        /* \"#utility.yul\":320:321   */\n      0x00\n        /* \"#utility.yul\":317:318   */\n      dup1\n        /* \"#utility.yul\":310:322   */\n      revert\n        /* \"#utility.yul\":334:411   */\n    tag_35:\n        /* \"#utility.yul\":371:378   */\n      0x00\n        /* \"#utility.yul\":400:405   */\n      dup2\n        /* \"#utility.yul\":389:405   */\n      swap1\n      pop\n        /* \"#utility.yul\":334:411   */\n      swap2\n      swap1\n      pop\n      jump\t// out\n        /* \"#utility.yul\":417:539   */\n    tag_36:\n        /* \"#utility.yul\":490:514   */\n      tag_69\n        /* \"#utility.yul\":508:513   */\n      dup2\n        /* \"#utility.yul\":490:514   */\n      tag_35\n      jump\t// in\n    tag_69:\n        /* \"#utility.yul\":483:488   */\n      dup2\n        /* \"#utility.yul\":480:515   */\n      eq\n        /* \"#utility.yul\":470:533   */\n      tag_70\n      jumpi\n        /* \"#utility.yul\":529:530   */\n      0x00\n        /* \"#utility.yul\":526:527   */\n      dup1\n        /* \"#utility.yul\":519:531   */\n      revert\n        /* \"#utility.yul\":470:533   */\n    tag_70:\n        /* \"#utility.yul\":417:539   */\n      pop\n      jump\t// out\n        /* \"#utility.yul\":545:684   */\n    tag_37:\n        /* \"#utility.yul\":591:596   */\n      0x00\n        /* \"#utility.yul\":629:635   */\n      dup2\n        /* \"#utility.yul\":616:636   */\n      calldataload\n        /* \"#utility.yul\":607:636   */\n      swap1\n      pop\n        /* \"#utility.yul\":645:678   */\n      tag_72\n        /* \"#utility.yul\":672:677   */\n      dup2\n        /* \"#utility.yul\":645:678   */\n      tag_36\n      jump\t// in\n    tag_72:\n        /* \"#utility.yul\":545:684   */\n      swap3\n      swap2\n      pop\n      pop\n      jump\t// out\n        /* \"#utility.yul\":690:1019   */\n    tag_8:\n        /* \"#utility.yul\":749:755   */\n      0x00\n        /* \"#utility.yul\":798:800   */\n      0x20\n        /* \"#utility.yul\":786:795   */\n      dup3\n        /* \"#utility.yul\":777:784   */\n      dup5\n        /* \"#utility.yul\":773:796   */\n      sub\n        /* \"#utility.yul\":769:801   */\n      slt\n        /* \"#utility.yul\":766:885   */\n      iszero\n      tag_74\n      jumpi\n        /* \"#utility.yul\":804:883   */\n      tag_75\n      tag_33\n      jump\t// in\n    tag_75:\n        /* \"#utility.yul\":766:885   */\n    tag_74:\n        /* \"#utility.yul\":924:925   */\n      0x00\n        /* \"#utility.yul\":949:1002   */\n      tag_76\n        /* \"#utility.yul\":994:1001   */\n      dup5\n        /* \"#utility.yul\":985:991   */\n      dup3\n        /* \"#utility.yul\":974:983   */\n      dup6\n        /* \"#utility.yul\":970:992   */\n      add\n        /* \"#utility.yul\":949:1002   */\n      tag_37\n      jump\t// in\n    tag_76:\n        /* \"#utility.yul\":939:1002   */\n      swap2\n      pop\n        /* \"#utility.yul\":895:1012   */\n      pop\n        /* \"#utility.yul\":690:1019   */\n      swap3\n      swap2\n      pop\n      pop\n      jump\t// out\n        /* \"#utility.yul\":1025:1151   */\n    tag_38:\n        /* \"#utility.yul\":1062:1069   */\n      0x00\n        /* \"#utility.yul\":1102:1144   */\n      0xffffffffffffffffffffffffffffffffffffffff\n        /* \"#utility.yul\":1095:1100   */\n      dup3\n        /* \"#utility.yul\":1091:1145   */\n      and\n        /* \"#utility.yul\":1080:1145   */\n      swap1\n      pop\n        /* \"#utility.yul\":1025:1151   */\n      swap2\n      swap1\n      pop\n      jump\t// out\n        /* \"#utility.yul\":1157:1253   */\n    tag_39:\n        /* \"#utility.yul\":1194:1201   */\n      0x00\n        /* \"#utility.yul\":1223:1247   */\n      tag_79\n        /* \"#utility.yul\":1241:1246   */\n      dup3\n        /* \"#utility.yul\":1223:1247   */\n      tag_38\n      jump\t// in\n    tag_79:\n        /* \"#utility.yul\":1212:1247   */\n      swap1\n      pop\n        /* \"#utility.yul\":1157:1253   */\n      swap2\n      swap1\n      pop\n      jump\t// out\n        /* \"#utility.yul\":1259:1377   */\n    tag_40:\n        /* \"#utility.yul\":1346:1370   */\n      tag_81\n        /* \"#utility.yul\":1364:1369   */\n      dup2\n        /* \"#utility.yul\":1346:1370   */\n      tag_39\n      jump\t// in\n    tag_81:\n        /* \"#utility.yul\":1341:1344   */\n      dup3\n        /* \"#utility.yul\":1334:1371   */\n      mstore\n        /* \"#utility.yul\":1259:1377   */\n      pop\n      pop\n      jump\t// out\n        /* \"#utility.yul\":1383:1605   */\n    tag_11:\n        /* \"#utility.yul\":1476:1480   */\n      0x00\n        /* \"#utility.yul\":1514:1516   */\n      0x20\n        /* \"#utility.yul\":1503:1512   */\n      dup3\n        /* \"#utility.yul\":1499:1517   */\n      add\n        /* \"#utility.yul\":1491:1517   */\n      swap1\n      pop\n        /* \"#utility.yul\":1527:1598   */\n      tag_83\n        /* \"#utility.yul\":1595:1596   */\n      0x00\n        /* \"#utility.yul\":1584:1593   */\n      dup4\n        /* \"#utility.yul\":1580:1597   */\n      add\n        /* \"#utility.yul\":1571:1577   */\n      dup5\n        /* \"#utility.yul\":1527:1598   */\n      tag_40\n      jump\t// in\n    tag_83:\n        /* \"#utility.yul\":1383:1605   */\n      swap3\n      swap2\n      pop\n      pop\n      jump\t// out\n        /* \"#utility.yul\":1611:1725   */\n    tag_41:\n        /* \"#utility.yul\":1678:1684   */\n      0x00\n        /* \"#utility.yul\":1712:1717   */\n      dup2\n        /* \"#utility.yul\":1706:1718   */\n      mload\n        /* \"#utility.yul\":1696:1718   */\n      swap1\n      pop\n        /* \"#utility.yul\":1611:1725   */\n      swap2\n      swap1\n      pop\n      jump\t// out\n        /* \"#utility.yul\":1731:1915   */\n    tag_42:\n        /* \"#utility.yul\":1830:1841   */\n      0x00\n        /* \"#utility.yul\":1864:1870   */\n      dup3\n        /* \"#utility.yul\":1859:1862   */\n      dup3\n        /* \"#utility.yul\":1852:1871   */\n      mstore\n        /* \"#utility.yul\":1904:1908   */\n      0x20\n        /* \"#utility.yul\":1899:1902   */\n      dup3\n        /* \"#utility.yul\":1895:1909   */\n      add\n        /* \"#utility.yul\":1880:1909   */\n      swap1\n      pop\n        /* \"#utility.yul\":1731:1915   */\n      swap3\n      swap2\n      pop\n      pop\n      jump\t// out\n        /* \"#utility.yul\":1921:2053   */\n    tag_43:\n        /* \"#utility.yul\":1988:1992   */\n      0x00\n        /* \"#utility.yul\":2011:2014   */\n      dup2\n        /* \"#utility.yul\":2003:2014   */\n      swap1\n      pop\n        /* \"#utility.yul\":2041:2045   */\n      0x20\n        /* \"#utility.yul\":2036:2039   */\n      dup3\n        /* \"#utility.yul\":2032:2046   */\n      add\n        /* \"#utility.yul\":2024:2046   */\n      swap1\n      pop\n        /* \"#utility.yul\":1921:2053   */\n      swap2\n      swap1\n      pop\n      jump\t// out\n        /* \"#utility.yul\":2059:2167   */\n    tag_44:\n        /* \"#utility.yul\":2136:2160   */\n      tag_88\n        /* \"#utility.yul\":2154:2159   */\n      dup2\n        /* \"#utility.yul\":2136:2160   */\n      tag_39\n      jump\t// in\n    tag_88:\n        /* \"#utility.yul\":2131:2134   */\n      dup3\n        /* \"#utility.yul\":2124:2161   */\n      mstore\n        /* \"#utility.yul\":2059:2167   */\n      pop\n      pop\n      jump\t// out\n        /* \"#utility.yul\":2173:2352   */\n    tag_45:\n        /* \"#utility.yul\":2242:2252   */\n      0x00\n        /* \"#utility.yul\":2263:2309   */\n      tag_90\n        /* \"#utility.yul\":2305:2308   */\n      dup4\n        /* \"#utility.yul\":2297:2303   */\n      dup4\n        /* \"#utility.yul\":2263:2309   */\n      tag_44\n      jump\t// in\n    tag_90:\n        /* \"#utility.yul\":2341:2345   */\n      0x20\n        /* \"#utility.yul\":2336:2339   */\n      dup4\n        /* \"#utility.yul\":2332:2346   */\n      add\n        /* \"#utility.yul\":2318:2346   */\n      swap1\n      pop\n        /* \"#utility.yul\":2173:2352   */\n      swap3\n      swap2\n      pop\n      pop\n      jump\t// out\n        /* \"#utility.yul\":2358:2471   */\n    tag_46:\n        /* \"#utility.yul\":2428:2432   */\n      0x00\n        /* \"#utility.yul\":2460:2464   */\n      0x20\n        /* \"#utility.yul\":2455:2458   */\n      dup3\n        /* \"#utility.yul\":2451:2465   */\n      add\n        /* \"#utility.yul\":2443:2465   */\n      swap1\n      pop\n        /* \"#utility.yul\":2358:2471   */\n      swap2\n      swap1\n      pop\n      jump\t// out\n        /* \"#utility.yul\":2507:3239   */\n    tag_47:\n        /* \"#utility.yul\":2626:2629   */\n      0x00\n        /* \"#utility.yul\":2655:2709   */\n      tag_93\n        /* \"#utility.yul\":2703:2708   */\n      dup3\n        /* \"#utility.yul\":2655:2709   */\n      tag_41\n      jump\t// in\n    tag_93:\n        /* \"#utility.yul\":2725:2811   */\n      tag_94\n        /* \"#utility.yul\":2804:2810   */\n      dup2\n        /* \"#utility.yul\":2799:2802   */\n      dup6\n        /* \"#utility.yul\":2725:2811   */\n      tag_42\n      jump\t// in\n    tag_94:\n        /* \"#utility.yul\":2718:2811   */\n      swap4\n      pop\n        /* \"#utility.yul\":2835:2891   */\n      tag_95\n        /* \"#utility.yul\":2885:2890   */\n      dup4\n        /* \"#utility.yul\":2835:2891   */\n      tag_43\n      jump\t// in\n    tag_95:\n        /* \"#utility.yul\":2914:2921   */\n      dup1\n        /* \"#utility.yul\":2945:2946   */\n      0x00\n        /* \"#utility.yul\":2930:3214   */\n    tag_96:\n        /* \"#utility.yul\":2955:2961   */\n      dup4\n        /* \"#utility.yul\":2952:2953   */\n      dup2\n        /* \"#utility.yul\":2949:2962   */\n      lt\n        /* \"#utility.yul\":2930:3214   */\n      iszero\n      tag_98\n      jumpi\n        /* \"#utility.yul\":3031:3037   */\n      dup2\n        /* \"#utility.yul\":3025:3038   */\n      mload\n        /* \"#utility.yul\":3058:3121   */\n      tag_99\n        /* \"#utility.yul\":3117:3120   */\n      dup9\n        /* \"#utility.yul\":3102:3115   */\n      dup3\n        /* \"#utility.yul\":3058:3121   */\n      tag_45\n      jump\t// in\n    tag_99:\n        /* \"#utility.yul\":3051:3121   */\n      swap8\n      pop\n        /* \"#utility.yul\":3144:3204   */\n      tag_100\n        /* \"#utility.yul\":3197:3203   */\n      dup4\n        /* \"#utility.yul\":3144:3204   */\n      tag_46\n      jump\t// in\n    tag_100:\n        /* \"#utility.yul\":3134:3204   */\n      swap3\n      pop\n        /* \"#utility.yul\":2990:3214   */\n      pop\n        /* \"#utility.yul\":2977:2978   */\n      0x01\n        /* \"#utility.yul\":2974:2975   */\n      dup2\n        /* \"#utility.yul\":2970:2979   */\n      add\n        /* \"#utility.yul\":2965:2979   */\n      swap1\n      pop\n        /* \"#utility.yul\":2930:3214   */\n      jump(tag_96)\n    tag_98:\n        /* \"#utility.yul\":2934:2948   */\n      pop\n        /* \"#utility.yul\":3230:3233   */\n      dup6\n        /* \"#utility.yul\":3223:3233   */\n      swap4\n      pop\n        /* \"#utility.yul\":2631:3239   */\n      pop\n      pop\n      pop\n        /* \"#utility.yul\":2507:3239   */\n      swap3\n      swap2\n      pop\n      pop\n      jump\t// out\n        /* \"#utility.yul\":3245:3618   */\n    tag_15:\n        /* \"#utility.yul\":3388:3392   */\n      0x00\n        /* \"#utility.yul\":3426:3428   */\n      0x20\n        /* \"#utility.yul\":3415:3424   */\n      dup3\n        /* \"#utility.yul\":3411:3429   */\n      add\n        /* \"#utility.yul\":3403:3429   */\n      swap1\n      pop\n        /* \"#utility.yul\":3475:3484   */\n      dup2\n        /* \"#utility.yul\":3469:3473   */\n      dup2\n        /* \"#utility.yul\":3465:3485   */\n      sub\n        /* \"#utility.yul\":3461:3462   */\n      0x00\n        /* \"#utility.yul\":3450:3459   */\n      dup4\n        /* \"#utility.yul\":3446:3463   */\n      add\n        /* \"#utility.yul\":3439:3486   */\n      mstore\n        /* \"#utility.yul\":3503:3611   */\n      tag_102\n        /* \"#utility.yul\":3606:3610   */\n      dup2\n        /* \"#utility.yul\":3597:3603   */\n      dup5\n        /* \"#utility.yul\":3503:3611   */\n      tag_47\n      jump\t// in\n    tag_102:\n        /* \"#utility.yul\":3495:3611   */\n      swap1\n      pop\n        /* \"#utility.yul\":3245:3618   */\n      swap3\n      swap2\n      pop\n      pop\n      jump\t// out\n        /* \"#utility.yul\":3624:3741   */\n    tag_48:\n        /* \"#utility.yul\":3733:3734   */\n      0x00\n        /* \"#utility.yul\":3730:3731   */\n      dup1\n        /* \"#utility.yul\":3723:3735   */\n      revert\n        /* \"#utility.yul\":3747:3864   */\n    tag_49:\n        /* \"#utility.yul\":3856:3857   */\n      0x00\n        /* \"#utility.yul\":3853:3854   */\n      dup1\n        /* \"#utility.yul\":3846:3858   */\n      revert\n        /* \"#utility.yul\":3870:3972   */\n    tag_50:\n        /* \"#utility.yul\":3911:3917   */\n      0x00\n        /* \"#utility.yul\":3962:3964   */\n      0x1f\n        /* \"#utility.yul\":3958:3965   */\n      not\n        /* \"#utility.yul\":3953:3955   */\n      0x1f\n        /* \"#utility.yul\":3946:3951   */\n      dup4\n        /* \"#utility.yul\":3942:3956   */\n      add\n        /* \"#utility.yul\":3938:3966   */\n      and\n        /* \"#utility.yul\":3928:3966   */\n      swap1\n      pop\n        /* \"#utility.yul\":3870:3972   */\n      swap2\n      swap1\n      pop\n      jump\t// out\n        /* \"#utility.yul\":3978:4158   */\n    tag_51:\n        /* \"#utility.yul\":4026:4103   */\n      0x4e487b7100000000000000000000000000000000000000000000000000000000\n        /* \"#utility.yul\":4023:4024   */\n      0x00\n        /* \"#utility.yul\":4016:4104   */\n      mstore\n        /* \"#utility.yul\":4123:4127   */\n      0x41\n        /* \"#utility.yul\":4120:4121   */\n      0x04\n        /* \"#utility.yul\":4113:4128   */\n      mstore\n        /* \"#utility.yul\":4147:4151   */\n      0x24\n        /* \"#utility.yul\":4144:4145   */\n      0x00\n        /* \"#utility.yul\":4137:4152   */\n      revert\n        /* \"#utility.yul\":4164:4445   */\n    tag_52:\n        /* \"#utility.yul\":4247:4274   */\n      tag_108\n        /* \"#utility.yul\":4269:4273   */\n      dup3\n        /* \"#utility.yul\":4247:4274   */\n      tag_50\n      jump\t// in\n    tag_108:\n        /* \"#utility.yul\":4239:4245   */\n      dup2\n        /* \"#utility.yul\":4235:4275   */\n      add\n        /* \"#utility.yul\":4377:4383   */\n      dup2\n        /* \"#utility.yul\":4365:4375   */\n      dup2\n        /* \"#utility.yul\":4362:4384   */\n      lt\n        /* \"#utility.yul\":4341:4359   */\n      0xffffffffffffffff\n        /* \"#utility.yul\":4329:4339   */\n      dup3\n        /* \"#utility.yul\":4326:4360   */\n      gt\n        /* \"#utility.yul\":4323:4385   */\n      or\n        /* \"#utility.yul\":4320:4408   */\n      iszero\n      tag_109\n      jumpi\n        /* \"#utility.yul\":4388:4406   */\n      tag_110\n      tag_51\n      jump\t// in\n    tag_110:\n        /* \"#utility.yul\":4320:4408   */\n    tag_109:\n        /* \"#utility.yul\":4428:4438   */\n      dup1\n        /* \"#utility.yul\":4424:4426   */\n      0x40\n        /* \"#utility.yul\":4417:4439   */\n      mstore\n        /* \"#utility.yul\":4207:4445   */\n      pop\n        /* \"#utility.yul\":4164:4445   */\n      pop\n      pop\n      jump\t// out\n        /* \"#utility.yul\":4451:4580   */\n    tag_53:\n        /* \"#utility.yul\":4485:4491   */\n      0x00\n        /* \"#utility.yul\":4512:4532   */\n      tag_112\n      tag_32\n      jump\t// in\n    tag_112:\n        /* \"#utility.yul\":4502:4532   */\n      swap1\n      pop\n        /* \"#utility.yul\":4541:4574   */\n      tag_113\n        /* \"#utility.yul\":4569:4573   */\n      dup3\n        /* \"#utility.yul\":4561:4567   */\n      dup3\n        /* \"#utility.yul\":4541:4574   */\n      tag_52\n      jump\t// in\n    tag_113:\n        /* \"#utility.yul\":4451:4580   */\n      swap2\n      swap1\n      pop\n      jump\t// out\n        /* \"#utility.yul\":4586:4894   */\n    tag_54:\n        /* \"#utility.yul\":4648:4652   */\n      0x00\n        /* \"#utility.yul\":4738:4756   */\n      0xffffffffffffffff\n        /* \"#utility.yul\":4730:4736   */\n      dup3\n        /* \"#utility.yul\":4727:4757   */\n      gt\n        /* \"#utility.yul\":4724:4780   */\n      iszero\n      tag_115\n      jumpi\n        /* \"#utility.yul\":4760:4778   */\n      tag_116\n      tag_51\n      jump\t// in\n    tag_116:\n        /* \"#utility.yul\":4724:4780   */\n    tag_115:\n        /* \"#utility.yul\":4798:4827   */\n      tag_117\n        /* \"#utility.yul\":4820:4826   */\n      dup3\n        /* \"#utility.yul\":4798:4827   */\n      tag_50\n      jump\t// in\n    tag_117:\n        /* \"#utility.yul\":4790:4827   */\n      swap1\n      pop\n        /* \"#utility.yul\":4882:4886   */\n      0x20\n        /* \"#utility.yul\":4876:4880   */\n      dup2\n        /* \"#utility.yul\":4872:4887   */\n      add\n        /* \"#utility.yul\":4864:4887   */\n      swap1\n      pop\n        /* \"#utility.yul\":4586:4894   */\n      swap2\n      swap1\n      pop\n      jump\t// out\n        /* \"#utility.yul\":4900:5054   */\n    tag_55:\n        /* \"#utility.yul\":4984:4990   */\n      dup3\n        /* \"#utility.yul\":4979:4982   */\n      dup2\n        /* \"#utility.yul\":4974:4977   */\n      dup4\n        /* \"#utility.yul\":4961:4991   */\n      calldatacopy\n        /* \"#utility.yul\":5046:5047   */\n      0x00\n        /* \"#utility.yul\":5037:5043   */\n      dup4\n        /* \"#utility.yul\":5032:5035   */\n      dup4\n        /* \"#utility.yul\":5028:5044   */\n      add\n        /* \"#utility.yul\":5021:5048   */\n      mstore\n        /* \"#utility.yul\":4900:5054   */\n      pop\n      pop\n      pop\n      jump\t// out\n        /* \"#utility.yul\":5060:5472   */\n    tag_56:\n        /* \"#utility.yul\":5138:5143   */\n      0x00\n        /* \"#utility.yul\":5163:5229   */\n      tag_120\n        /* \"#utility.yul\":5179:5228   */\n      tag_121\n        /* \"#utility.yul\":5221:5227   */\n      dup5\n        /* \"#utility.yul\":5179:5228   */\n      tag_54\n      jump\t// in\n    tag_121:\n        /* \"#utility.yul\":5163:5229   */\n      tag_53\n      jump\t// in\n    tag_120:\n        /* \"#utility.yul\":5154:5229   */\n      swap1\n      pop\n        /* \"#utility.yul\":5252:5258   */\n      dup3\n        /* \"#utility.yul\":5245:5250   */\n      dup2\n        /* \"#utility.yul\":5238:5259   */\n      mstore\n        /* \"#utility.yul\":5290:5294   */\n      0x20\n        /* \"#utility.yul\":5283:5288   */\n      dup2\n        /* \"#utility.yul\":5279:5295   */\n      add\n        /* \"#utility.yul\":5328:5331   */\n      dup5\n        /* \"#utility.yul\":5319:5325   */\n      dup5\n        /* \"#utility.yul\":5314:5317   */\n      dup5\n        /* \"#utility.yul\":5310:5326   */\n      add\n        /* \"#utility.yul\":5307:5332   */\n      gt\n        /* \"#utility.yul\":5304:5416   */\n      iszero\n      tag_122\n      jumpi\n        /* \"#utility.yul\":5335:5414   */\n      tag_123\n      tag_49\n      jump\t// in\n    tag_123:\n        /* \"#utility.yul\":5304:5416   */\n    tag_122:\n        /* \"#utility.yul\":5425:5466   */\n      tag_124\n        /* \"#utility.yul\":5459:5465   */\n      dup5\n        /* \"#utility.yul\":5454:5457   */\n      dup3\n        /* \"#utility.yul\":5449:5452   */\n      dup6\n        /* \"#utility.yul\":5425:5466   */\n      tag_55\n      jump\t// in\n    tag_124:\n        /* \"#utility.yul\":5144:5472   */\n      pop\n        /* \"#utility.yul\":5060:5472   */\n      swap4\n      swap3\n      pop\n      pop\n      pop\n      jump\t// out\n        /* \"#utility.yul\":5492:5832   */\n    tag_57:\n        /* \"#utility.yul\":5548:5553   */\n      0x00\n        /* \"#utility.yul\":5597:5600   */\n      dup3\n        /* \"#utility.yul\":5590:5594   */\n      0x1f\n        /* \"#utility.yul\":5582:5588   */\n      dup4\n        /* \"#utility.yul\":5578:5595   */\n      add\n        /* \"#utility.yul\":5574:5601   */\n      slt\n        /* \"#utility.yul\":5564:5686   */\n      tag_126\n      jumpi\n        /* \"#utility.yul\":5605:5684   */\n      tag_127\n      tag_48\n      jump\t// in\n    tag_127:\n        /* \"#utility.yul\":5564:5686   */\n    tag_126:\n        /* \"#utility.yul\":5722:5728   */\n      dup2\n        /* \"#utility.yul\":5709:5729   */\n      calldataload\n        /* \"#utility.yul\":5747:5826   */\n      tag_128\n        /* \"#utility.yul\":5822:5825   */\n      dup5\n        /* \"#utility.yul\":5814:5820   */\n      dup3\n        /* \"#utility.yul\":5807:5811   */\n      0x20\n        /* \"#utility.yul\":5799:5805   */\n      dup7\n        /* \"#utility.yul\":5795:5812   */\n      add\n        /* \"#utility.yul\":5747:5826   */\n      tag_56\n      jump\t// in\n    tag_128:\n        /* \"#utility.yul\":5738:5826   */\n      swap2\n      pop\n        /* \"#utility.yul\":5554:5832   */\n      pop\n        /* \"#utility.yul\":5492:5832   */\n      swap3\n      swap2\n      pop\n      pop\n      jump\t// out\n        /* \"#utility.yul\":5838:7289   */\n    tag_18:\n        /* \"#utility.yul\":5963:5969   */\n      0x00\n        /* \"#utility.yul\":5971:5977   */\n      dup1\n        /* \"#utility.yul\":5979:5985   */\n      0x00\n        /* \"#utility.yul\":5987:5993   */\n      dup1\n        /* \"#utility.yul\":5995:6001   */\n      0x00\n        /* \"#utility.yul\":6044:6047   */\n      0xa0\n        /* \"#utility.yul\":6032:6041   */\n      dup7\n        /* \"#utility.yul\":6023:6030   */\n      dup9\n        /* \"#utility.yul\":6019:6042   */\n      sub\n        /* \"#utility.yul\":6015:6048   */\n      slt\n        /* \"#utility.yul\":6012:6132   */\n      iszero\n      tag_130\n      jumpi\n        /* \"#utility.yul\":6051:6130   */\n      tag_131\n      tag_33\n      jump\t// in\n    tag_131:\n        /* \"#utility.yul\":6012:6132   */\n    tag_130:\n        /* \"#utility.yul\":6171:6172   */\n      0x00\n        /* \"#utility.yul\":6196:6249   */\n      tag_132\n        /* \"#utility.yul\":6241:6248   */\n      dup9\n        /* \"#utility.yul\":6232:6238   */\n      dup3\n        /* \"#utility.yul\":6221:6230   */\n      dup10\n        /* \"#utility.yul\":6217:6239   */\n      add\n        /* \"#utility.yul\":6196:6249   */\n      tag_37\n      jump\t// in\n    tag_132:\n        /* \"#utility.yul\":6186:6249   */\n      swap6\n      pop\n        /* \"#utility.yul\":6142:6259   */\n      pop\n        /* \"#utility.yul\":6326:6328   */\n      0x20\n        /* \"#utility.yul\":6315:6324   */\n      dup7\n        /* \"#utility.yul\":6311:6329   */\n      add\n        /* \"#utility.yul\":6298:6330   */\n      calldataload\n        /* \"#utility.yul\":6357:6375   */\n      0xffffffffffffffff\n        /* \"#utility.yul\":6349:6355   */\n      dup2\n        /* \"#utility.yul\":6346:6376   */\n      gt\n        /* \"#utility.yul\":6343:6460   */\n      iszero\n      tag_133\n      jumpi\n        /* \"#utility.yul\":6379:6458   */\n      tag_134\n      tag_34\n      jump\t// in\n    tag_134:\n        /* \"#utility.yul\":6343:6460   */\n    tag_133:\n        /* \"#utility.yul\":6484:6547   */\n      tag_135\n        /* \"#utility.yul\":6539:6546   */\n      dup9\n        /* \"#utility.yul\":6530:6536   */\n      dup3\n        /* \"#utility.yul\":6519:6528   */\n      dup10\n        /* \"#utility.yul\":6515:6537   */\n      add\n        /* \"#utility.yul\":6484:6547   */\n      tag_57\n      jump\t// in\n    tag_135:\n        /* \"#utility.yul\":6474:6547   */\n      swap5\n      pop\n        /* \"#utility.yul\":6269:6557   */\n      pop\n        /* \"#utility.yul\":6624:6626   */\n      0x40\n        /* \"#utility.yul\":6613:6622   */\n      dup7\n        /* \"#utility.yul\":6609:6627   */\n      add\n        /* \"#utility.yul\":6596:6628   */\n      calldataload\n        /* \"#utility.yul\":6655:6673   */\n      0xffffffffffffffff\n        /* \"#utility.yul\":6647:6653   */\n      dup2\n        /* \"#utility.yul\":6644:6674   */\n      gt\n        /* \"#utility.yul\":6641:6758   */\n      iszero\n      tag_136\n      jumpi\n        /* \"#utility.yul\":6677:6756   */\n      tag_137\n      tag_34\n      jump\t// in\n    tag_137:\n        /* \"#utility.yul\":6641:6758   */\n    tag_136:\n        /* \"#utility.yul\":6782:6845   */\n      tag_138\n        /* \"#utility.yul\":6837:6844   */\n      dup9\n        /* \"#utility.yul\":6828:6834   */\n      dup3\n        /* \"#utility.yul\":6817:6826   */\n      dup10\n        /* \"#utility.yul\":6813:6835   */\n      add\n        /* \"#utility.yul\":6782:6845   */\n      tag_57\n      jump\t// in\n    tag_138:\n        /* \"#utility.yul\":6772:6845   */\n      swap4\n      pop\n        /* \"#utility.yul\":6567:6855   */\n      pop\n        /* \"#utility.yul\":6922:6924   */\n      0x60\n        /* \"#utility.yul\":6911:6920   */\n      dup7\n        /* \"#utility.yul\":6907:6925   */\n      add\n        /* \"#utility.yul\":6894:6926   */\n      calldataload\n        /* \"#utility.yul\":6953:6971   */\n      0xffffffffffffffff\n        /* \"#utility.yul\":6945:6951   */\n      dup2\n        /* \"#utility.yul\":6942:6972   */\n      gt\n        /* \"#utility.yul\":6939:7056   */\n      iszero\n      tag_139\n      jumpi\n        /* \"#utility.yul\":6975:7054   */\n      tag_140\n      tag_34\n      jump\t// in\n    tag_140:\n        /* \"#utility.yul\":6939:7056   */\n    tag_139:\n        /* \"#utility.yul\":7080:7143   */\n      tag_141\n        /* \"#utility.yul\":7135:7142   */\n      dup9\n        /* \"#utility.yul\":7126:7132   */\n      dup3\n        /* \"#utility.yul\":7115:7124   */\n      dup10\n        /* \"#utility.yul\":7111:7133   */\n      add\n        /* \"#utility.yul\":7080:7143   */\n      tag_57\n      jump\t// in\n    tag_141:\n        /* \"#utility.yul\":7070:7143   */\n      swap3\n      pop\n        /* \"#utility.yul\":6865:7153   */\n      pop\n        /* \"#utility.yul\":7192:7195   */\n      0x80\n        /* \"#utility.yul\":7219:7272   */\n      tag_142\n        /* \"#utility.yul\":7264:7271   */\n      dup9\n        /* \"#utility.yul\":7255:7261   */\n      dup3\n        /* \"#utility.yul\":7244:7253   */\n      dup10\n        /* \"#utility.yul\":7240:7262   */\n      add\n        /* \"#utility.yul\":7219:7272   */\n      tag_37\n      jump\t// in\n    tag_142:\n        /* \"#utility.yul\":7209:7272   */\n      swap2\n      pop\n        /* \"#utility.yul\":7163:7282   */\n      pop\n        /* \"#utility.yul\":5838:7289   */\n      swap3\n      swap6\n      pop\n      swap3\n      swap6\n      swap1\n      swap4\n      pop\n      jump\t// out\n        /* \"#utility.yul\":7295:7413   */\n    tag_58:\n        /* \"#utility.yul\":7382:7406   */\n      tag_144\n        /* \"#utility.yul\":7400:7405   */\n      dup2\n        /* \"#utility.yul\":7382:7406   */\n      tag_35\n      jump\t// in\n    tag_144:\n        /* \"#utility.yul\":7377:7380   */\n      dup3\n        /* \"#utility.yul\":7370:7407   */\n      mstore\n        /* \"#utility.yul\":7295:7413   */\n      pop\n      pop\n      jump\t// out\n        /* \"#utility.yul\":7419:7518   */\n    tag_59:\n        /* \"#utility.yul\":7471:7477   */\n      0x00\n        /* \"#utility.yul\":7505:7510   */\n      dup2\n        /* \"#utility.yul\":7499:7511   */\n      mload\n        /* \"#utility.yul\":7489:7511   */\n      swap1\n      pop\n        /* \"#utility.yul\":7419:7518   */\n      swap2\n      swap1\n      pop\n      jump\t// out\n        /* \"#utility.yul\":7524:7693   */\n    tag_60:\n        /* \"#utility.yul\":7608:7619   */\n      0x00\n        /* \"#utility.yul\":7642:7648   */\n      dup3\n        /* \"#utility.yul\":7637:7640   */\n      dup3\n        /* \"#utility.yul\":7630:7649   */\n      mstore\n        /* \"#utility.yul\":7682:7686   */\n      0x20\n        /* \"#utility.yul\":7677:7680   */\n      dup3\n        /* \"#utility.yul\":7673:7687   */\n      add\n        /* \"#utility.yul\":7658:7687   */\n      swap1\n      pop\n        /* \"#utility.yul\":7524:7693   */\n      swap3\n      swap2\n      pop\n      pop\n      jump\t// out\n        /* \"#utility.yul\":7699:8006   */\n    tag_61:\n        /* \"#utility.yul\":7767:7768   */\n      0x00\n        /* \"#utility.yul\":7777:7890   */\n    tag_148:\n        /* \"#utility.yul\":7791:7797   */\n      dup4\n        /* \"#utility.yul\":7788:7789   */\n      dup2\n        /* \"#utility.yul\":7785:7798   */\n      lt\n        /* \"#utility.yul\":7777:7890   */\n      iszero\n      tag_150\n      jumpi\n        /* \"#utility.yul\":7876:7877   */\n      dup1\n        /* \"#utility.yul\":7871:7874   */\n      dup3\n        /* \"#utility.yul\":7867:7878   */\n      add\n        /* \"#utility.yul\":7861:7879   */\n      mload\n        /* \"#utility.yul\":7857:7858   */\n      dup2\n        /* \"#utility.yul\":7852:7855   */\n      dup5\n        /* \"#utility.yul\":7848:7859   */\n      add\n        /* \"#utility.yul\":7841:7880   */\n      mstore\n        /* \"#utility.yul\":7813:7815   */\n      0x20\n        /* \"#utility.yul\":7810:7811   */\n      dup2\n        /* \"#utility.yul\":7806:7816   */\n      add\n        /* \"#utility.yul\":7801:7816   */\n      swap1\n      pop\n        /* \"#utility.yul\":7777:7890   */\n      jump(tag_148)\n    tag_150:\n        /* \"#utility.yul\":7908:7914   */\n      dup4\n        /* \"#utility.yul\":7905:7906   */\n      dup2\n        /* \"#utility.yul\":7902:7915   */\n      gt\n        /* \"#utility.yul\":7899:8000   */\n      iszero\n      tag_151\n      jumpi\n        /* \"#utility.yul\":7988:7989   */\n      0x00\n        /* \"#utility.yul\":7979:7985   */\n      dup5\n        /* \"#utility.yul\":7974:7977   */\n      dup5\n        /* \"#utility.yul\":7970:7986   */\n      add\n        /* \"#utility.yul\":7963:7990   */\n      mstore\n        /* \"#utility.yul\":7899:8000   */\n    tag_151:\n        /* \"#utility.yul\":7748:8006   */\n      pop\n        /* \"#utility.yul\":7699:8006   */\n      pop\n      pop\n      pop\n      jump\t// out\n        /* \"#utility.yul\":8012:8376   */\n    tag_62:\n        /* \"#utility.yul\":8100:8103   */\n      0x00\n        /* \"#utility.yul\":8128:8167   */\n      tag_153\n        /* \"#utility.yul\":8161:8166   */\n      dup3\n        /* \"#utility.yul\":8128:8167   */\n      tag_59\n      jump\t// in\n    tag_153:\n        /* \"#utility.yul\":8183:8254   */\n      tag_154\n        /* \"#utility.yul\":8247:8253   */\n      dup2\n        /* \"#utility.yul\":8242:8245   */\n      dup6\n        /* \"#utility.yul\":8183:8254   */\n      tag_60\n      jump\t// in\n    tag_154:\n        /* \"#utility.yul\":8176:8254   */\n      swap4\n      pop\n        /* \"#utility.yul\":8263:8315   */\n      tag_155\n        /* \"#utility.yul\":8308:8314   */\n      dup2\n        /* \"#utility.yul\":8303:8306   */\n      dup6\n        /* \"#utility.yul\":8296:8300   */\n      0x20\n        /* \"#utility.yul\":8289:8294   */\n      dup7\n        /* \"#utility.yul\":8285:8301   */\n      add\n        /* \"#utility.yul\":8263:8315   */\n      tag_61\n      jump\t// in\n    tag_155:\n        /* \"#utility.yul\":8340:8369   */\n      tag_156\n        /* \"#utility.yul\":8362:8368   */\n      dup2\n        /* \"#utility.yul\":8340:8369   */\n      tag_50\n      jump\t// in\n    tag_156:\n        /* \"#utility.yul\":8335:8338   */\n      dup5\n        /* \"#utility.yul\":8331:8370   */\n      add\n        /* \"#utility.yul\":8324:8370   */\n      swap2\n      pop\n        /* \"#utility.yul\":8104:8376   */\n      pop\n        /* \"#utility.yul\":8012:8376   */\n      swap3\n      swap2\n      pop\n      pop\n      jump\t// out\n        /* \"#utility.yul\":8382:9430   */\n    tag_29:\n        /* \"#utility.yul\":8675:8679   */\n      0x00\n        /* \"#utility.yul\":8713:8716   */\n      0xc0\n        /* \"#utility.yul\":8702:8711   */\n      dup3\n        /* \"#utility.yul\":8698:8717   */\n      add\n        /* \"#utility.yul\":8690:8717   */\n      swap1\n      pop\n        /* \"#utility.yul\":8727:8798   */\n      tag_158\n        /* \"#utility.yul\":8795:8796   */\n      0x00\n        /* \"#utility.yul\":8784:8793   */\n      dup4\n        /* \"#utility.yul\":8780:8797   */\n      add\n        /* \"#utility.yul\":8771:8777   */\n      dup10\n        /* \"#utility.yul\":8727:8798   */\n      tag_58\n      jump\t// in\n    tag_158:\n        /* \"#utility.yul\":8808:8880   */\n      tag_159\n        /* \"#utility.yul\":8876:8878   */\n      0x20\n        /* \"#utility.yul\":8865:8874   */\n      dup4\n        /* \"#utility.yul\":8861:8879   */\n      add\n        /* \"#utility.yul\":8852:8858   */\n      dup9\n        /* \"#utility.yul\":8808:8880   */\n      tag_40\n      jump\t// in\n    tag_159:\n        /* \"#utility.yul\":8927:8936   */\n      dup2\n        /* \"#utility.yul\":8921:8925   */\n      dup2\n        /* \"#utility.yul\":8917:8937   */\n      sub\n        /* \"#utility.yul\":8912:8914   */\n      0x40\n        /* \"#utility.yul\":8901:8910   */\n      dup4\n        /* \"#utility.yul\":8897:8915   */\n      add\n        /* \"#utility.yul\":8890:8938   */\n      mstore\n        /* \"#utility.yul\":8955:9033   */\n      tag_160\n        /* \"#utility.yul\":9028:9032   */\n      dup2\n        /* \"#utility.yul\":9019:9025   */\n      dup8\n        /* \"#utility.yul\":8955:9033   */\n      tag_62\n      jump\t// in\n    tag_160:\n        /* \"#utility.yul\":8947:9033   */\n      swap1\n      pop\n        /* \"#utility.yul\":9080:9089   */\n      dup2\n        /* \"#utility.yul\":9074:9078   */\n      dup2\n        /* \"#utility.yul\":9070:9090   */\n      sub\n        /* \"#utility.yul\":9065:9067   */\n      0x60\n        /* \"#utility.yul\":9054:9063   */\n      dup4\n        /* \"#utility.yul\":9050:9068   */\n      add\n        /* \"#utility.yul\":9043:9091   */\n      mstore\n        /* \"#utility.yul\":9108:9186   */\n      tag_161\n        /* \"#utility.yul\":9181:9185   */\n      dup2\n        /* \"#utility.yul\":9172:9178   */\n      dup7\n        /* \"#utility.yul\":9108:9186   */\n      tag_62\n      jump\t// in\n    tag_161:\n        /* \"#utility.yul\":9100:9186   */\n      swap1\n      pop\n        /* \"#utility.yul\":9234:9243   */\n      dup2\n        /* \"#utility.yul\":9228:9232   */\n      dup2\n        /* \"#utility.yul\":9224:9244   */\n      sub\n        /* \"#utility.yul\":9218:9221   */\n      0x80\n        /* \"#utility.yul\":9207:9216   */\n      dup4\n        /* \"#utility.yul\":9203:9222   */\n      add\n        /* \"#utility.yul\":9196:9245   */\n      mstore\n        /* \"#utility.yul\":9262:9340   */\n      tag_162\n        /* \"#utility.yul\":9335:9339   */\n      dup2\n        /* \"#utility.yul\":9326:9332   */\n      dup6\n        /* \"#utility.yul\":9262:9340   */\n      tag_62\n      jump\t// in\n    tag_162:\n        /* \"#utility.yul\":9254:9340   */\n      swap1\n      pop\n        /* \"#utility.yul\":9350:9423   */\n      tag_163\n        /* \"#utility.yul\":9418:9421   */\n      0xa0\n        /* \"#utility.yul\":9407:9416   */\n      dup4\n        /* \"#utility.yul\":9403:9422   */\n      add\n        /* \"#utility.yul\":9394:9400   */\n      dup5\n        /* \"#utility.yul\":9350:9423   */\n      tag_58\n      jump\t// in\n    tag_163:\n        /* \"#utility.yul\":8382:9430   */\n      swap8\n      swap7\n      pop\n      pop\n      pop\n      pop\n      pop\n      pop\n      pop\n      jump\t// out\n    stop\n\n    sub_0: assembly {\n            /* \"Campaign.sol\":547:3446  contract Campaign{... */\n          mstore(0x40, 0x80)\n            /* \"Campaign.sol\":1094:1406  constructor(uint minimum, address creator, string memory name,string memory description,string memory image,uint target){... */\n          callvalue\n          dup1\n          iszero\n          tag_1\n          jumpi\n          0x00\n          dup1\n          revert\n        tag_1:\n          pop\n          mload(0x40)\n          sub(codesize, bytecodeSize)\n          dup1\n          bytecodeSize\n          dup4\n          codecopy\n          dup2\n          dup2\n          add\n          0x40\n          mstore\n          dup2\n          add\n          swap1\n          tag_2\n          swap2\n          swap1\n          tag_3\n          jump\t// in\n        tag_2:\n            /* \"Campaign.sol\":1234:1241  creator */\n          dup5\n            /* \"Campaign.sol\":1224:1231  manager */\n          0x01\n          0x00\n            /* \"Campaign.sol\":1224:1241  manager = creator */\n          0x0100\n          exp\n          dup2\n          sload\n          dup2\n          0xffffffffffffffffffffffffffffffffffffffff\n          mul\n          not\n          and\n          swap1\n          dup4\n          0xffffffffffffffffffffffffffffffffffffffff\n          and\n          mul\n          or\n          swap1\n          sstore\n          pop\n            /* \"Campaign.sol\":1269:1276  minimum */\n          dup6\n            /* \"Campaign.sol\":1251:1266  minContribution */\n          0x07\n            /* \"Campaign.sol\":1251:1276  minContribution = minimum */\n          dup2\n          swap1\n          sstore\n          pop\n            /* \"Campaign.sol\":1299:1303  name */\n          dup4\n            /* \"Campaign.sol\":1286:1298  CampaignName */\n          0x03\n            /* \"Campaign.sol\":1286:1303  CampaignName=name */\n          swap1\n          dup2\n          tag_6\n          swap2\n          swap1\n          tag_7\n          jump\t// in\n        tag_6:\n          pop\n            /* \"Campaign.sol\":1333:1344  description */\n          dup3\n            /* \"Campaign.sol\":1313:1332  CampaignDescription */\n          0x04\n            /* \"Campaign.sol\":1313:1344  CampaignDescription=description */\n          swap1\n          dup2\n          tag_8\n          swap2\n          swap1\n          tag_7\n          jump\t// in\n        tag_8:\n          pop\n            /* \"Campaign.sol\":1363:1368  image */\n          dup2\n            /* \"Campaign.sol\":1354:1362  imageUrl */\n          0x05\n            /* \"Campaign.sol\":1354:1368  imageUrl=image */\n          swap1\n          dup2\n          tag_9\n          swap2\n          swap1\n          tag_7\n          jump\t// in\n        tag_9:\n          pop\n            /* \"Campaign.sol\":1393:1399  target */\n          dup1\n            /* \"Campaign.sol\":1378:1392  targetToAchive */\n          0x06\n            /* \"Campaign.sol\":1378:1399  targetToAchive=target */\n          dup2\n          swap1\n          sstore\n          pop\n            /* \"Campaign.sol\":1094:1406  constructor(uint minimum, address creator, string memory name,string memory description,string memory image,uint target){... */\n          pop\n          pop\n          pop\n          pop\n          pop\n          pop\n            /* \"Campaign.sol\":547:3446  contract Campaign{... */\n          jump(tag_10)\n            /* \"#utility.yul\":7:82   */\n        tag_11:\n            /* \"#utility.yul\":40:46   */\n          0x00\n            /* \"#utility.yul\":73:75   */\n          0x40\n            /* \"#utility.yul\":67:76   */\n          mload\n            /* \"#utility.yul\":57:76   */\n          swap1\n          pop\n            /* \"#utility.yul\":7:82   */\n          swap1\n          jump\t// out\n            /* \"#utility.yul\":88:205   */\n        tag_12:\n            /* \"#utility.yul\":197:198   */\n          0x00\n            /* \"#utility.yul\":194:195   */\n          dup1\n            /* \"#utility.yul\":187:199   */\n          revert\n            /* \"#utility.yul\":211:328   */\n        tag_13:\n            /* \"#utility.yul\":320:321   */\n          0x00\n            /* \"#utility.yul\":317:318   */\n          dup1\n            /* \"#utility.yul\":310:322   */\n          revert\n            /* \"#utility.yul\":334:411   */\n        tag_14:\n            /* \"#utility.yul\":371:378   */\n          0x00\n            /* \"#utility.yul\":400:405   */\n          dup2\n            /* \"#utility.yul\":389:405   */\n          swap1\n          pop\n            /* \"#utility.yul\":334:411   */\n          swap2\n          swap1\n          pop\n          jump\t// out\n            /* \"#utility.yul\":417:539   */\n        tag_15:\n            /* \"#utility.yul\":490:514   */\n          tag_55\n            /* \"#utility.yul\":508:513   */\n          dup2\n            /* \"#utility.yul\":490:514   */\n          tag_14\n          jump\t// in\n        tag_55:\n            /* \"#utility.yul\":483:488   */\n          dup2\n            /* \"#utility.yul\":480:515   */\n          eq\n            /* \"#utility.yul\":470:533   */\n          tag_56\n          jumpi\n            /* \"#utility.yul\":529:530   */\n          0x00\n            /* \"#utility.yul\":526:527   */\n          dup1\n            /* \"#utility.yul\":519:531   */\n          revert\n            /* \"#utility.yul\":470:533   */\n        tag_56:\n            /* \"#utility.yul\":417:539   */\n          pop\n          jump\t// out\n            /* \"#utility.yul\":545:688   */\n        tag_16:\n            /* \"#utility.yul\":602:607   */\n          0x00\n            /* \"#utility.yul\":633:639   */\n          dup2\n            /* \"#utility.yul\":627:640   */\n          mload\n            /* \"#utility.yul\":618:640   */\n          swap1\n          pop\n            /* \"#utility.yul\":649:682   */\n          tag_58\n            /* \"#utility.yul\":676:681   */\n          dup2\n            /* \"#utility.yul\":649:682   */\n          tag_15\n          jump\t// in\n        tag_58:\n            /* \"#utility.yul\":545:688   */\n          swap3\n          swap2\n          pop\n          pop\n          jump\t// out\n            /* \"#utility.yul\":694:820   */\n        tag_17:\n            /* \"#utility.yul\":731:738   */\n          0x00\n            /* \"#utility.yul\":771:813   */\n          0xffffffffffffffffffffffffffffffffffffffff\n            /* \"#utility.yul\":764:769   */\n          dup3\n            /* \"#utility.yul\":760:814   */\n          and\n            /* \"#utility.yul\":749:814   */\n          swap1\n          pop\n            /* \"#utility.yul\":694:820   */\n          swap2\n          swap1\n          pop\n          jump\t// out\n            /* \"#utility.yul\":826:922   */\n        tag_18:\n            /* \"#utility.yul\":863:870   */\n          0x00\n            /* \"#utility.yul\":892:916   */\n          tag_61\n            /* \"#utility.yul\":910:915   */\n          dup3\n            /* \"#utility.yul\":892:916   */\n          tag_17\n          jump\t// in\n        tag_61:\n            /* \"#utility.yul\":881:916   */\n          swap1\n          pop\n            /* \"#utility.yul\":826:922   */\n          swap2\n          swap1\n          pop\n          jump\t// out\n            /* \"#utility.yul\":928:1050   */\n        tag_19:\n            /* \"#utility.yul\":1001:1025   */\n          tag_63\n            /* \"#utility.yul\":1019:1024   */\n          dup2\n            /* \"#utility.yul\":1001:1025   */\n          tag_18\n          jump\t// in\n        tag_63:\n            /* \"#utility.yul\":994:999   */\n          dup2\n            /* \"#utility.yul\":991:1026   */\n          eq\n            /* \"#utility.yul\":981:1044   */\n          tag_64\n          jumpi\n            /* \"#utility.yul\":1040:1041   */\n          0x00\n            /* \"#utility.yul\":1037:1038   */\n          dup1\n            /* \"#utility.yul\":1030:1042   */\n          revert\n            /* \"#utility.yul\":981:1044   */\n        tag_64:\n            /* \"#utility.yul\":928:1050   */\n          pop\n          jump\t// out\n            /* \"#utility.yul\":1056:1199   */\n        tag_20:\n            /* \"#utility.yul\":1113:1118   */\n          0x00\n            /* \"#utility.yul\":1144:1150   */\n          dup2\n            /* \"#utility.yul\":1138:1151   */\n          mload\n            /* \"#utility.yul\":1129:1151   */\n          swap1\n          pop\n            /* \"#utility.yul\":1160:1193   */\n          tag_66\n            /* \"#utility.yul\":1187:1192   */\n          dup2\n            /* \"#utility.yul\":1160:1193   */\n          tag_19\n          jump\t// in\n        tag_66:\n            /* \"#utility.yul\":1056:1199   */\n          swap3\n          swap2\n          pop\n          pop\n          jump\t// out\n            /* \"#utility.yul\":1205:1322   */\n        tag_21:\n            /* \"#utility.yul\":1314:1315   */\n          0x00\n            /* \"#utility.yul\":1311:1312   */\n          dup1\n            /* \"#utility.yul\":1304:1316   */\n          revert\n            /* \"#utility.yul\":1328:1445   */\n        tag_22:\n            /* \"#utility.yul\":1437:1438   */\n          0x00\n            /* \"#utility.yul\":1434:1435   */\n          dup1\n            /* \"#utility.yul\":1427:1439   */\n          revert\n            /* \"#utility.yul\":1451:1553   */\n        tag_23:\n            /* \"#utility.yul\":1492:1498   */\n          0x00\n            /* \"#utility.yul\":1543:1545   */\n          0x1f\n            /* \"#utility.yul\":1539:1546   */\n          not\n            /* \"#utility.yul\":1534:1536   */\n          0x1f\n            /* \"#utility.yul\":1527:1532   */\n          dup4\n            /* \"#utility.yul\":1523:1537   */\n          add\n            /* \"#utility.yul\":1519:1547   */\n          and\n            /* \"#utility.yul\":1509:1547   */\n          swap1\n          pop\n            /* \"#utility.yul\":1451:1553   */\n          swap2\n          swap1\n          pop\n          jump\t// out\n            /* \"#utility.yul\":1559:1739   */\n        tag_24:\n            /* \"#utility.yul\":1607:1684   */\n          0x4e487b7100000000000000000000000000000000000000000000000000000000\n            /* \"#utility.yul\":1604:1605   */\n          0x00\n            /* \"#utility.yul\":1597:1685   */\n          mstore\n            /* \"#utility.yul\":1704:1708   */\n          0x41\n            /* \"#utility.yul\":1701:1702   */\n          0x04\n            /* \"#utility.yul\":1694:1709   */\n          mstore\n            /* \"#utility.yul\":1728:1732   */\n          0x24\n            /* \"#utility.yul\":1725:1726   */\n          0x00\n            /* \"#utility.yul\":1718:1733   */\n          revert\n            /* \"#utility.yul\":1745:2026   */\n        tag_25:\n            /* \"#utility.yul\":1828:1855   */\n          tag_72\n            /* \"#utility.yul\":1850:1854   */\n          dup3\n            /* \"#utility.yul\":1828:1855   */\n          tag_23\n          jump\t// in\n        tag_72:\n            /* \"#utility.yul\":1820:1826   */\n          dup2\n            /* \"#utility.yul\":1816:1856   */\n          add\n            /* \"#utility.yul\":1958:1964   */\n          dup2\n            /* \"#utility.yul\":1946:1956   */\n          dup2\n            /* \"#utility.yul\":1943:1965   */\n          lt\n            /* \"#utility.yul\":1922:1940   */\n          0xffffffffffffffff\n            /* \"#utility.yul\":1910:1920   */\n          dup3\n            /* \"#utility.yul\":1907:1941   */\n          gt\n            /* \"#utility.yul\":1904:1966   */\n          or\n            /* \"#utility.yul\":1901:1989   */\n          iszero\n          tag_73\n          jumpi\n            /* \"#utility.yul\":1969:1987   */\n          tag_74\n          tag_24\n          jump\t// in\n        tag_74:\n            /* \"#utility.yul\":1901:1989   */\n        tag_73:\n            /* \"#utility.yul\":2009:2019   */\n          dup1\n            /* \"#utility.yul\":2005:2007   */\n          0x40\n            /* \"#utility.yul\":1998:2020   */\n          mstore\n            /* \"#utility.yul\":1788:2026   */\n          pop\n            /* \"#utility.yul\":1745:2026   */\n          pop\n          pop\n          jump\t// out\n            /* \"#utility.yul\":2032:2161   */\n        tag_26:\n            /* \"#utility.yul\":2066:2072   */\n          0x00\n            /* \"#utility.yul\":2093:2113   */\n          tag_76\n          tag_11\n          jump\t// in\n        tag_76:\n            /* \"#utility.yul\":2083:2113   */\n          swap1\n          pop\n            /* \"#utility.yul\":2122:2155   */\n          tag_77\n            /* \"#utility.yul\":2150:2154   */\n          dup3\n            /* \"#utility.yul\":2142:2148   */\n          dup3\n            /* \"#utility.yul\":2122:2155   */\n          tag_25\n          jump\t// in\n        tag_77:\n            /* \"#utility.yul\":2032:2161   */\n          swap2\n          swap1\n          pop\n          jump\t// out\n            /* \"#utility.yul\":2167:2475   */\n        tag_27:\n            /* \"#utility.yul\":2229:2233   */\n          0x00\n            /* \"#utility.yul\":2319:2337   */\n          0xffffffffffffffff\n            /* \"#utility.yul\":2311:2317   */\n          dup3\n            /* \"#utility.yul\":2308:2338   */\n          gt\n            /* \"#utility.yul\":2305:2361   */\n          iszero\n          tag_79\n          jumpi\n            /* \"#utility.yul\":2341:2359   */\n          tag_80\n          tag_24\n          jump\t// in\n        tag_80:\n            /* \"#utility.yul\":2305:2361   */\n        tag_79:\n            /* \"#utility.yul\":2379:2408   */\n          tag_81\n            /* \"#utility.yul\":2401:2407   */\n          dup3\n            /* \"#utility.yul\":2379:2408   */\n          tag_23\n          jump\t// in\n        tag_81:\n            /* \"#utility.yul\":2371:2408   */\n          swap1\n          pop\n            /* \"#utility.yul\":2463:2467   */\n          0x20\n            /* \"#utility.yul\":2457:2461   */\n          dup2\n            /* \"#utility.yul\":2453:2468   */\n          add\n            /* \"#utility.yul\":2445:2468   */\n          swap1\n          pop\n            /* \"#utility.yul\":2167:2475   */\n          swap2\n          swap1\n          pop\n          jump\t// out\n            /* \"#utility.yul\":2481:2788   */\n        tag_28:\n            /* \"#utility.yul\":2549:2550   */\n          0x00\n            /* \"#utility.yul\":2559:2672   */\n        tag_83:\n            /* \"#utility.yul\":2573:2579   */\n          dup4\n            /* \"#utility.yul\":2570:2571   */\n          dup2\n            /* \"#utility.yul\":2567:2580   */\n          lt\n            /* \"#utility.yul\":2559:2672   */\n          iszero\n          tag_85\n          jumpi\n            /* \"#utility.yul\":2658:2659   */\n          dup1\n            /* \"#utility.yul\":2653:2656   */\n          dup3\n            /* \"#utility.yul\":2649:2660   */\n          add\n            /* \"#utility.yul\":2643:2661   */\n          mload\n            /* \"#utility.yul\":2639:2640   */\n          dup2\n            /* \"#utility.yul\":2634:2637   */\n          dup5\n            /* \"#utility.yul\":2630:2641   */\n          add\n            /* \"#utility.yul\":2623:2662   */\n          mstore\n            /* \"#utility.yul\":2595:2597   */\n          0x20\n            /* \"#utility.yul\":2592:2593   */\n          dup2\n            /* \"#utility.yul\":2588:2598   */\n          add\n            /* \"#utility.yul\":2583:2598   */\n          swap1\n          pop\n            /* \"#utility.yul\":2559:2672   */\n          jump(tag_83)\n        tag_85:\n            /* \"#utility.yul\":2690:2696   */\n          dup4\n            /* \"#utility.yul\":2687:2688   */\n          dup2\n            /* \"#utility.yul\":2684:2697   */\n          gt\n            /* \"#utility.yul\":2681:2782   */\n          iszero\n          tag_86\n          jumpi\n            /* \"#utility.yul\":2770:2771   */\n          0x00\n            /* \"#utility.yul\":2761:2767   */\n          dup5\n            /* \"#utility.yul\":2756:2759   */\n          dup5\n            /* \"#utility.yul\":2752:2768   */\n          add\n            /* \"#utility.yul\":2745:2772   */\n          mstore\n            /* \"#utility.yul\":2681:2782   */\n        tag_86:\n            /* \"#utility.yul\":2530:2788   */\n          pop\n            /* \"#utility.yul\":2481:2788   */\n          pop\n          pop\n          pop\n          jump\t// out\n            /* \"#utility.yul\":2794:3215   */\n        tag_29:\n            /* \"#utility.yul\":2883:2888   */\n          0x00\n            /* \"#utility.yul\":2908:2974   */\n          tag_88\n            /* \"#utility.yul\":2924:2973   */\n          tag_89\n            /* \"#utility.yul\":2966:2972   */\n          dup5\n            /* \"#utility.yul\":2924:2973   */\n          tag_27\n          jump\t// in\n        tag_89:\n            /* \"#utility.yul\":2908:2974   */\n          tag_26\n          jump\t// in\n        tag_88:\n            /* \"#utility.yul\":2899:2974   */\n          swap1\n          pop\n            /* \"#utility.yul\":2997:3003   */\n          dup3\n            /* \"#utility.yul\":2990:2995   */\n          dup2\n            /* \"#utility.yul\":2983:3004   */\n          mstore\n            /* \"#utility.yul\":3035:3039   */\n          0x20\n            /* \"#utility.yul\":3028:3033   */\n          dup2\n            /* \"#utility.yul\":3024:3040   */\n          add\n            /* \"#utility.yul\":3073:3076   */\n          dup5\n            /* \"#utility.yul\":3064:3070   */\n          dup5\n            /* \"#utility.yul\":3059:3062   */\n          dup5\n            /* \"#utility.yul\":3055:3071   */\n          add\n            /* \"#utility.yul\":3052:3077   */\n          gt\n            /* \"#utility.yul\":3049:3161   */\n          iszero\n          tag_90\n          jumpi\n            /* \"#utility.yul\":3080:3159   */\n          tag_91\n          tag_22\n          jump\t// in\n        tag_91:\n            /* \"#utility.yul\":3049:3161   */\n        tag_90:\n            /* \"#utility.yul\":3170:3209   */\n          tag_92\n            /* \"#utility.yul\":3202:3208   */\n          dup5\n            /* \"#utility.yul\":3197:3200   */\n          dup3\n            /* \"#utility.yul\":3192:3195   */\n          dup6\n            /* \"#utility.yul\":3170:3209   */\n          tag_28\n          jump\t// in\n        tag_92:\n            /* \"#utility.yul\":2889:3215   */\n          pop\n            /* \"#utility.yul\":2794:3215   */\n          swap4\n          swap3\n          pop\n          pop\n          pop\n          jump\t// out\n            /* \"#utility.yul\":3235:3590   */\n        tag_30:\n            /* \"#utility.yul\":3302:3307   */\n          0x00\n            /* \"#utility.yul\":3351:3354   */\n          dup3\n            /* \"#utility.yul\":3344:3348   */\n          0x1f\n            /* \"#utility.yul\":3336:3342   */\n          dup4\n            /* \"#utility.yul\":3332:3349   */\n          add\n            /* \"#utility.yul\":3328:3355   */\n          slt\n            /* \"#utility.yul\":3318:3440   */\n          tag_94\n          jumpi\n            /* \"#utility.yul\":3359:3438   */\n          tag_95\n          tag_21\n          jump\t// in\n        tag_95:\n            /* \"#utility.yul\":3318:3440   */\n        tag_94:\n            /* \"#utility.yul\":3469:3475   */\n          dup2\n            /* \"#utility.yul\":3463:3476   */\n          mload\n            /* \"#utility.yul\":3494:3584   */\n          tag_96\n            /* \"#utility.yul\":3580:3583   */\n          dup5\n            /* \"#utility.yul\":3572:3578   */\n          dup3\n            /* \"#utility.yul\":3565:3569   */\n          0x20\n            /* \"#utility.yul\":3557:3563   */\n          dup7\n            /* \"#utility.yul\":3553:3570   */\n          add\n            /* \"#utility.yul\":3494:3584   */\n          tag_29\n          jump\t// in\n        tag_96:\n            /* \"#utility.yul\":3485:3584   */\n          swap2\n          pop\n            /* \"#utility.yul\":3308:3590   */\n          pop\n            /* \"#utility.yul\":3235:3590   */\n          swap3\n          swap2\n          pop\n          pop\n          jump\t// out\n            /* \"#utility.yul\":3596:5249   */\n        tag_3:\n            /* \"#utility.yul\":3741:3747   */\n          0x00\n            /* \"#utility.yul\":3749:3755   */\n          dup1\n            /* \"#utility.yul\":3757:3763   */\n          0x00\n            /* \"#utility.yul\":3765:3771   */\n          dup1\n            /* \"#utility.yul\":3773:3779   */\n          0x00\n            /* \"#utility.yul\":3781:3787   */\n          dup1\n            /* \"#utility.yul\":3830:3833   */\n          0xc0\n            /* \"#utility.yul\":3818:3827   */\n          dup8\n            /* \"#utility.yul\":3809:3816   */\n          dup10\n            /* \"#utility.yul\":3805:3828   */\n          sub\n            /* \"#utility.yul\":3801:3834   */\n          slt\n            /* \"#utility.yul\":3798:3918   */\n          iszero\n          tag_98\n          jumpi\n            /* \"#utility.yul\":3837:3916   */\n          tag_99\n          tag_12\n          jump\t// in\n        tag_99:\n            /* \"#utility.yul\":3798:3918   */\n        tag_98:\n            /* \"#utility.yul\":3957:3958   */\n          0x00\n            /* \"#utility.yul\":3982:4046   */\n          tag_100\n            /* \"#utility.yul\":4038:4045   */\n          dup10\n            /* \"#utility.yul\":4029:4035   */\n          dup3\n            /* \"#utility.yul\":4018:4027   */\n          dup11\n            /* \"#utility.yul\":4014:4036   */\n          add\n            /* \"#utility.yul\":3982:4046   */\n          tag_16\n          jump\t// in\n        tag_100:\n            /* \"#utility.yul\":3972:4046   */\n          swap7\n          pop\n            /* \"#utility.yul\":3928:4056   */\n          pop\n            /* \"#utility.yul\":4095:4097   */\n          0x20\n            /* \"#utility.yul\":4121:4185   */\n          tag_101\n            /* \"#utility.yul\":4177:4184   */\n          dup10\n            /* \"#utility.yul\":4168:4174   */\n          dup3\n            /* \"#utility.yul\":4157:4166   */\n          dup11\n            /* \"#utility.yul\":4153:4175   */\n          add\n            /* \"#utility.yul\":4121:4185   */\n          tag_20\n          jump\t// in\n        tag_101:\n            /* \"#utility.yul\":4111:4185   */\n          swap6\n          pop\n            /* \"#utility.yul\":4066:4195   */\n          pop\n            /* \"#utility.yul\":4255:4257   */\n          0x40\n            /* \"#utility.yul\":4244:4253   */\n          dup8\n            /* \"#utility.yul\":4240:4258   */\n          add\n            /* \"#utility.yul\":4234:4259   */\n          mload\n            /* \"#utility.yul\":4286:4304   */\n          0xffffffffffffffff\n            /* \"#utility.yul\":4278:4284   */\n          dup2\n            /* \"#utility.yul\":4275:4305   */\n          gt\n            /* \"#utility.yul\":4272:4389   */\n          iszero\n          tag_102\n          jumpi\n            /* \"#utility.yul\":4308:4387   */\n          tag_103\n          tag_13\n          jump\t// in\n        tag_103:\n            /* \"#utility.yul\":4272:4389   */\n        tag_102:\n            /* \"#utility.yul\":4413:4487   */\n          tag_104\n            /* \"#utility.yul\":4479:4486   */\n          dup10\n            /* \"#utility.yul\":4470:4476   */\n          dup3\n            /* \"#utility.yul\":4459:4468   */\n          dup11\n            /* \"#utility.yul\":4455:4477   */\n          add\n            /* \"#utility.yul\":4413:4487   */\n          tag_30\n          jump\t// in\n        tag_104:\n            /* \"#utility.yul\":4403:4487   */\n          swap5\n          pop\n            /* \"#utility.yul\":4205:4497   */\n          pop\n            /* \"#utility.yul\":4557:4559   */\n          0x60\n            /* \"#utility.yul\":4546:4555   */\n          dup8\n            /* \"#utility.yul\":4542:4560   */\n          add\n            /* \"#utility.yul\":4536:4561   */\n          mload\n            /* \"#utility.yul\":4588:4606   */\n          0xffffffffffffffff\n            /* \"#utility.yul\":4580:4586   */\n          dup2\n            /* \"#utility.yul\":4577:4607   */\n          gt\n            /* \"#utility.yul\":4574:4691   */\n          iszero\n          tag_105\n          jumpi\n            /* \"#utility.yul\":4610:4689   */\n          tag_106\n          tag_13\n          jump\t// in\n        tag_106:\n            /* \"#utility.yul\":4574:4691   */\n        tag_105:\n            /* \"#utility.yul\":4715:4789   */\n          tag_107\n            /* \"#utility.yul\":4781:4788   */\n          dup10\n            /* \"#utility.yul\":4772:4778   */\n          dup3\n            /* \"#utility.yul\":4761:4770   */\n          dup11\n            /* \"#utility.yul\":4757:4779   */\n          add\n            /* \"#utility.yul\":4715:4789   */\n          tag_30\n          jump\t// in\n        tag_107:\n            /* \"#utility.yul\":4705:4789   */\n          swap4\n          pop\n            /* \"#utility.yul\":4507:4799   */\n          pop\n            /* \"#utility.yul\":4859:4862   */\n          0x80\n            /* \"#utility.yul\":4848:4857   */\n          dup8\n            /* \"#utility.yul\":4844:4863   */\n          add\n            /* \"#utility.yul\":4838:4864   */\n          mload\n            /* \"#utility.yul\":4891:4909   */\n          0xffffffffffffffff\n            /* \"#utility.yul\":4883:4889   */\n          dup2\n            /* \"#utility.yul\":4880:4910   */\n          gt\n            /* \"#utility.yul\":4877:4994   */\n          iszero\n          tag_108\n          jumpi\n            /* \"#utility.yul\":4913:4992   */\n          tag_109\n          tag_13\n          jump\t// in\n        tag_109:\n            /* \"#utility.yul\":4877:4994   */\n        tag_108:\n            /* \"#utility.yul\":5018:5092   */\n          tag_110\n            /* \"#utility.yul\":5084:5091   */\n          dup10\n            /* \"#utility.yul\":5075:5081   */\n          dup3\n            /* \"#utility.yul\":5064:5073   */\n          dup11\n            /* \"#utility.yul\":5060:5082   */\n          add\n            /* \"#utility.yul\":5018:5092   */\n          tag_30\n          jump\t// in\n        tag_110:\n            /* \"#utility.yul\":5008:5092   */\n          swap3\n          pop\n            /* \"#utility.yul\":4809:5102   */\n          pop\n            /* \"#utility.yul\":5141:5144   */\n          0xa0\n            /* \"#utility.yul\":5168:5232   */\n          tag_111\n            /* \"#utility.yul\":5224:5231   */\n          dup10\n            /* \"#utility.yul\":5215:5221   */\n          dup3\n            /* \"#utility.yul\":5204:5213   */\n          dup11\n            /* \"#utility.yul\":5200:5222   */\n          add\n            /* \"#utility.yul\":5168:5232   */\n          tag_16\n          jump\t// in\n        tag_111:\n            /* \"#utility.yul\":5158:5232   */\n          swap2\n          pop\n            /* \"#utility.yul\":5112:5242   */\n          pop\n            /* \"#utility.yul\":3596:5249   */\n          swap3\n          swap6\n          pop\n          swap3\n          swap6\n          pop\n          swap3\n          swap6\n          jump\t// out\n            /* \"#utility.yul\":5255:5354   */\n        tag_31:\n            /* \"#utility.yul\":5307:5313   */\n          0x00\n            /* \"#utility.yul\":5341:5346   */\n          dup2\n            /* \"#utility.yul\":5335:5347   */\n          mload\n            /* \"#utility.yul\":5325:5347   */\n          swap1\n          pop\n            /* \"#utility.yul\":5255:5354   */\n          swap2\n          swap1\n          pop\n          jump\t// out\n            /* \"#utility.yul\":5360:5540   */\n        tag_32:\n            /* \"#utility.yul\":5408:5485   */\n          0x4e487b7100000000000000000000000000000000000000000000000000000000\n            /* \"#utility.yul\":5405:5406   */\n          0x00\n            /* \"#utility.yul\":5398:5486   */\n          mstore\n            /* \"#utility.yul\":5505:5509   */\n          0x22\n            /* \"#utility.yul\":5502:5503   */\n          0x04\n            /* \"#utility.yul\":5495:5510   */\n          mstore\n            /* \"#utility.yul\":5529:5533   */\n          0x24\n            /* \"#utility.yul\":5526:5527   */\n          0x00\n            /* \"#utility.yul\":5519:5534   */\n          revert\n            /* \"#utility.yul\":5546:5866   */\n        tag_33:\n            /* \"#utility.yul\":5590:5596   */\n          0x00\n            /* \"#utility.yul\":5627:5628   */\n          0x02\n            /* \"#utility.yul\":5621:5625   */\n          dup3\n            /* \"#utility.yul\":5617:5629   */\n          div\n            /* \"#utility.yul\":5607:5629   */\n          swap1\n          pop\n            /* \"#utility.yul\":5674:5675   */\n          0x01\n            /* \"#utility.yul\":5668:5672   */\n          dup3\n            /* \"#utility.yul\":5664:5676   */\n          and\n            /* \"#utility.yul\":5695:5713   */\n          dup1\n            /* \"#utility.yul\":5685:5766   */\n          tag_115\n          jumpi\n            /* \"#utility.yul\":5751:5755   */\n          0x7f\n            /* \"#utility.yul\":5743:5749   */\n          dup3\n            /* \"#utility.yul\":5739:5756   */\n          and\n            /* \"#utility.yul\":5729:5756   */\n          swap2\n          pop\n            /* \"#utility.yul\":5685:5766   */\n        tag_115:\n            /* \"#utility.yul\":5813:5815   */\n          0x20\n            /* \"#utility.yul\":5805:5811   */\n          dup3\n            /* \"#utility.yul\":5802:5816   */\n          lt\n            /* \"#utility.yul\":5782:5800   */\n          dup2\n            /* \"#utility.yul\":5779:5817   */\n          sub\n            /* \"#utility.yul\":5776:5860   */\n          tag_116\n          jumpi\n            /* \"#utility.yul\":5832:5850   */\n          tag_117\n          tag_32\n          jump\t// in\n        tag_117:\n            /* \"#utility.yul\":5776:5860   */\n        tag_116:\n            /* \"#utility.yul\":5597:5866   */\n          pop\n            /* \"#utility.yul\":5546:5866   */\n          swap2\n          swap1\n          pop\n          jump\t// out\n            /* \"#utility.yul\":5872:6013   */\n        tag_34:\n            /* \"#utility.yul\":5921:5925   */\n          0x00\n            /* \"#utility.yul\":5944:5947   */\n          dup2\n            /* \"#utility.yul\":5936:5947   */\n          swap1\n          pop\n            /* \"#utility.yul\":5967:5970   */\n          dup2\n            /* \"#utility.yul\":5964:5965   */\n          0x00\n            /* \"#utility.yul\":5957:5971   */\n          mstore\n            /* \"#utility.yul\":6001:6005   */\n          0x20\n            /* \"#utility.yul\":5998:5999   */\n          0x00\n            /* \"#utility.yul\":5988:6006   */\n          keccak256\n            /* \"#utility.yul\":5980:6006   */\n          swap1\n          pop\n            /* \"#utility.yul\":5872:6013   */\n          swap2\n          swap1\n          pop\n          jump\t// out\n            /* \"#utility.yul\":6019:6112   */\n        tag_35:\n            /* \"#utility.yul\":6056:6062   */\n          0x00\n            /* \"#utility.yul\":6103:6105   */\n          0x20\n            /* \"#utility.yul\":6098:6100   */\n          0x1f\n            /* \"#utility.yul\":6091:6096   */\n          dup4\n            /* \"#utility.yul\":6087:6101   */\n          add\n            /* \"#utility.yul\":6083:6106   */\n          div\n            /* \"#utility.yul\":6073:6106   */\n          swap1\n          pop\n            /* \"#utility.yul\":6019:6112   */\n          swap2\n          swap1\n          pop\n          jump\t// out\n            /* \"#utility.yul\":6118:6225   */\n        tag_36:\n            /* \"#utility.yul\":6162:6170   */\n          0x00\n            /* \"#utility.yul\":6212:6217   */\n          dup3\n            /* \"#utility.yul\":6206:6210   */\n          dup3\n            /* \"#utility.yul\":6202:6218   */\n          shl\n            /* \"#utility.yul\":6181:6218   */\n          swap1\n          pop\n            /* \"#utility.yul\":6118:6225   */\n          swap3\n          swap2\n          pop\n          pop\n          jump\t// out\n            /* \"#utility.yul\":6231:6624   */\n        tag_37:\n            /* \"#utility.yul\":6300:6306   */\n          0x00\n            /* \"#utility.yul\":6350:6351   */\n          0x08\n            /* \"#utility.yul\":6338:6348   */\n          dup4\n            /* \"#utility.yul\":6334:6352   */\n          mul\n            /* \"#utility.yul\":6373:6470   */\n          tag_122\n            /* \"#utility.yul\":6403:6469   */\n          0xffffffffffffffffffffffffffffffffffffffffffffffffffffffffffffffff\n            /* \"#utility.yul\":6392:6401   */\n          dup3\n            /* \"#utility.yul\":6373:6470   */\n          tag_36\n          jump\t// in\n        tag_122:\n            /* \"#utility.yul\":6491:6530   */\n          tag_123\n            /* \"#utility.yul\":6521:6529   */\n          dup7\n            /* \"#utility.yul\":6510:6519   */\n          dup4\n            /* \"#utility.yul\":6491:6530   */\n          tag_36\n          jump\t// in\n        tag_123:\n            /* \"#utility.yul\":6479:6530   */\n          swap6\n          pop\n            /* \"#utility.yul\":6563:6567   */\n          dup1\n            /* \"#utility.yul\":6559:6568   */\n          not\n            /* \"#utility.yul\":6552:6557   */\n          dup5\n            /* \"#utility.yul\":6548:6569   */\n          and\n            /* \"#utility.yul\":6539:6569   */\n          swap4\n          pop\n            /* \"#utility.yul\":6612:6616   */\n          dup1\n            /* \"#utility.yul\":6602:6610   */\n          dup7\n            /* \"#utility.yul\":6598:6617   */\n          and\n            /* \"#utility.yul\":6591:6596   */\n          dup5\n            /* \"#utility.yul\":6588:6618   */\n          or\n            /* \"#utility.yul\":6578:6618   */\n          swap3\n          pop\n            /* \"#utility.yul\":6307:6624   */\n          pop\n          pop\n            /* \"#utility.yul\":6231:6624   */\n          swap4\n          swap3\n          pop\n          pop\n          pop\n          jump\t// out\n            /* \"#utility.yul\":6630:6690   */\n        tag_38:\n            /* \"#utility.yul\":6658:6661   */\n          0x00\n            /* \"#utility.yul\":6679:6684   */\n          dup2\n            /* \"#utility.yul\":6672:6684   */\n          swap1\n          pop\n            /* \"#utility.yul\":6630:6690   */\n          swap2\n          swap1\n          pop\n          jump\t// out\n            /* \"#utility.yul\":6696:6838   */\n        tag_39:\n            /* \"#utility.yul\":6746:6755   */\n          0x00\n            /* \"#utility.yul\":6779:6832   */\n          tag_126\n            /* \"#utility.yul\":6797:6831   */\n          tag_127\n            /* \"#utility.yul\":6806:6830   */\n          tag_128\n            /* \"#utility.yul\":6824:6829   */\n          dup5\n            /* \"#utility.yul\":6806:6830   */\n          tag_14\n          jump\t// in\n        tag_128:\n            /* \"#utility.yul\":6797:6831   */\n          tag_38\n          jump\t// in\n        tag_127:\n            /* \"#utility.yul\":6779:6832   */\n          tag_14\n          jump\t// in\n        tag_126:\n            /* \"#utility.yul\":6766:6832   */\n          swap1\n          pop\n            /* \"#utility.yul\":6696:6838   */\n          swap2\n          swap1\n          pop\n          jump\t// out\n            /* \"#utility.yul\":6844:6919   */\n        tag_40:\n            /* \"#utility.yul\":6887:6890   */\n          0x00\n            /* \"#utility.yul\":6908:6913   */\n          dup2\n            /* \"#utility.yul\":6901:6913   */\n          swap1\n          pop\n            /* \"#utility.yul\":6844:6919   */\n          swap2\n          swap1\n          pop\n          jump\t// out\n            /* \"#utility.yul\":6925:7194   */\n        tag_41:\n            /* \"#utility.yul\":7035:7074   */\n          tag_131\n            /* \"#utility.yul\":7066:7073   */\n          dup4\n            /* \"#utility.yul\":7035:7074   */\n          tag_39\n          jump\t// in\n        tag_131:\n            /* \"#utility.yul\":7096:7187   */\n          tag_132\n            /* \"#utility.yul\":7145:7186   */\n          tag_133\n            /* \"#utility.yul\":7169:7185   */\n          dup3\n            /* \"#utility.yul\":7145:7186   */\n          tag_40\n          jump\t// in\n        tag_133:\n            /* \"#utility.yul\":7137:7143   */\n          dup5\n            /* \"#utility.yul\":7130:7134   */\n          dup5\n            /* \"#utility.yul\":7124:7135   */\n          sload\n            /* \"#utility.yul\":7096:7187   */\n          tag_37\n          jump\t// in\n        tag_132:\n            /* \"#utility.yul\":7090:7094   */\n          dup3\n            /* \"#utility.yul\":7083:7188   */\n          sstore\n            /* \"#utility.yul\":7001:7194   */\n          pop\n            /* \"#utility.yul\":6925:7194   */\n          pop\n          pop\n          pop\n          jump\t// out\n            /* \"#utility.yul\":7200:7273   */\n        tag_42:\n            /* \"#utility.yul\":7245:7248   */\n          0x00\n            /* \"#utility.yul\":7200:7273   */\n          swap1\n          jump\t// out\n            /* \"#utility.yul\":7279:7468   */\n        tag_43:\n            /* \"#utility.yul\":7356:7388   */\n          tag_136\n          tag_42\n          jump\t// in\n        tag_136:\n            /* \"#utility.yul\":7397:7462   */\n          tag_137\n            /* \"#utility.yul\":7455:7461   */\n          dup2\n            /* \"#utility.yul\":7447:7453   */\n          dup5\n            /* \"#utility.yul\":7441:7445   */\n          dup5\n            /* \"#utility.yul\":7397:7462   */\n          tag_41\n          jump\t// in\n        tag_137:\n            /* \"#utility.yul\":7332:7468   */\n          pop\n            /* \"#utility.yul\":7279:7468   */\n          pop\n          pop\n          jump\t// out\n            /* \"#utility.yul\":7474:7660   */\n        tag_44:\n            /* \"#utility.yul\":7534:7654   */\n        tag_139:\n            /* \"#utility.yul\":7551:7554   */\n          dup2\n            /* \"#utility.yul\":7544:7549   */\n          dup2\n            /* \"#utility.yul\":7541:7555   */\n          lt\n            /* \"#utility.yul\":7534:7654   */\n          iszero\n          tag_141\n          jumpi\n            /* \"#utility.yul\":7605:7644   */\n          tag_142\n            /* \"#utility.yul\":7642:7643   */\n          0x00\n            /* \"#utility.yul\":7635:7640   */\n          dup3\n            /* \"#utility.yul\":7605:7644   */\n          tag_43\n          jump\t// in\n        tag_142:\n            /* \"#utility.yul\":7578:7579   */\n          0x01\n            /* \"#utility.yul\":7571:7576   */\n          dup2\n            /* \"#utility.yul\":7567:7580   */\n          add\n            /* \"#utility.yul\":7558:7580   */\n          swap1\n          pop\n            /* \"#utility.yul\":7534:7654   */\n          jump(tag_139)\n        tag_141:\n            /* \"#utility.yul\":7474:7660   */\n          pop\n          pop\n          jump\t// out\n            /* \"#utility.yul\":7666:8209   */\n        tag_45:\n            /* \"#utility.yul\":7767:7769   */\n          0x1f\n            /* \"#utility.yul\":7762:7765   */\n          dup3\n            /* \"#utility.yul\":7759:7770   */\n          gt\n            /* \"#utility.yul\":7756:8202   */\n          iszero\n          tag_144\n          jumpi\n            /* \"#utility.yul\":7801:7839   */\n          tag_145\n            /* \"#utility.yul\":7833:7838   */\n          dup2\n            /* \"#utility.yul\":7801:7839   */\n          tag_34\n          jump\t// in\n        tag_145:\n            /* \"#utility.yul\":7885:7914   */\n          tag_146\n            /* \"#utility.yul\":7903:7913   */\n          dup5\n            /* \"#utility.yul\":7885:7914   */\n          tag_35\n          jump\t// in\n        tag_146:\n            /* \"#utility.yul\":7875:7883   */\n          dup2\n            /* \"#utility.yul\":7871:7915   */\n          add\n            /* \"#utility.yul\":8068:8070   */\n          0x20\n            /* \"#utility.yul\":8056:8066   */\n          dup6\n            /* \"#utility.yul\":8053:8071   */\n          lt\n            /* \"#utility.yul\":8050:8099   */\n          iszero\n          tag_147\n          jumpi\n            /* \"#utility.yul\":8089:8097   */\n          dup2\n            /* \"#utility.yul\":8074:8097   */\n          swap1\n          pop\n            /* \"#utility.yul\":8050:8099   */\n        tag_147:\n            /* \"#utility.yul\":8112:8192   */\n          tag_148\n            /* \"#utility.yul\":8168:8190   */\n          tag_149\n            /* \"#utility.yul\":8186:8189   */\n          dup6\n            /* \"#utility.yul\":8168:8190   */\n          tag_35\n          jump\t// in\n        tag_149:\n            /* \"#utility.yul\":8158:8166   */\n          dup4\n            /* \"#utility.yul\":8154:8191   */\n          add\n            /* \"#utility.yul\":8141:8152   */\n          dup3\n            /* \"#utility.yul\":8112:8192   */\n          tag_44\n          jump\t// in\n        tag_148:\n            /* \"#utility.yul\":7771:8202   */\n          pop\n          pop\n            /* \"#utility.yul\":7756:8202   */\n        tag_144:\n            /* \"#utility.yul\":7666:8209   */\n          pop\n          pop\n          pop\n          jump\t// out\n            /* \"#utility.yul\":8215:8332   */\n        tag_46:\n            /* \"#utility.yul\":8269:8277   */\n          0x00\n            /* \"#utility.yul\":8319:8324   */\n          dup3\n            /* \"#utility.yul\":8313:8317   */\n          dup3\n            /* \"#utility.yul\":8309:8325   */\n          shr\n            /* \"#utility.yul\":8288:8325   */\n          swap1\n          pop\n            /* \"#utility.yul\":8215:8332   */\n          swap3\n          swap2\n          pop\n          pop\n          jump\t// out\n            /* \"#utility.yul\":8338:8507   */\n        tag_47:\n            /* \"#utility.yul\":8382:8388   */\n          0x00\n            /* \"#utility.yul\":8415:8466   */\n          tag_152\n            /* \"#utility.yul\":8463:8464   */\n          0x00\n            /* \"#utility.yul\":8459:8465   */\n          not\n            /* \"#utility.yul\":8451:8456   */\n          dup5\n            /* \"#utility.yul\":8448:8449   */\n          0x08\n            /* \"#utility.yul\":8444:8457   */\n          mul\n            /* \"#utility.yul\":8415:8466   */\n          tag_46\n          jump\t// in\n        tag_152:\n            /* \"#utility.yul\":8411:8467   */\n          not\n            /* \"#utility.yul\":8496:8500   */\n          dup1\n            /* \"#utility.yul\":8490:8494   */\n          dup4\n            /* \"#utility.yul\":8486:8501   */\n          and\n            /* \"#utility.yul\":8476:8501   */\n          swap2\n          pop\n            /* \"#utility.yul\":8389:8507   */\n          pop\n            /* \"#utility.yul\":8338:8507   */\n          swap3\n          swap2\n          pop\n          pop\n          jump\t// out\n            /* \"#utility.yul\":8512:8807   */\n        tag_48:\n            /* \"#utility.yul\":8588:8592   */\n          0x00\n            /* \"#utility.yul\":8734:8763   */\n          tag_154\n            /* \"#utility.yul\":8759:8762   */\n          dup4\n            /* \"#utility.yul\":8753:8757   */\n          dup4\n            /* \"#utility.yul\":8734:8763   */\n          tag_47\n          jump\t// in\n        tag_154:\n            /* \"#utility.yul\":8726:8763   */\n          swap2\n          pop\n            /* \"#utility.yul\":8796:8799   */\n          dup3\n            /* \"#utility.yul\":8793:8794   */\n          0x02\n            /* \"#utility.yul\":8789:8800   */\n          mul\n            /* \"#utility.yul\":8783:8787   */\n          dup3\n            /* \"#utility.yul\":8780:8801   */\n          or\n            /* \"#utility.yul\":8772:8801   */\n          swap1\n          pop\n            /* \"#utility.yul\":8512:8807   */\n          swap3\n          swap2\n          pop\n          pop\n          jump\t// out\n            /* \"#utility.yul\":8812:10207   */\n        tag_7:\n            /* \"#utility.yul\":8929:8966   */\n          tag_156\n            /* \"#utility.yul\":8962:8965   */\n          dup3\n            /* \"#utility.yul\":8929:8966   */\n          tag_31\n          jump\t// in\n        tag_156:\n            /* \"#utility.yul\":9031:9049   */\n          0xffffffffffffffff\n            /* \"#utility.yul\":9023:9029   */\n          dup2\n            /* \"#utility.yul\":9020:9050   */\n          gt\n            /* \"#utility.yul\":9017:9073   */\n          iszero\n          tag_157\n          jumpi\n            /* \"#utility.yul\":9053:9071   */\n          tag_158\n          tag_24\n          jump\t// in\n        tag_158:\n            /* \"#utility.yul\":9017:9073   */\n        tag_157:\n            /* \"#utility.yul\":9097:9135   */\n          tag_159\n            /* \"#utility.yul\":9129:9133   */\n          dup3\n            /* \"#utility.yul\":9123:9134   */\n          sload\n            /* \"#utility.yul\":9097:9135   */\n          tag_33\n          jump\t// in\n        tag_159:\n            /* \"#utility.yul\":9182:9249   */\n          tag_160\n            /* \"#utility.yul\":9242:9248   */\n          dup3\n            /* \"#utility.yul\":9234:9240   */\n          dup3\n            /* \"#utility.yul\":9228:9232   */\n          dup6\n            /* \"#utility.yul\":9182:9249   */\n          tag_45\n          jump\t// in\n        tag_160:\n            /* \"#utility.yul\":9276:9277   */\n          0x00\n            /* \"#utility.yul\":9300:9304   */\n          0x20\n            /* \"#utility.yul\":9287:9304   */\n          swap1\n          pop\n            /* \"#utility.yul\":9332:9334   */\n          0x1f\n            /* \"#utility.yul\":9324:9330   */\n          dup4\n            /* \"#utility.yul\":9321:9335   */\n          gt\n            /* \"#utility.yul\":9349:9350   */\n          0x01\n            /* \"#utility.yul\":9344:9962   */\n          dup2\n          eq\n          tag_162\n          jumpi\n            /* \"#utility.yul\":10006:10007   */\n          0x00\n            /* \"#utility.yul\":10023:10029   */\n          dup5\n            /* \"#utility.yul\":10020:10097   */\n          iszero\n          tag_163\n          jumpi\n            /* \"#utility.yul\":10072:10081   */\n          dup3\n            /* \"#utility.yul\":10067:10070   */\n          dup8\n            /* \"#utility.yul\":10063:10082   */\n          add\n            /* \"#utility.yul\":10057:10083   */\n          mload\n            /* \"#utility.yul\":10048:10083   */\n          swap1\n          pop\n            /* \"#utility.yul\":10020:10097   */\n        tag_163:\n            /* \"#utility.yul\":10123:10190   */\n          tag_164\n            /* \"#utility.yul\":10183:10189   */\n          dup6\n            /* \"#utility.yul\":10176:10181   */\n          dup3\n            /* \"#utility.yul\":10123:10190   */\n          tag_48\n          jump\t// in\n        tag_164:\n            /* \"#utility.yul\":10117:10121   */\n          dup7\n            /* \"#utility.yul\":10110:10191   */\n          sstore\n            /* \"#utility.yul\":9979:10201   */\n          pop\n            /* \"#utility.yul\":9314:10201   */\n          jump(tag_161)\n            /* \"#utility.yul\":9344:9962   */\n        tag_162:\n            /* \"#utility.yul\":9396:9400   */\n          0x1f\n            /* \"#utility.yul\":9392:9401   */\n          not\n            /* \"#utility.yul\":9384:9390   */\n          dup5\n            /* \"#utility.yul\":9380:9402   */\n          and\n            /* \"#utility.yul\":9430:9467   */\n          tag_165\n            /* \"#utility.yul\":9462:9466   */\n          dup7\n            /* \"#utility.yul\":9430:9467   */\n          tag_34\n          jump\t// in\n        tag_165:\n            /* \"#utility.yul\":9489:9490   */\n          0x00\n            /* \"#utility.yul\":9503:9711   */\n        tag_166:\n            /* \"#utility.yul\":9517:9524   */\n          dup3\n            /* \"#utility.yul\":9514:9515   */\n          dup2\n            /* \"#utility.yul\":9511:9525   */\n          lt\n            /* \"#utility.yul\":9503:9711   */\n          iszero\n          tag_168\n          jumpi\n            /* \"#utility.yul\":9596:9605   */\n          dup5\n            /* \"#utility.yul\":9591:9594   */\n          dup10\n            /* \"#utility.yul\":9587:9606   */\n          add\n            /* \"#utility.yul\":9581:9607   */\n          mload\n            /* \"#utility.yul\":9573:9579   */\n          dup3\n            /* \"#utility.yul\":9566:9608   */\n          sstore\n            /* \"#utility.yul\":9647:9648   */\n          0x01\n            /* \"#utility.yul\":9639:9645   */\n          dup3\n            /* \"#utility.yul\":9635:9649   */\n          add\n            /* \"#utility.yul\":9625:9649   */\n          swap2\n          pop\n            /* \"#utility.yul\":9694:9696   */\n          0x20\n            /* \"#utility.yul\":9683:9692   */\n          dup6\n            /* \"#utility.yul\":9679:9697   */\n          add\n            /* \"#utility.yul\":9666:9697   */\n          swap5\n          pop\n            /* \"#utility.yul\":9540:9544   */\n          0x20\n            /* \"#utility.yul\":9537:9538   */\n          dup2\n            /* \"#utility.yul\":9533:9545   */\n          add\n            /* \"#utility.yul\":9528:9545   */\n          swap1\n          pop\n            /* \"#utility.yul\":9503:9711   */\n          jump(tag_166)\n        tag_168:\n            /* \"#utility.yul\":9739:9745   */\n          dup7\n            /* \"#utility.yul\":9730:9737   */\n          dup4\n            /* \"#utility.yul\":9727:9746   */\n          lt\n            /* \"#utility.yul\":9724:9903   */\n          iszero\n          tag_169\n          jumpi\n            /* \"#utility.yul\":9797:9806   */\n          dup5\n            /* \"#utility.yul\":9792:9795   */\n          dup10\n            /* \"#utility.yul\":9788:9807   */\n          add\n            /* \"#utility.yul\":9782:9808   */\n          mload\n            /* \"#utility.yul\":9840:9888   */\n          tag_170\n            /* \"#utility.yul\":9882:9886   */\n          0x1f\n            /* \"#utility.yul\":9874:9880   */\n          dup10\n            /* \"#utility.yul\":9870:9887   */\n          and\n            /* \"#utility.yul\":9859:9868   */\n          dup3\n            /* \"#utility.yul\":9840:9888   */\n          tag_47\n          jump\t// in\n        tag_170:\n            /* \"#utility.yul\":9832:9838   */\n          dup4\n            /* \"#utility.yul\":9825:9889   */\n          sstore\n            /* \"#utility.yul\":9747:9903   */\n          pop\n            /* \"#utility.yul\":9724:9903   */\n        tag_169:\n            /* \"#utility.yul\":9949:9950   */\n          0x01\n            /* \"#utility.yul\":9945:9946   */\n          0x02\n            /* \"#utility.yul\":9937:9943   */\n          dup9\n            /* \"#utility.yul\":9933:9947   */\n          mul\n            /* \"#utility.yul\":9929:9951   */\n          add\n            /* \"#utility.yul\":9923:9927   */\n          dup9\n            /* \"#utility.yul\":9916:9952   */\n          sstore\n            /* \"#utility.yul\":9351:9962   */\n          pop\n          pop\n          pop\n            /* \"#utility.yul\":9314:10201   */\n        tag_161:\n          pop\n            /* \"#utility.yul\":8904:10207   */\n          pop\n          pop\n          pop\n            /* \"#utility.yul\":8812:10207   */\n          pop\n          pop\n          jump\t// out\n            /* \"Campaign.sol\":547:3446  contract Campaign{... */\n        tag_10:\n          dataSize(sub_0)\n          dup1\n          dataOffset(sub_0)\n          0x00\n          codecopy\n          0x00\n          return\n        stop\n\n        sub_0: assembly {\n                /* \"Campaign.sol\":547:3446  contract Campaign{... */\n              mstore(0x40, 0x80)\n              jumpi(tag_1, lt(calldatasize, 0x04))\n              shr(0xe0, calldataload(0x00))\n              dup1\n              0x8a9cfd55\n              gt\n              tag_19\n              jumpi\n              dup1\n              0xaaffadf3\n              gt\n              tag_20\n              jumpi\n              dup1\n              0xaaffadf3\n              eq\n              tag_14\n              jumpi\n              dup1\n              0xaba83150\n              eq\n              tag_15\n              jumpi\n              dup1\n              0xd7bb99ba\n              eq\n              tag_16\n              jumpi\n              dup1\n              0xd7d1bbdb\n              eq\n              tag_17\n              jumpi\n              dup1\n              0xe850cbc8\n              eq\n              tag_18\n              jumpi\n              jump(tag_1)\n            tag_20:\n              dup1\n              0x8a9cfd55\n              eq\n              tag_10\n              jumpi\n              dup1\n              0x8b7afe2e\n              eq\n              tag_11\n              jumpi\n              dup1\n              0x8b85165d\n              eq\n              tag_12\n              jumpi\n              dup1\n              0x97654a8c\n              eq\n              tag_13\n              jumpi\n              jump(tag_1)\n            tag_19:\n              dup1\n              0x4051ddac\n              gt\n              tag_21\n              jumpi\n              dup1\n              0x4051ddac\n              eq\n              tag_6\n              jumpi\n              dup1\n              0x481c6a75\n              eq\n              tag_7\n              jumpi\n              dup1\n              0x7e7cd1b3\n              eq\n              tag_8\n              jumpi\n              dup1\n              0x81d12c58\n              eq\n              tag_9\n              jumpi\n              jump(tag_1)\n            tag_21:\n              dup1\n              0x03441006\n              eq\n              tag_2\n              jumpi\n              dup1\n              0x0a144391\n              eq\n              tag_3\n              jumpi\n              dup1\n              0x128e9be6\n              eq\n              tag_4\n              jumpi\n              dup1\n              0x3410452a\n              eq\n              tag_5\n              jumpi\n            tag_1:\n              0x00\n              dup1\n              revert\n                /* \"Campaign.sol\":2472:2832  function finalizeRequest(uint256 index) public payable managerOnly {... */\n            tag_2:\n              tag_22\n              0x04\n              dup1\n              calldatasize\n              sub\n              dup2\n              add\n              swap1\n              tag_23\n              swap2\n              swap1\n              tag_24\n              jump\t// in\n            tag_23:\n              tag_25\n              jump\t// in\n            tag_22:\n              stop\n                /* \"Campaign.sol\":845:886  mapping(address => bool) public approvers */\n            tag_3:\n              callvalue\n              dup1\n              iszero\n              tag_26\n              jumpi\n              0x00\n              dup1\n              revert\n            tag_26:\n              pop\n              tag_27\n              0x04\n              dup1\n              calldatasize\n              sub\n              dup2\n              add\n              swap1\n              tag_28\n              swap2\n              swap1\n              tag_29\n              jump\t// in\n            tag_28:\n              tag_30\n              jump\t// in\n            tag_27:\n              mload(0x40)\n              tag_31\n              swap2\n              swap1\n              tag_32\n              jump\t// in\n            tag_31:\n              mload(0x40)\n              dup1\n              swap2\n              sub\n              swap1\n              return\n                /* \"Campaign.sol\":1058:1083  uint public approverCount */\n            tag_4:\n              callvalue\n              dup1\n              iszero\n              tag_33\n              jumpi\n              0x00\n              dup1\n              revert\n            tag_33:\n              pop\n              tag_34\n              tag_35\n              jump\t// in\n            tag_34:\n              mload(0x40)\n              tag_36\n              swap2\n              swap1\n              tag_37\n              jump\t// in\n            tag_36:\n              mload(0x40)\n              dup1\n              swap2\n              sub\n              swap1\n              return\n                /* \"Campaign.sol\":3347:3444  function getRequestsCount() public view returns (uint256) {... */\n            tag_5:\n              callvalue\n              dup1\n              iszero\n              tag_38\n              jumpi\n              0x00\n              dup1\n              revert\n            tag_38:\n              pop\n              tag_39\n              tag_40\n              jump\t// in\n            tag_39:\n              mload(0x40)\n              tag_41\n              swap2\n              swap1\n              tag_37\n              jump\t// in\n            tag_41:\n              mload(0x40)\n              dup1\n              swap2\n              sub\n              swap1\n              return\n                /* \"Campaign.sol\":2938:3341  function getSummary() public view returns(uint,uint,uint,uint,address,string memory,string memory,string memory,uint ){... */\n            tag_6:\n              callvalue\n              dup1\n              iszero\n              tag_42\n              jumpi\n              0x00\n              dup1\n              revert\n            tag_42:\n              pop\n              tag_43\n              tag_44\n              jump\t// in\n            tag_43:\n              mload(0x40)\n              tag_45\n              swap10\n              swap9\n              swap8\n              swap7\n              swap6\n              swap5\n              swap4\n              swap3\n              swap2\n              swap1\n              tag_46\n              jump\t// in\n            tag_45:\n              mload(0x40)\n              dup1\n              swap2\n              sub\n              swap1\n              return\n                /* \"Campaign.sol\":817:839  address public manager */\n            tag_7:\n              callvalue\n              dup1\n              iszero\n              tag_47\n              jumpi\n              0x00\n              dup1\n              revert\n            tag_47:\n              pop\n              tag_48\n              tag_49\n              jump\t// in\n            tag_48:\n              mload(0x40)\n              tag_50\n              swap2\n              swap1\n              tag_51\n              jump\t// in\n            tag_50:\n              mload(0x40)\n              dup1\n              swap2\n              sub\n              swap1\n              return\n                /* \"Campaign.sol\":892:918  string public CampaignName */\n            tag_8:\n              callvalue\n              dup1\n              iszero\n              tag_52\n              jumpi\n              0x00\n              dup1\n              revert\n            tag_52:\n              pop\n              tag_53\n              tag_54\n              jump\t// in\n            tag_53:\n              mload(0x40)\n              tag_55\n              swap2\n              swap1\n              tag_56\n              jump\t// in\n            tag_55:\n              mload(0x40)\n              dup1\n              swap2\n              sub\n              swap1\n              return\n                /* \"Campaign.sol\":786:811  Request[] public requests */\n            tag_9:\n              callvalue\n              dup1\n              iszero\n              tag_57\n              jumpi\n              0x00\n              dup1\n              revert\n            tag_57:\n              pop\n              tag_58\n              0x04\n              dup1\n              calldatasize\n              sub\n              dup2\n              add\n              swap1\n              tag_59\n              swap2\n              swap1\n              tag_24\n              jump\t// in\n            tag_59:\n              tag_60\n              jump\t// in\n            tag_58:\n              mload(0x40)\n              tag_61\n              swap6\n              swap5\n              swap4\n              swap3\n              swap2\n              swap1\n              tag_62\n              jump\t// in\n            tag_61:\n              mload(0x40)\n              dup1\n              swap2\n              sub\n              swap1\n              return\n                /* \"Campaign.sol\":1783:2134  function createRequest(string memory description, uint value, address payable recipient) public managerOnly {... */\n            tag_10:\n              callvalue\n              dup1\n              iszero\n              tag_63\n              jumpi\n              0x00\n              dup1\n              revert\n            tag_63:\n              pop\n              tag_64\n              0x04\n              dup1\n              calldatasize\n              sub\n              dup2\n              add\n              swap1\n              tag_65\n              swap2\n              swap1\n              tag_66\n              jump\t// in\n            tag_65:\n              tag_67\n              jump\t// in\n            tag_64:\n              stop\n                /* \"Campaign.sol\":2838:2932  function contractBalance() public view returns(uint) {... */\n            tag_11:\n              callvalue\n              dup1\n              iszero\n              tag_68\n              jumpi\n              0x00\n              dup1\n              revert\n            tag_68:\n              pop\n              tag_69\n              tag_70\n              jump\t// in\n            tag_69:\n              mload(0x40)\n              tag_71\n              swap2\n              swap1\n              tag_37\n              jump\t// in\n            tag_71:\n              mload(0x40)\n              dup1\n              swap2\n              sub\n              swap1\n              return\n                /* \"Campaign.sol\":991:1017  uint public targetToAchive */\n            tag_12:\n              callvalue\n              dup1\n              iszero\n              tag_72\n              jumpi\n              0x00\n              dup1\n              revert\n            tag_72:\n              pop\n              tag_73\n              tag_74\n              jump\t// in\n            tag_73:\n              mload(0x40)\n              tag_75\n              swap2\n              swap1\n              tag_37\n              jump\t// in\n            tag_75:\n              mload(0x40)\n              dup1\n              swap2\n              sub\n              swap1\n              return\n                /* \"Campaign.sol\":924:957  string public CampaignDescription */\n            tag_13:\n              callvalue\n              dup1\n              iszero\n              tag_76\n              jumpi\n              0x00\n              dup1\n              revert\n            tag_76:\n              pop\n              tag_77\n              tag_78\n              jump\t// in\n            tag_77:\n              mload(0x40)\n              tag_79\n              swap2\n              swap1\n              tag_56\n              jump\t// in\n            tag_79:\n              mload(0x40)\n              dup1\n              swap2\n              sub\n              swap1\n              return\n                /* \"Campaign.sol\":1024:1051  uint public minContribution */\n            tag_14:\n              callvalue\n              dup1\n              iszero\n              tag_80\n              jumpi\n              0x00\n              dup1\n              revert\n            tag_80:\n              pop\n              tag_81\n              tag_82\n              jump\t// in\n            tag_81:\n              mload(0x40)\n              tag_83\n              swap2\n              swap1\n              tag_37\n              jump\t// in\n            tag_83:\n              mload(0x40)\n              dup1\n              swap2\n              sub\n              swap1\n              return\n                /* \"Campaign.sol\":963:985  string public imageUrl */\n            tag_15:\n              callvalue\n              dup1\n              iszero\n              tag_84\n              jumpi\n              0x00\n              dup1\n              revert\n            tag_84:\n              pop\n              tag_85\n              tag_86\n              jump\t// in\n            tag_85:\n              mload(0x40)\n              tag_87\n              swap2\n              swap1\n              tag_56\n              jump\t// in\n            tag_87:\n              mload(0x40)\n              dup1\n              swap2\n              sub\n              swap1\n              return\n                /* \"Campaign.sol\":1623:1777  function contribute() public payable{... */\n            tag_16:\n              tag_88\n              tag_89\n              jump\t// in\n            tag_88:\n              stop\n                /* \"Campaign.sol\":2140:2466  function approveRequest(uint index) public {... */\n            tag_17:\n              callvalue\n              dup1\n              iszero\n              tag_90\n              jumpi\n              0x00\n              dup1\n              revert\n            tag_90:\n              pop\n              tag_91\n              0x04\n              dup1\n              calldatasize\n              sub\n              dup2\n              add\n              swap1\n              tag_92\n              swap2\n              swap1\n              tag_24\n              jump\t// in\n            tag_92:\n              tag_93\n              jump\t// in\n            tag_91:\n              stop\n                /* \"Campaign.sol\":1525:1617  function approverContribution(uint minimum) public{... */\n            tag_18:\n              callvalue\n              dup1\n              iszero\n              tag_94\n              jumpi\n              0x00\n              dup1\n              revert\n            tag_94:\n              pop\n              tag_95\n              0x04\n              dup1\n              calldatasize\n              sub\n              dup2\n              add\n              swap1\n              tag_96\n              swap2\n              swap1\n              tag_24\n              jump\t// in\n            tag_96:\n              tag_97\n              jump\t// in\n            tag_95:\n              stop\n                /* \"Campaign.sol\":2472:2832  function finalizeRequest(uint256 index) public payable managerOnly {... */\n            tag_25:\n                /* \"Campaign.sol\":1466:1473  manager */\n              0x01\n              0x00\n              swap1\n              sload\n              swap1\n              0x0100\n              exp\n              swap1\n              div\n              0xffffffffffffffffffffffffffffffffffffffff\n              and\n                /* \"Campaign.sol\":1452:1473  msg.sender == manager */\n              0xffffffffffffffffffffffffffffffffffffffff\n              and\n                /* \"Campaign.sol\":1452:1462  msg.sender */\n              caller\n                /* \"Campaign.sol\":1452:1473  msg.sender == manager */\n              0xffffffffffffffffffffffffffffffffffffffff\n              and\n              eq\n                /* \"Campaign.sol\":1444:1501  require(msg.sender == manager, \"You are not the manager\") */\n              tag_99\n              jumpi\n              mload(0x40)\n              0x08c379a000000000000000000000000000000000000000000000000000000000\n              dup2\n              mstore\n              0x04\n              add\n              tag_100\n              swap1\n              tag_101\n              jump\t// in\n            tag_100:\n              mload(0x40)\n              dup1\n              swap2\n              sub\n              swap1\n              revert\n            tag_99:\n                /* \"Campaign.sol\":2549:2572  Request storage request */\n              0x00\n                /* \"Campaign.sol\":2575:2583  requests */\n              dup1\n                /* \"Campaign.sol\":2584:2589  index */\n              dup3\n                /* \"Campaign.sol\":2575:2590  requests[index] */\n              dup2\n              sload\n              dup2\n              lt\n              tag_103\n              jumpi\n              tag_104\n              tag_105\n              jump\t// in\n            tag_104:\n            tag_103:\n              swap1\n              0x00\n              mstore\n              keccak256(0x00, 0x20)\n              swap1\n              0x05\n              mul\n              add\n                /* \"Campaign.sol\":2549:2590  Request storage request = requests[index] */\n              swap1\n              pop\n                /* \"Campaign.sol\":2648:2649  2 */\n              0x02\n                /* \"Campaign.sol\":2634:2647  approverCount */\n              sload(0x08)\n                /* \"Campaign.sol\":2634:2649  approverCount/2 */\n              tag_107\n              swap2\n              swap1\n              tag_108\n              jump\t// in\n            tag_107:\n                /* \"Campaign.sol\":2609:2616  request */\n              dup2\n                /* \"Campaign.sol\":2609:2630  request.approvalCount */\n              0x03\n              add\n              sload\n                /* \"Campaign.sol\":2609:2650  request.approvalCount > (approverCount/2) */\n              gt\n                /* \"Campaign.sol\":2601:2673  require(request.approvalCount > (approverCount/2), \"No enough approver\") */\n              tag_109\n              jumpi\n              mload(0x40)\n              0x08c379a000000000000000000000000000000000000000000000000000000000\n              dup2\n              mstore\n              0x04\n              add\n              tag_110\n              swap1\n              tag_111\n              jump\t// in\n            tag_110:\n              mload(0x40)\n              dup1\n              swap2\n              sub\n              swap1\n              revert\n            tag_109:\n                /* \"Campaign.sol\":2692:2699  request */\n              dup1\n                /* \"Campaign.sol\":2692:2708  request.complete */\n              0x02\n              add\n              0x14\n              swap1\n              sload\n              swap1\n              0x0100\n              exp\n              swap1\n              div\n              0xff\n              and\n                /* \"Campaign.sol\":2691:2708  !request.complete */\n              iszero\n                /* \"Campaign.sol\":2683:2729  require(!request.complete,\"Already completed\") */\n              tag_112\n              jumpi\n              mload(0x40)\n              0x08c379a000000000000000000000000000000000000000000000000000000000\n              dup2\n              mstore\n              0x04\n              add\n              tag_113\n              swap1\n              tag_114\n              jump\t// in\n            tag_113:\n              mload(0x40)\n              dup1\n              swap2\n              sub\n              swap1\n              revert\n            tag_112:\n                /* \"Campaign.sol\":2748:2755  request */\n              dup1\n                /* \"Campaign.sol\":2748:2765  request.recipient */\n              0x02\n              add\n              0x00\n              swap1\n              sload\n              swap1\n              0x0100\n              exp\n              swap1\n              div\n              0xffffffffffffffffffffffffffffffffffffffff\n              and\n                /* \"Campaign.sol\":2748:2774  request.recipient.transfer */\n              0xffffffffffffffffffffffffffffffffffffffff\n              and\n                /* \"Campaign.sol\":2748:2790  request.recipient.transfer(request.value ) */\n              0x08fc\n                /* \"Campaign.sol\":2775:2782  request */\n              dup3\n                /* \"Campaign.sol\":2775:2788  request.value */\n              0x01\n              add\n              sload\n                /* \"Campaign.sol\":2748:2790  request.recipient.transfer(request.value ) */\n              swap1\n              dup2\n              iszero\n              mul\n              swap1\n              mload(0x40)\n              0x00\n              mload(0x40)\n              dup1\n              dup4\n              sub\n              dup2\n              dup6\n              dup9\n              dup9\n              call\n              swap4\n              pop\n              pop\n              pop\n              pop\n              iszero\n              dup1\n              iszero\n              tag_116\n              jumpi\n              returndatasize\n              0x00\n              dup1\n              returndatacopy\n              revert(0x00, returndatasize)\n            tag_116:\n              pop\n                /* \"Campaign.sol\":2819:2823  true */\n              0x01\n                /* \"Campaign.sol\":2800:2807  request */\n              dup2\n                /* \"Campaign.sol\":2800:2816  request.complete */\n              0x02\n              add\n              0x14\n                /* \"Campaign.sol\":2800:2823  request.complete = true */\n              0x0100\n              exp\n              dup2\n              sload\n              dup2\n              0xff\n              mul\n              not\n              and\n              swap1\n              dup4\n              iszero\n              iszero\n              mul\n              or\n              swap1\n              sstore\n              pop\n                /* \"Campaign.sol\":2539:2832  {... */\n              pop\n                /* \"Campaign.sol\":2472:2832  function finalizeRequest(uint256 index) public payable managerOnly {... */\n              pop\n              jump\t// out\n                /* \"Campaign.sol\":845:886  mapping(address => bool) public approvers */\n            tag_30:\n              mstore(0x20, 0x02)\n              dup1\n              0x00\n              mstore\n              keccak256(0x00, 0x40)\n              0x00\n              swap2\n              pop\n              sload\n              swap1\n              0x0100\n              exp\n              swap1\n              div\n              0xff\n              and\n              dup2\n              jump\t// out\n                /* \"Campaign.sol\":1058:1083  uint public approverCount */\n            tag_35:\n              sload(0x08)\n              dup2\n              jump\t// out\n                /* \"Campaign.sol\":3347:3444  function getRequestsCount() public view returns (uint256) {... */\n            tag_40:\n                /* \"Campaign.sol\":3396:3403  uint256 */\n              0x00\n                /* \"Campaign.sol\":3422:3430  requests */\n              dup1\n                /* \"Campaign.sol\":3422:3437  requests.length */\n              dup1\n              sload\n              swap1\n              pop\n                /* \"Campaign.sol\":3415:3437  return requests.length */\n              swap1\n              pop\n                /* \"Campaign.sol\":3347:3444  function getRequestsCount() public view returns (uint256) {... */\n              swap1\n              jump\t// out\n                /* \"Campaign.sol\":2938:3341  function getSummary() public view returns(uint,uint,uint,uint,address,string memory,string memory,string memory,uint ){... */\n            tag_44:\n                /* \"Campaign.sol\":2980:2984  uint */\n              0x00\n                /* \"Campaign.sol\":2985:2989  uint */\n              dup1\n                /* \"Campaign.sol\":2990:2994  uint */\n              0x00\n                /* \"Campaign.sol\":2995:2999  uint */\n              dup1\n                /* \"Campaign.sol\":3000:3007  address */\n              0x00\n                /* \"Campaign.sol\":3008:3021  string memory */\n              0x60\n                /* \"Campaign.sol\":3022:3035  string memory */\n              dup1\n                /* \"Campaign.sol\":3036:3049  string memory */\n              0x60\n                /* \"Campaign.sol\":3050:3054  uint */\n              0x00\n                /* \"Campaign.sol\":3086:3101  minContribution */\n              sload(0x07)\n                /* \"Campaign.sol\":3115:3136  address(this).balance */\n              selfbalance\n                /* \"Campaign.sol\":3150:3158  requests */\n              0x00\n                /* \"Campaign.sol\":3150:3165  requests.length */\n              dup1\n              sload\n              swap1\n              pop\n                /* \"Campaign.sol\":3179:3192  approverCount */\n              sload(0x08)\n                /* \"Campaign.sol\":3206:3213  manager */\n              0x01\n              0x00\n              swap1\n              sload\n              swap1\n              0x0100\n              exp\n              swap1\n              div\n              0xffffffffffffffffffffffffffffffffffffffff\n              and\n                /* \"Campaign.sol\":3227:3239  CampaignName */\n              0x03\n                /* \"Campaign.sol\":3253:3272  CampaignDescription */\n              0x04\n                /* \"Campaign.sol\":3286:3294  imageUrl */\n              0x05\n                /* \"Campaign.sol\":3308:3322  targetToAchive */\n              sload(0x06)\n                /* \"Campaign.sol\":3066:3334  return(... */\n              dup4\n              dup1\n              sload\n              tag_119\n              swap1\n              tag_120\n              jump\t// in\n            tag_119:\n              dup1\n              0x1f\n              add\n              0x20\n              dup1\n              swap2\n              div\n              mul\n              0x20\n              add\n              mload(0x40)\n              swap1\n              dup2\n              add\n              0x40\n              mstore\n              dup1\n              swap3\n              swap2\n              swap1\n              dup2\n              dup2\n              mstore\n              0x20\n              add\n              dup3\n              dup1\n              sload\n              tag_121\n              swap1\n              tag_120\n              jump\t// in\n            tag_121:\n              dup1\n              iszero\n              tag_122\n              jumpi\n              dup1\n              0x1f\n              lt\n              tag_123\n              jumpi\n              0x0100\n              dup1\n              dup4\n              sload\n              div\n              mul\n              dup4\n              mstore\n              swap2\n              0x20\n              add\n              swap2\n              jump(tag_122)\n            tag_123:\n              dup3\n              add\n              swap2\n              swap1\n              0x00\n              mstore\n              keccak256(0x00, 0x20)\n              swap1\n            tag_124:\n              dup2\n              sload\n              dup2\n              mstore\n              swap1\n              0x01\n              add\n              swap1\n              0x20\n              add\n              dup1\n              dup4\n              gt\n              tag_124\n              jumpi\n              dup3\n              swap1\n              sub\n              0x1f\n              and\n              dup3\n              add\n              swap2\n            tag_122:\n              pop\n              pop\n              pop\n              pop\n              pop\n              swap4\n              pop\n              dup3\n              dup1\n              sload\n              tag_125\n              swap1\n              tag_120\n              jump\t// in\n            tag_125:\n              dup1\n              0x1f\n              add\n              0x20\n              dup1\n              swap2\n              div\n              mul\n              0x20\n              add\n              mload(0x40)\n              swap1\n              dup2\n              add\n              0x40\n              mstore\n              dup1\n              swap3\n              swap2\n              swap1\n              dup2\n              dup2\n              mstore\n              0x20\n              add\n              dup3\n              dup1\n              sload\n              tag_126\n              swap1\n              tag_120\n              jump\t// in\n            tag_126:\n              dup1\n              iszero\n              tag_127\n              jumpi\n              dup1\n              0x1f\n              lt\n              tag_128\n              jumpi\n              0x0100\n              dup1\n              dup4\n              sload\n              div\n              mul\n              dup4\n              mstore\n              swap2\n              0x20\n              add\n              swap2\n              jump(tag_127)\n            tag_128:\n              dup3\n              add\n              swap2\n              swap1\n              0x00\n              mstore\n              keccak256(0x00, 0x20)\n              swap1\n            tag_129:\n              dup2\n              sload\n              dup2\n              mstore\n              swap1\n              0x01\n              add\n              swap1\n              0x20\n              add\n              dup1\n              dup4\n              gt\n              tag_129\n              jumpi\n              dup3\n              swap1\n              sub\n              0x1f\n              and\n              dup3\n              add\n              swap2\n            tag_127:\n              pop\n              pop\n              pop\n              pop\n              pop\n              swap3\n              pop\n              dup2\n              dup1\n              sload\n              tag_130\n              swap1\n              tag_120\n              jump\t// in\n            tag_130:\n              dup1\n              0x1f\n              add\n              0x20\n              dup1\n              swap2\n              div\n              mul\n              0x20\n              add\n              mload(0x40)\n              swap1\n              dup2\n              add\n              0x40\n              mstore\n              dup1\n              swap3\n              swap2\n              swap1\n              dup2\n              dup2\n              mstore\n              0x20\n              add\n              dup3\n              dup1\n              sload\n              tag_131\n              swap1\n              tag_120\n              jump\t// in\n            tag_131:\n              dup1\n              iszero\n              tag_132\n              jumpi\n              dup1\n              0x1f\n              lt\n              tag_133\n              jumpi\n              0x0100\n              dup1\n              dup4\n              sload\n              div\n              mul\n              dup4\n              mstore\n              swap2\n              0x20\n              add\n              swap2\n              jump(tag_132)\n            tag_133:\n              dup3\n              add\n              swap2\n              swap1\n              0x00\n              mstore\n              keccak256(0x00, 0x20)\n              swap1\n            tag_134:\n              dup2\n              sload\n              dup2\n              mstore\n              swap1\n              0x01\n              add\n              swap1\n              0x20\n              add\n              dup1\n              dup4\n              gt\n              tag_134\n              jumpi\n              dup3\n              swap1\n              sub\n              0x1f\n              and\n              dup3\n              add\n              swap2\n            tag_132:\n              pop\n              pop\n              pop\n              pop\n              pop\n              swap2\n              pop\n              swap9\n              pop\n              swap9\n              pop\n              swap9\n              pop\n              swap9\n              pop\n              swap9\n              pop\n              swap9\n              pop\n              swap9\n              pop\n              swap9\n              pop\n              swap9\n              pop\n                /* \"Campaign.sol\":2938:3341  function getSummary() public view returns(uint,uint,uint,uint,address,string memory,string memory,string memory,uint ){... */\n              swap1\n              swap2\n              swap3\n              swap4\n              swap5\n              swap6\n              swap7\n              swap8\n              swap9\n              jump\t// out\n                /* \"Campaign.sol\":817:839  address public manager */\n            tag_49:\n              0x01\n              0x00\n              swap1\n              sload\n              swap1\n              0x0100\n              exp\n              swap1\n              div\n              0xffffffffffffffffffffffffffffffffffffffff\n              and\n              dup2\n              jump\t// out\n                /* \"Campaign.sol\":892:918  string public CampaignName */\n            tag_54:\n              0x03\n              dup1\n              sload\n              tag_135\n              swap1\n              tag_120\n              jump\t// in\n            tag_135:\n              dup1\n              0x1f\n              add\n              0x20\n              dup1\n              swap2\n              div\n              mul\n              0x20\n              add\n              mload(0x40)\n              swap1\n              dup2\n              add\n              0x40\n              mstore\n              dup1\n              swap3\n              swap2\n              swap1\n              dup2\n              dup2\n              mstore\n              0x20\n              add\n              dup3\n              dup1\n              sload\n              tag_136\n              swap1\n              tag_120\n              jump\t// in\n            tag_136:\n              dup1\n              iszero\n              tag_137\n              jumpi\n              dup1\n              0x1f\n              lt\n              tag_138\n              jumpi\n              0x0100\n              dup1\n              dup4\n              sload\n              div\n              mul\n              dup4\n              mstore\n              swap2\n              0x20\n              add\n              swap2\n              jump(tag_137)\n            tag_138:\n              dup3\n              add\n              swap2\n              swap1\n              0x00\n              mstore\n              keccak256(0x00, 0x20)\n              swap1\n            tag_139:\n              dup2\n              sload\n              dup2\n              mstore\n              swap1\n              0x01\n              add\n              swap1\n              0x20\n              add\n              dup1\n              dup4\n              gt\n              tag_139\n              jumpi\n              dup3\n              swap1\n              sub\n              0x1f\n              and\n              dup3\n              add\n              swap2\n            tag_137:\n              pop\n              pop\n              pop\n              pop\n              pop\n              dup2\n              jump\t// out\n                /* \"Campaign.sol\":786:811  Request[] public requests */\n            tag_60:\n              0x00\n              dup2\n              dup2\n              sload\n              dup2\n              lt\n              tag_140\n              jumpi\n              0x00\n              dup1\n              revert\n            tag_140:\n              swap1\n              0x00\n              mstore\n              keccak256(0x00, 0x20)\n              swap1\n              0x05\n              mul\n              add\n              0x00\n              swap2\n              pop\n              swap1\n              pop\n              dup1\n              0x00\n              add\n              dup1\n              sload\n              tag_142\n              swap1\n              tag_120\n              jump\t// in\n            tag_142:\n              dup1\n              0x1f\n              add\n              0x20\n              dup1\n              swap2\n              div\n              mul\n              0x20\n              add\n              mload(0x40)\n              swap1\n              dup2\n              add\n              0x40\n              mstore\n              dup1\n              swap3\n              swap2\n              swap1\n              dup2\n              dup2\n              mstore\n              0x20\n              add\n              dup3\n              dup1\n              sload\n              tag_143\n              swap1\n              tag_120\n              jump\t// in\n            tag_143:\n              dup1\n              iszero\n              tag_144\n              jumpi\n              dup1\n              0x1f\n              lt\n              tag_145\n              jumpi\n              0x0100\n              dup1\n              dup4\n              sload\n              div\n              mul\n              dup4\n              mstore\n              swap2\n              0x20\n              add\n              swap2\n              jump(tag_144)\n            tag_145:\n              dup3\n              add\n              swap2\n              swap1\n              0x00\n              mstore\n              keccak256(0x00, 0x20)\n              swap1\n            tag_146:\n              dup2\n              sload\n              dup2\n              mstore\n              swap1\n              0x01\n              add\n              swap1\n              0x20\n              add\n              dup1\n              dup4\n              gt\n              tag_146\n              jumpi\n              dup3\n              swap1\n              sub\n              0x1f\n              and\n              dup3\n              add\n              swap2\n            tag_144:\n              pop\n              pop\n              pop\n              pop\n              pop\n              swap1\n              dup1\n              0x01\n              add\n              sload\n              swap1\n              dup1\n              0x02\n              add\n              0x00\n              swap1\n              sload\n              swap1\n              0x0100\n              exp\n              swap1\n              div\n              0xffffffffffffffffffffffffffffffffffffffff\n              and\n              swap1\n              dup1\n              0x02\n              add\n              0x14\n              swap1\n              sload\n              swap1\n              0x0100\n              exp\n              swap1\n              div\n              0xff\n              and\n              swap1\n              dup1\n              0x03\n              add\n              sload\n              swap1\n              pop\n              dup6\n              jump\t// out\n                /* \"Campaign.sol\":1783:2134  function createRequest(string memory description, uint value, address payable recipient) public managerOnly {... */\n            tag_67:\n                /* \"Campaign.sol\":1466:1473  manager */\n              0x01\n              0x00\n              swap1\n              sload\n              swap1\n              0x0100\n              exp\n              swap1\n              div\n              0xffffffffffffffffffffffffffffffffffffffff\n              and\n                /* \"Campaign.sol\":1452:1473  msg.sender == manager */\n              0xffffffffffffffffffffffffffffffffffffffff\n              and\n                /* \"Campaign.sol\":1452:1462  msg.sender */\n              caller\n                /* \"Campaign.sol\":1452:1473  msg.sender == manager */\n              0xffffffffffffffffffffffffffffffffffffffff\n              and\n              eq\n                /* \"Campaign.sol\":1444:1501  require(msg.sender == manager, \"You are not the manager\") */\n              tag_148\n              jumpi\n              mload(0x40)\n              0x08c379a000000000000000000000000000000000000000000000000000000000\n              dup2\n              mstore\n              0x04\n              add\n              tag_149\n              swap1\n              tag_101\n              jump\t// in\n            tag_149:\n              mload(0x40)\n              dup1\n              swap2\n              sub\n              swap1\n              revert\n            tag_148:\n                /* \"Campaign.sol\":1910:1927  Request storage n */\n              0x00\n                /* \"Campaign.sol\":1930:1938  requests */\n              dup1\n                /* \"Campaign.sol\":1930:1945  requests.push() */\n              0x01\n              dup2\n              0x01\n              dup2\n              sload\n              add\n              dup1\n              dup3\n              sstore\n              dup1\n              swap2\n              pop\n              pop\n              sub\n              swap1\n              0x00\n              mstore\n              keccak256(0x00, 0x20)\n              swap1\n              0x05\n              mul\n              add\n                /* \"Campaign.sol\":1910:1945  Request storage n = requests.push() */\n              swap1\n              pop\n                /* \"Campaign.sol\":1975:1986  description */\n              dup4\n                /* \"Campaign.sol\":1959:1960  n */\n              dup2\n                /* \"Campaign.sol\":1959:1972  n.description */\n              0x00\n              add\n                /* \"Campaign.sol\":1959:1986  n.description = description */\n              swap1\n              dup2\n              tag_152\n              swap2\n              swap1\n              tag_153\n              jump\t// in\n            tag_152:\n              pop\n                /* \"Campaign.sol\":2010:2015  value */\n              dup3\n                /* \"Campaign.sol\":2000:2001  n */\n              dup2\n                /* \"Campaign.sol\":2000:2007  n.value */\n              0x01\n              add\n                /* \"Campaign.sol\":2000:2015  n.value = value */\n              dup2\n              swap1\n              sstore\n              pop\n                /* \"Campaign.sol\":2043:2052  recipient */\n              dup2\n                /* \"Campaign.sol\":2029:2030  n */\n              dup2\n                /* \"Campaign.sol\":2029:2040  n.recipient */\n              0x02\n              add\n              0x00\n                /* \"Campaign.sol\":2029:2052  n.recipient = recipient */\n              0x0100\n              exp\n              dup2\n              sload\n              dup2\n              0xffffffffffffffffffffffffffffffffffffffff\n              mul\n              not\n              and\n              swap1\n              dup4\n              0xffffffffffffffffffffffffffffffffffffffff\n              and\n              mul\n              or\n              swap1\n              sstore\n              pop\n                /* \"Campaign.sol\":2079:2084  false */\n              0x00\n                /* \"Campaign.sol\":2066:2067  n */\n              dup2\n                /* \"Campaign.sol\":2066:2076  n.complete */\n              0x02\n              add\n              0x14\n                /* \"Campaign.sol\":2066:2084  n.complete = false */\n              0x0100\n              exp\n              dup2\n              sload\n              dup2\n              0xff\n              mul\n              not\n              and\n              swap1\n              dup4\n              iszero\n              iszero\n              mul\n              or\n              swap1\n              sstore\n              pop\n                /* \"Campaign.sol\":2116:2117  0 */\n              0x00\n                /* \"Campaign.sol\":2098:2099  n */\n              dup2\n                /* \"Campaign.sol\":2098:2113  n.approvalCount */\n              0x03\n              add\n                /* \"Campaign.sol\":2098:2117  n.approvalCount = 0 */\n              dup2\n              swap1\n              sstore\n              pop\n                /* \"Campaign.sol\":1891:2134  {... */\n              pop\n                /* \"Campaign.sol\":1783:2134  function createRequest(string memory description, uint value, address payable recipient) public managerOnly {... */\n              pop\n              pop\n              pop\n              jump\t// out\n                /* \"Campaign.sol\":2838:2932  function contractBalance() public view returns(uint) {... */\n            tag_70:\n                /* \"Campaign.sol\":2885:2889  uint */\n              0x00\n                /* \"Campaign.sol\":2904:2925  address(this).balance */\n              selfbalance\n                /* \"Campaign.sol\":2897:2925  return address(this).balance */\n              swap1\n              pop\n                /* \"Campaign.sol\":2838:2932  function contractBalance() public view returns(uint) {... */\n              swap1\n              jump\t// out\n                /* \"Campaign.sol\":991:1017  uint public targetToAchive */\n            tag_74:\n              sload(0x06)\n              dup2\n              jump\t// out\n                /* \"Campaign.sol\":924:957  string public CampaignDescription */\n            tag_78:\n              0x04\n              dup1\n              sload\n              tag_155\n              swap1\n              tag_120\n              jump\t// in\n            tag_155:\n              dup1\n              0x1f\n              add\n              0x20\n              dup1\n              swap2\n              div\n              mul\n              0x20\n              add\n              mload(0x40)\n              swap1\n              dup2\n              add\n              0x40\n              mstore\n              dup1\n              swap3\n              swap2\n              swap1\n              dup2\n              dup2\n              mstore\n              0x20\n              add\n              dup3\n              dup1\n              sload\n              tag_156\n              swap1\n              tag_120\n              jump\t// in\n            tag_156:\n              dup1\n              iszero\n              tag_157\n              jumpi\n              dup1\n              0x1f\n              lt\n              tag_158\n              jumpi\n              0x0100\n              dup1\n              dup4\n              sload\n              div\n              mul\n              dup4\n              mstore\n              swap2\n              0x20\n              add\n              swap2\n              jump(tag_157)\n            tag_158:\n              dup3\n              add\n              swap2\n              swap1\n              0x00\n              mstore\n              keccak256(0x00, 0x20)\n              swap1\n            tag_159:\n              dup2\n              sload\n              dup2\n              mstore\n              swap1\n              0x01\n              add\n              swap1\n              0x20\n              add\n              dup1\n              dup4\n              gt\n              tag_159\n              jumpi\n              dup3\n              swap1\n              sub\n              0x1f\n              and\n              dup3\n              add\n              swap2\n            tag_157:\n              pop\n              pop\n              pop\n              pop\n              pop\n              dup2\n              jump\t// out\n                /* \"Campaign.sol\":1024:1051  uint public minContribution */\n            tag_82:\n              sload(0x07)\n              dup2\n              jump\t// out\n                /* \"Campaign.sol\":963:985  string public imageUrl */\n            tag_86:\n              0x05\n              dup1\n              sload\n              tag_160\n              swap1\n              tag_120\n              jump\t// in\n            tag_160:\n              dup1\n              0x1f\n              add\n              0x20\n              dup1\n              swap2\n              div\n              mul\n              0x20\n              add\n              mload(0x40)\n              swap1\n              dup2\n              add\n              0x40\n              mstore\n              dup1\n              swap3\n              swap2\n              swap1\n              dup2\n              dup2\n              mstore\n              0x20\n              add\n              dup3\n              dup1\n              sload\n              tag_161\n              swap1\n              tag_120\n              jump\t// in\n            tag_161:\n              dup1\n              iszero\n              tag_162\n              jumpi\n              dup1\n              0x1f\n              lt\n              tag_163\n              jumpi\n              0x0100\n              dup1\n              dup4\n              sload\n              div\n              mul\n              dup4\n              mstore\n              swap2\n              0x20\n              add\n              swap2\n              jump(tag_162)\n            tag_163:\n              dup3\n              add\n              swap2\n              swap1\n              0x00\n              mstore\n              keccak256(0x00, 0x20)\n              swap1\n            tag_164:\n              dup2\n              sload\n              dup2\n              mstore\n              swap1\n              0x01\n              add\n              swap1\n              0x20\n              add\n              dup1\n              dup4\n              gt\n              tag_164\n              jumpi\n              dup3\n              swap1\n              sub\n              0x1f\n              and\n              dup3\n              add\n              swap2\n            tag_162:\n              pop\n              pop\n              pop\n              pop\n              pop\n              dup2\n              jump\t// out\n                /* \"Campaign.sol\":1623:1777  function contribute() public payable{... */\n            tag_89:\n                /* \"Campaign.sol\":1689:1704  minContribution */\n              sload(0x07)\n                /* \"Campaign.sol\":1677:1686  msg.value */\n              callvalue\n                /* \"Campaign.sol\":1677:1704  msg.value > minContribution */\n              gt\n                /* \"Campaign.sol\":1669:1705  require(msg.value > minContribution) */\n              tag_166\n              jumpi\n              0x00\n              dup1\n              revert\n            tag_166:\n                /* \"Campaign.sol\":1740:1744  true */\n              0x01\n                /* \"Campaign.sol\":1716:1725  approvers */\n              0x02\n                /* \"Campaign.sol\":1716:1737  approvers[msg.sender] */\n              0x00\n                /* \"Campaign.sol\":1726:1736  msg.sender */\n              caller\n                /* \"Campaign.sol\":1716:1737  approvers[msg.sender] */\n              0xffffffffffffffffffffffffffffffffffffffff\n              and\n              0xffffffffffffffffffffffffffffffffffffffff\n              and\n              dup2\n              mstore\n              0x20\n              add\n              swap1\n              dup2\n              mstore\n              0x20\n              add\n              0x00\n              keccak256\n              0x00\n                /* \"Campaign.sol\":1716:1744  approvers[msg.sender] = true */\n              0x0100\n              exp\n              dup2\n              sload\n              dup2\n              0xff\n              mul\n              not\n              and\n              swap1\n              dup4\n              iszero\n              iszero\n              mul\n              or\n              swap1\n              sstore\n              pop\n                /* \"Campaign.sol\":1755:1768  approverCount */\n              0x08\n              0x00\n                /* \"Campaign.sol\":1755:1770  approverCount++ */\n              dup2\n              sload\n              dup1\n              swap3\n              swap2\n              swap1\n              tag_167\n              swap1\n              tag_168\n              jump\t// in\n            tag_167:\n              swap2\n              swap1\n              pop\n              sstore\n              pop\n                /* \"Campaign.sol\":1623:1777  function contribute() public payable{... */\n              jump\t// out\n                /* \"Campaign.sol\":2140:2466  function approveRequest(uint index) public {... */\n            tag_93:\n                /* \"Campaign.sol\":2193:2216  Request storage request */\n              0x00\n                /* \"Campaign.sol\":2219:2227  requests */\n              dup1\n                /* \"Campaign.sol\":2228:2233  index */\n              dup3\n                /* \"Campaign.sol\":2219:2234  requests[index] */\n              dup2\n              sload\n              dup2\n              lt\n              tag_170\n              jumpi\n              tag_171\n              tag_105\n              jump\t// in\n            tag_171:\n            tag_170:\n              swap1\n              0x00\n              mstore\n              keccak256(0x00, 0x20)\n              swap1\n              0x05\n              mul\n              add\n                /* \"Campaign.sol\":2193:2234  Request storage request = requests[index] */\n              swap1\n              pop\n                /* \"Campaign.sol\":2253:2262  approvers */\n              0x02\n                /* \"Campaign.sol\":2253:2274  approvers[msg.sender] */\n              0x00\n                /* \"Campaign.sol\":2263:2273  msg.sender */\n              caller\n                /* \"Campaign.sol\":2253:2274  approvers[msg.sender] */\n              0xffffffffffffffffffffffffffffffffffffffff\n              and\n              0xffffffffffffffffffffffffffffffffffffffff\n              and\n              dup2\n              mstore\n              0x20\n              add\n              swap1\n              dup2\n              mstore\n              0x20\n              add\n              0x00\n              keccak256\n              0x00\n              swap1\n              sload\n              swap1\n              0x0100\n              exp\n              swap1\n              div\n              0xff\n              and\n                /* \"Campaign.sol\":2245:2303  require(approvers[msg.sender], \"You have not contributed\") */\n              tag_173\n              jumpi\n              mload(0x40)\n              0x08c379a000000000000000000000000000000000000000000000000000000000\n              dup2\n              mstore\n              0x04\n              add\n              tag_174\n              swap1\n              tag_175\n              jump\t// in\n            tag_174:\n              mload(0x40)\n              dup1\n              swap2\n              sub\n              swap1\n              revert\n            tag_173:\n                /* \"Campaign.sol\":2322:2329  request */\n              dup1\n                /* \"Campaign.sol\":2322:2339  request.approvals */\n              0x04\n              add\n                /* \"Campaign.sol\":2322:2351  request.approvals[msg.sender] */\n              0x00\n                /* \"Campaign.sol\":2340:2350  msg.sender */\n              caller\n                /* \"Campaign.sol\":2322:2351  request.approvals[msg.sender] */\n              0xffffffffffffffffffffffffffffffffffffffff\n              and\n              0xffffffffffffffffffffffffffffffffffffffff\n              and\n              dup2\n              mstore\n              0x20\n              add\n              swap1\n              dup2\n              mstore\n              0x20\n              add\n              0x00\n              keccak256\n              0x00\n              swap1\n              sload\n              swap1\n              0x0100\n              exp\n              swap1\n              div\n              0xff\n              and\n                /* \"Campaign.sol\":2321:2351  !request.approvals[msg.sender] */\n              iszero\n                /* \"Campaign.sol\":2313:2376  require(!request.approvals[msg.sender], \"You've already voted\") */\n              tag_176\n              jumpi\n              mload(0x40)\n              0x08c379a000000000000000000000000000000000000000000000000000000000\n              dup2\n              mstore\n              0x04\n              add\n              tag_177\n              swap1\n              tag_178\n              jump\t// in\n            tag_177:\n              mload(0x40)\n              dup1\n              swap2\n              sub\n              swap1\n              revert\n            tag_176:\n                /* \"Campaign.sol\":2420:2424  true */\n              0x01\n                /* \"Campaign.sol\":2388:2395  request */\n              dup2\n                /* \"Campaign.sol\":2388:2405  request.approvals */\n              0x04\n              add\n                /* \"Campaign.sol\":2388:2417  request.approvals[msg.sender] */\n              0x00\n                /* \"Campaign.sol\":2406:2416  msg.sender */\n              caller\n                /* \"Campaign.sol\":2388:2417  request.approvals[msg.sender] */\n              0xffffffffffffffffffffffffffffffffffffffff\n              and\n              0xffffffffffffffffffffffffffffffffffffffff\n              and\n              dup2\n              mstore\n              0x20\n              add\n              swap1\n              dup2\n              mstore\n              0x20\n              add\n              0x00\n              keccak256\n              0x00\n                /* \"Campaign.sol\":2388:2424  request.approvals[msg.sender] = true */\n              0x0100\n              exp\n              dup2\n              sload\n              dup2\n              0xff\n              mul\n              not\n              and\n              swap1\n              dup4\n              iszero\n              iszero\n              mul\n              or\n              swap1\n              sstore\n              pop\n                /* \"Campaign.sol\":2434:2441  request */\n              dup1\n                /* \"Campaign.sol\":2434:2455  request.approvalCount */\n              0x03\n              add\n              0x00\n                /* \"Campaign.sol\":2434:2457  request.approvalCount++ */\n              dup2\n              sload\n              dup1\n              swap3\n              swap2\n              swap1\n              tag_179\n              swap1\n              tag_168\n              jump\t// in\n            tag_179:\n              swap2\n              swap1\n              pop\n              sstore\n              pop\n                /* \"Campaign.sol\":2183:2466  {... */\n              pop\n                /* \"Campaign.sol\":2140:2466  function approveRequest(uint index) public {... */\n              pop\n              jump\t// out\n                /* \"Campaign.sol\":1525:1617  function approverContribution(uint minimum) public{... */\n            tag_97:\n                /* \"Campaign.sol\":1603:1610  minimum */\n              dup1\n                /* \"Campaign.sol\":1585:1600  minContribution */\n              0x07\n                /* \"Campaign.sol\":1585:1610  minContribution = minimum */\n              dup2\n              swap1\n              sstore\n              pop\n                /* \"Campaign.sol\":1525:1617  function approverContribution(uint minimum) public{... */\n              pop\n              jump\t// out\n                /* \"#utility.yul\":7:82   */\n            tag_181:\n                /* \"#utility.yul\":40:46   */\n              0x00\n                /* \"#utility.yul\":73:75   */\n              0x40\n                /* \"#utility.yul\":67:76   */\n              mload\n                /* \"#utility.yul\":57:76   */\n              swap1\n              pop\n                /* \"#utility.yul\":7:82   */\n              swap1\n              jump\t// out\n                /* \"#utility.yul\":88:205   */\n            tag_182:\n                /* \"#utility.yul\":197:198   */\n              0x00\n                /* \"#utility.yul\":194:195   */\n              dup1\n                /* \"#utility.yul\":187:199   */\n              revert\n                /* \"#utility.yul\":211:328   */\n            tag_183:\n                /* \"#utility.yul\":320:321   */\n              0x00\n                /* \"#utility.yul\":317:318   */\n              dup1\n                /* \"#utility.yul\":310:322   */\n              revert\n                /* \"#utility.yul\":334:411   */\n            tag_184:\n                /* \"#utility.yul\":371:378   */\n              0x00\n                /* \"#utility.yul\":400:405   */\n              dup2\n                /* \"#utility.yul\":389:405   */\n              swap1\n              pop\n                /* \"#utility.yul\":334:411   */\n              swap2\n              swap1\n              pop\n              jump\t// out\n                /* \"#utility.yul\":417:539   */\n            tag_185:\n                /* \"#utility.yul\":490:514   */\n              tag_247\n                /* \"#utility.yul\":508:513   */\n              dup2\n                /* \"#utility.yul\":490:514   */\n              tag_184\n              jump\t// in\n            tag_247:\n                /* \"#utility.yul\":483:488   */\n              dup2\n                /* \"#utility.yul\":480:515   */\n              eq\n                /* \"#utility.yul\":470:533   */\n              tag_248\n              jumpi\n                /* \"#utility.yul\":529:530   */\n              0x00\n                /* \"#utility.yul\":526:527   */\n              dup1\n                /* \"#utility.yul\":519:531   */\n              revert\n                /* \"#utility.yul\":470:533   */\n            tag_248:\n                /* \"#utility.yul\":417:539   */\n              pop\n              jump\t// out\n                /* \"#utility.yul\":545:684   */\n            tag_186:\n                /* \"#utility.yul\":591:596   */\n              0x00\n                /* \"#utility.yul\":629:635   */\n              dup2\n                /* \"#utility.yul\":616:636   */\n              calldataload\n                /* \"#utility.yul\":607:636   */\n              swap1\n              pop\n                /* \"#utility.yul\":645:678   */\n              tag_250\n                /* \"#utility.yul\":672:677   */\n              dup2\n                /* \"#utility.yul\":645:678   */\n              tag_185\n              jump\t// in\n            tag_250:\n                /* \"#utility.yul\":545:684   */\n              swap3\n              swap2\n              pop\n              pop\n              jump\t// out\n                /* \"#utility.yul\":690:1019   */\n            tag_24:\n                /* \"#utility.yul\":749:755   */\n              0x00\n                /* \"#utility.yul\":798:800   */\n              0x20\n                /* \"#utility.yul\":786:795   */\n              dup3\n                /* \"#utility.yul\":777:784   */\n              dup5\n                /* \"#utility.yul\":773:796   */\n              sub\n                /* \"#utility.yul\":769:801   */\n              slt\n                /* \"#utility.yul\":766:885   */\n              iszero\n              tag_252\n              jumpi\n                /* \"#utility.yul\":804:883   */\n              tag_253\n              tag_182\n              jump\t// in\n            tag_253:\n                /* \"#utility.yul\":766:885   */\n            tag_252:\n                /* \"#utility.yul\":924:925   */\n              0x00\n                /* \"#utility.yul\":949:1002   */\n              tag_254\n                /* \"#utility.yul\":994:1001   */\n              dup5\n                /* \"#utility.yul\":985:991   */\n              dup3\n                /* \"#utility.yul\":974:983   */\n              dup6\n                /* \"#utility.yul\":970:992   */\n              add\n                /* \"#utility.yul\":949:1002   */\n              tag_186\n              jump\t// in\n            tag_254:\n                /* \"#utility.yul\":939:1002   */\n              swap2\n              pop\n                /* \"#utility.yul\":895:1012   */\n              pop\n                /* \"#utility.yul\":690:1019   */\n              swap3\n              swap2\n              pop\n              pop\n              jump\t// out\n                /* \"#utility.yul\":1025:1151   */\n            tag_187:\n                /* \"#utility.yul\":1062:1069   */\n              0x00\n                /* \"#utility.yul\":1102:1144   */\n              0xffffffffffffffffffffffffffffffffffffffff\n                /* \"#utility.yul\":1095:1100   */\n              dup3\n                /* \"#utility.yul\":1091:1145   */\n              and\n                /* \"#utility.yul\":1080:1145   */\n              swap1\n              pop\n                /* \"#utility.yul\":1025:1151   */\n              swap2\n              swap1\n              pop\n              jump\t// out\n                /* \"#utility.yul\":1157:1253   */\n            tag_188:\n                /* \"#utility.yul\":1194:1201   */\n              0x00\n                /* \"#utility.yul\":1223:1247   */\n              tag_257\n                /* \"#utility.yul\":1241:1246   */\n              dup3\n                /* \"#utility.yul\":1223:1247   */\n              tag_187\n              jump\t// in\n            tag_257:\n                /* \"#utility.yul\":1212:1247   */\n              swap1\n              pop\n                /* \"#utility.yul\":1157:1253   */\n              swap2\n              swap1\n              pop\n              jump\t// out\n                /* \"#utility.yul\":1259:1381   */\n            tag_189:\n                /* \"#utility.yul\":1332:1356   */\n              tag_259\n                /* \"#utility.yul\":1350:1355   */\n              dup2\n                /* \"#utility.yul\":1332:1356   */\n              tag_188\n              jump\t// in\n            tag_259:\n                /* \"#utility.yul\":1325:1330   */\n              dup2\n                /* \"#utility.yul\":1322:1357   */\n              eq\n                /* \"#utility.yul\":1312:1375   */\n              tag_260\n              jumpi\n                /* \"#utility.yul\":1371:1372   */\n              0x00\n                /* \"#utility.yul\":1368:1369   */\n              dup1\n                /* \"#utility.yul\":1361:1373   */\n              revert\n                /* \"#utility.yul\":1312:1375   */\n            tag_260:\n                /* \"#utility.yul\":1259:1381   */\n              pop\n              jump\t// out\n                /* \"#utility.yul\":1387:1526   */\n            tag_190:\n                /* \"#utility.yul\":1433:1438   */\n              0x00\n                /* \"#utility.yul\":1471:1477   */\n              dup2\n                /* \"#utility.yul\":1458:1478   */\n              calldataload\n                /* \"#utility.yul\":1449:1478   */\n              swap1\n              pop\n                /* \"#utility.yul\":1487:1520   */\n              tag_262\n                /* \"#utility.yul\":1514:1519   */\n              dup2\n                /* \"#utility.yul\":1487:1520   */\n              tag_189\n              jump\t// in\n            tag_262:\n                /* \"#utility.yul\":1387:1526   */\n              swap3\n              swap2\n              pop\n              pop\n              jump\t// out\n                /* \"#utility.yul\":1532:1861   */\n            tag_29:\n                /* \"#utility.yul\":1591:1597   */\n              0x00\n                /* \"#utility.yul\":1640:1642   */\n              0x20\n                /* \"#utility.yul\":1628:1637   */\n              dup3\n                /* \"#utility.yul\":1619:1626   */\n              dup5\n                /* \"#utility.yul\":1615:1638   */\n              sub\n                /* \"#utility.yul\":1611:1643   */\n              slt\n                /* \"#utility.yul\":1608:1727   */\n              iszero\n              tag_264\n              jumpi\n                /* \"#utility.yul\":1646:1725   */\n              tag_265\n              tag_182\n              jump\t// in\n            tag_265:\n                /* \"#utility.yul\":1608:1727   */\n            tag_264:\n                /* \"#utility.yul\":1766:1767   */\n              0x00\n                /* \"#utility.yul\":1791:1844   */\n              tag_266\n                /* \"#utility.yul\":1836:1843   */\n              dup5\n                /* \"#utility.yul\":1827:1833   */\n              dup3\n                /* \"#utility.yul\":1816:1825   */\n              dup6\n                /* \"#utility.yul\":1812:1834   */\n              add\n                /* \"#utility.yul\":1791:1844   */\n              tag_190\n              jump\t// in\n            tag_266:\n                /* \"#utility.yul\":1781:1844   */\n              swap2\n              pop\n                /* \"#utility.yul\":1737:1854   */\n              pop\n                /* \"#utility.yul\":1532:1861   */\n              swap3\n              swap2\n              pop\n              pop\n              jump\t// out\n                /* \"#utility.yul\":1867:1957   */\n            tag_191:\n                /* \"#utility.yul\":1901:1908   */\n              0x00\n                /* \"#utility.yul\":1944:1949   */\n              dup2\n                /* \"#utility.yul\":1937:1950   */\n              iszero\n                /* \"#utility.yul\":1930:1951   */\n              iszero\n                /* \"#utility.yul\":1919:1951   */\n              swap1\n              pop\n                /* \"#utility.yul\":1867:1957   */\n              swap2\n              swap1\n              pop\n              jump\t// out\n                /* \"#utility.yul\":1963:2072   */\n            tag_192:\n                /* \"#utility.yul\":2044:2065   */\n              tag_269\n                /* \"#utility.yul\":2059:2064   */\n              dup2\n                /* \"#utility.yul\":2044:2065   */\n              tag_191\n              jump\t// in\n            tag_269:\n                /* \"#utility.yul\":2039:2042   */\n              dup3\n                /* \"#utility.yul\":2032:2066   */\n              mstore\n                /* \"#utility.yul\":1963:2072   */\n              pop\n              pop\n              jump\t// out\n                /* \"#utility.yul\":2078:2288   */\n            tag_32:\n                /* \"#utility.yul\":2165:2169   */\n              0x00\n                /* \"#utility.yul\":2203:2205   */\n              0x20\n                /* \"#utility.yul\":2192:2201   */\n              dup3\n                /* \"#utility.yul\":2188:2206   */\n              add\n                /* \"#utility.yul\":2180:2206   */\n              swap1\n              pop\n                /* \"#utility.yul\":2216:2281   */\n              tag_271\n                /* \"#utility.yul\":2278:2279   */\n              0x00\n                /* \"#utility.yul\":2267:2276   */\n              dup4\n                /* \"#utility.yul\":2263:2280   */\n              add\n                /* \"#utility.yul\":2254:2260   */\n              dup5\n                /* \"#utility.yul\":2216:2281   */\n              tag_192\n              jump\t// in\n            tag_271:\n                /* \"#utility.yul\":2078:2288   */\n              swap3\n              swap2\n              pop\n              pop\n              jump\t// out\n                /* \"#utility.yul\":2294:2412   */\n            tag_193:\n                /* \"#utility.yul\":2381:2405   */\n              tag_273\n                /* \"#utility.yul\":2399:2404   */\n              dup2\n                /* \"#utility.yul\":2381:2405   */\n              tag_184\n              jump\t// in\n            tag_273:\n                /* \"#utility.yul\":2376:2379   */\n              dup3\n                /* \"#utility.yul\":2369:2406   */\n              mstore\n                /* \"#utility.yul\":2294:2412   */\n              pop\n              pop\n              jump\t// out\n                /* \"#utility.yul\":2418:2640   */\n            tag_37:\n                /* \"#utility.yul\":2511:2515   */\n              0x00\n                /* \"#utility.yul\":2549:2551   */\n              0x20\n                /* \"#utility.yul\":2538:2547   */\n              dup3\n                /* \"#utility.yul\":2534:2552   */\n              add\n                /* \"#utility.yul\":2526:2552   */\n              swap1\n              pop\n                /* \"#utility.yul\":2562:2633   */\n              tag_275\n                /* \"#utility.yul\":2630:2631   */\n              0x00\n                /* \"#utility.yul\":2619:2628   */\n              dup4\n                /* \"#utility.yul\":2615:2632   */\n              add\n                /* \"#utility.yul\":2606:2612   */\n              dup5\n                /* \"#utility.yul\":2562:2633   */\n              tag_193\n              jump\t// in\n            tag_275:\n                /* \"#utility.yul\":2418:2640   */\n              swap3\n              swap2\n              pop\n              pop\n              jump\t// out\n                /* \"#utility.yul\":2646:2764   */\n            tag_194:\n                /* \"#utility.yul\":2733:2757   */\n              tag_277\n                /* \"#utility.yul\":2751:2756   */\n              dup2\n                /* \"#utility.yul\":2733:2757   */\n              tag_188\n              jump\t// in\n            tag_277:\n                /* \"#utility.yul\":2728:2731   */\n              dup3\n                /* \"#utility.yul\":2721:2758   */\n              mstore\n                /* \"#utility.yul\":2646:2764   */\n              pop\n              pop\n              jump\t// out\n                /* \"#utility.yul\":2770:2869   */\n            tag_195:\n                /* \"#utility.yul\":2822:2828   */\n              0x00\n                /* \"#utility.yul\":2856:2861   */\n              dup2\n                /* \"#utility.yul\":2850:2862   */\n              mload\n                /* \"#utility.yul\":2840:2862   */\n              swap1\n              pop\n                /* \"#utility.yul\":2770:2869   */\n              swap2\n              swap1\n              pop\n              jump\t// out\n                /* \"#utility.yul\":2875:3044   */\n            tag_196:\n                /* \"#utility.yul\":2959:2970   */\n              0x00\n                /* \"#utility.yul\":2993:2999   */\n              dup3\n                /* \"#utility.yul\":2988:2991   */\n              dup3\n                /* \"#utility.yul\":2981:3000   */\n              mstore\n                /* \"#utility.yul\":3033:3037   */\n              0x20\n                /* \"#utility.yul\":3028:3031   */\n              dup3\n                /* \"#utility.yul\":3024:3038   */\n              add\n                /* \"#utility.yul\":3009:3038   */\n              swap1\n              pop\n                /* \"#utility.yul\":2875:3044   */\n              swap3\n              swap2\n              pop\n              pop\n              jump\t// out\n                /* \"#utility.yul\":3050:3357   */\n            tag_197:\n                /* \"#utility.yul\":3118:3119   */\n              0x00\n                /* \"#utility.yul\":3128:3241   */\n            tag_281:\n                /* \"#utility.yul\":3142:3148   */\n              dup4\n                /* \"#utility.yul\":3139:3140   */\n              dup2\n                /* \"#utility.yul\":3136:3149   */\n              lt\n                /* \"#utility.yul\":3128:3241   */\n              iszero\n              tag_283\n              jumpi\n                /* \"#utility.yul\":3227:3228   */\n              dup1\n                /* \"#utility.yul\":3222:3225   */\n              dup3\n                /* \"#utility.yul\":3218:3229   */\n              add\n                /* \"#utility.yul\":3212:3230   */\n              mload\n                /* \"#utility.yul\":3208:3209   */\n              dup2\n                /* \"#utility.yul\":3203:3206   */\n              dup5\n                /* \"#utility.yul\":3199:3210   */\n              add\n                /* \"#utility.yul\":3192:3231   */\n              mstore\n                /* \"#utility.yul\":3164:3166   */\n              0x20\n                /* \"#utility.yul\":3161:3162   */\n              dup2\n                /* \"#utility.yul\":3157:3167   */\n              add\n                /* \"#utility.yul\":3152:3167   */\n              swap1\n              pop\n                /* \"#utility.yul\":3128:3241   */\n              jump(tag_281)\n            tag_283:\n                /* \"#utility.yul\":3259:3265   */\n              dup4\n                /* \"#utility.yul\":3256:3257   */\n              dup2\n                /* \"#utility.yul\":3253:3266   */\n              gt\n                /* \"#utility.yul\":3250:3351   */\n              iszero\n              tag_284\n              jumpi\n                /* \"#utility.yul\":3339:3340   */\n              0x00\n                /* \"#utility.yul\":3330:3336   */\n              dup5\n                /* \"#utility.yul\":3325:3328   */\n              dup5\n                /* \"#utility.yul\":3321:3337   */\n              add\n                /* \"#utility.yul\":3314:3341   */\n              mstore\n                /* \"#utility.yul\":3250:3351   */\n            tag_284:\n                /* \"#utility.yul\":3099:3357   */\n              pop\n                /* \"#utility.yul\":3050:3357   */\n              pop\n              pop\n              pop\n              jump\t// out\n                /* \"#utility.yul\":3363:3465   */\n            tag_198:\n                /* \"#utility.yul\":3404:3410   */\n              0x00\n                /* \"#utility.yul\":3455:3457   */\n              0x1f\n                /* \"#utility.yul\":3451:3458   */\n              not\n                /* \"#utility.yul\":3446:3448   */\n              0x1f\n                /* \"#utility.yul\":3439:3444   */\n              dup4\n                /* \"#utility.yul\":3435:3449   */\n              add\n                /* \"#utility.yul\":3431:3459   */\n              and\n                /* \"#utility.yul\":3421:3459   */\n              swap1\n              pop\n                /* \"#utility.yul\":3363:3465   */\n              swap2\n              swap1\n              pop\n              jump\t// out\n                /* \"#utility.yul\":3471:3835   */\n            tag_199:\n                /* \"#utility.yul\":3559:3562   */\n              0x00\n                /* \"#utility.yul\":3587:3626   */\n              tag_287\n                /* \"#utility.yul\":3620:3625   */\n              dup3\n                /* \"#utility.yul\":3587:3626   */\n              tag_195\n              jump\t// in\n            tag_287:\n                /* \"#utility.yul\":3642:3713   */\n              tag_288\n                /* \"#utility.yul\":3706:3712   */\n              dup2\n                /* \"#utility.yul\":3701:3704   */\n              dup6\n                /* \"#utility.yul\":3642:3713   */\n              tag_196\n              jump\t// in\n            tag_288:\n                /* \"#utility.yul\":3635:3713   */\n              swap4\n              pop\n                /* \"#utility.yul\":3722:3774   */\n              tag_289\n                /* \"#utility.yul\":3767:3773   */\n              dup2\n                /* \"#utility.yul\":3762:3765   */\n              dup6\n                /* \"#utility.yul\":3755:3759   */\n              0x20\n                /* \"#utility.yul\":3748:3753   */\n              dup7\n                /* \"#utility.yul\":3744:3760   */\n              add\n                /* \"#utility.yul\":3722:3774   */\n              tag_197\n              jump\t// in\n            tag_289:\n                /* \"#utility.yul\":3799:3828   */\n              tag_290\n                /* \"#utility.yul\":3821:3827   */\n              dup2\n                /* \"#utility.yul\":3799:3828   */\n              tag_198\n              jump\t// in\n            tag_290:\n                /* \"#utility.yul\":3794:3797   */\n              dup5\n                /* \"#utility.yul\":3790:3829   */\n              add\n                /* \"#utility.yul\":3783:3829   */\n              swap2\n              pop\n                /* \"#utility.yul\":3563:3835   */\n              pop\n                /* \"#utility.yul\":3471:3835   */\n              swap3\n              swap2\n              pop\n              pop\n              jump\t// out\n                /* \"#utility.yul\":3841:5222   */\n            tag_46:\n                /* \"#utility.yul\":4218:4222   */\n              0x00\n                /* \"#utility.yul\":4256:4259   */\n              0x0120\n                /* \"#utility.yul\":4245:4254   */\n              dup3\n                /* \"#utility.yul\":4241:4260   */\n              add\n                /* \"#utility.yul\":4233:4260   */\n              swap1\n              pop\n                /* \"#utility.yul\":4270:4341   */\n              tag_292\n                /* \"#utility.yul\":4338:4339   */\n              0x00\n                /* \"#utility.yul\":4327:4336   */\n              dup4\n                /* \"#utility.yul\":4323:4340   */\n              add\n                /* \"#utility.yul\":4314:4320   */\n              dup13\n                /* \"#utility.yul\":4270:4341   */\n              tag_193\n              jump\t// in\n            tag_292:\n                /* \"#utility.yul\":4351:4423   */\n              tag_293\n                /* \"#utility.yul\":4419:4421   */\n              0x20\n                /* \"#utility.yul\":4408:4417   */\n              dup4\n                /* \"#utility.yul\":4404:4422   */\n              add\n                /* \"#utility.yul\":4395:4401   */\n              dup12\n                /* \"#utility.yul\":4351:4423   */\n              tag_193\n              jump\t// in\n            tag_293:\n                /* \"#utility.yul\":4433:4505   */\n              tag_294\n                /* \"#utility.yul\":4501:4503   */\n              0x40\n                /* \"#utility.yul\":4490:4499   */\n              dup4\n                /* \"#utility.yul\":4486:4504   */\n              add\n                /* \"#utility.yul\":4477:4483   */\n              dup11\n                /* \"#utility.yul\":4433:4505   */\n              tag_193\n              jump\t// in\n            tag_294:\n                /* \"#utility.yul\":4515:4587   */\n              tag_295\n                /* \"#utility.yul\":4583:4585   */\n              0x60\n                /* \"#utility.yul\":4572:4581   */\n              dup4\n                /* \"#utility.yul\":4568:4586   */\n              add\n                /* \"#utility.yul\":4559:4565   */\n              dup10\n                /* \"#utility.yul\":4515:4587   */\n              tag_193\n              jump\t// in\n            tag_295:\n                /* \"#utility.yul\":4597:4670   */\n              tag_296\n                /* \"#utility.yul\":4665:4668   */\n              0x80\n                /* \"#utility.yul\":4654:4663   */\n              dup4\n                /* \"#utility.yul\":4650:4669   */\n              add\n                /* \"#utility.yul\":4641:4647   */\n              dup9\n                /* \"#utility.yul\":4597:4670   */\n              tag_194\n              jump\t// in\n            tag_296:\n                /* \"#utility.yul\":4718:4727   */\n              dup2\n                /* \"#utility.yul\":4712:4716   */\n              dup2\n                /* \"#utility.yul\":4708:4728   */\n              sub\n                /* \"#utility.yul\":4702:4705   */\n              0xa0\n                /* \"#utility.yul\":4691:4700   */\n              dup4\n                /* \"#utility.yul\":4687:4706   */\n              add\n                /* \"#utility.yul\":4680:4729   */\n              mstore\n                /* \"#utility.yul\":4746:4824   */\n              tag_297\n                /* \"#utility.yul\":4819:4823   */\n              dup2\n                /* \"#utility.yul\":4810:4816   */\n              dup8\n                /* \"#utility.yul\":4746:4824   */\n              tag_199\n              jump\t// in\n            tag_297:\n                /* \"#utility.yul\":4738:4824   */\n              swap1\n              pop\n                /* \"#utility.yul\":4872:4881   */\n              dup2\n                /* \"#utility.yul\":4866:4870   */\n              dup2\n                /* \"#utility.yul\":4862:4882   */\n              sub\n                /* \"#utility.yul\":4856:4859   */\n              0xc0\n                /* \"#utility.yul\":4845:4854   */\n              dup4\n                /* \"#utility.yul\":4841:4860   */\n              add\n                /* \"#utility.yul\":4834:4883   */\n              mstore\n                /* \"#utility.yul\":4900:4978   */\n              tag_298\n                /* \"#utility.yul\":4973:4977   */\n              dup2\n                /* \"#utility.yul\":4964:4970   */\n              dup7\n                /* \"#utility.yul\":4900:4978   */\n              tag_199\n              jump\t// in\n            tag_298:\n                /* \"#utility.yul\":4892:4978   */\n              swap1\n              pop\n                /* \"#utility.yul\":5026:5035   */\n              dup2\n                /* \"#utility.yul\":5020:5024   */\n              dup2\n                /* \"#utility.yul\":5016:5036   */\n              sub\n                /* \"#utility.yul\":5010:5013   */\n              0xe0\n                /* \"#utility.yul\":4999:5008   */\n              dup4\n                /* \"#utility.yul\":4995:5014   */\n              add\n                /* \"#utility.yul\":4988:5037   */\n              mstore\n                /* \"#utility.yul\":5054:5132   */\n              tag_299\n                /* \"#utility.yul\":5127:5131   */\n              dup2\n                /* \"#utility.yul\":5118:5124   */\n              dup6\n                /* \"#utility.yul\":5054:5132   */\n              tag_199\n              jump\t// in\n            tag_299:\n                /* \"#utility.yul\":5046:5132   */\n              swap1\n              pop\n                /* \"#utility.yul\":5142:5215   */\n              tag_300\n                /* \"#utility.yul\":5210:5213   */\n              0x0100\n                /* \"#utility.yul\":5199:5208   */\n              dup4\n                /* \"#utility.yul\":5195:5214   */\n              add\n                /* \"#utility.yul\":5186:5192   */\n              dup5\n                /* \"#utility.yul\":5142:5215   */\n              tag_193\n              jump\t// in\n            tag_300:\n                /* \"#utility.yul\":3841:5222   */\n              swap11\n              swap10\n              pop\n              pop\n              pop\n              pop\n              pop\n              pop\n              pop\n              pop\n              pop\n              pop\n              jump\t// out\n                /* \"#utility.yul\":5228:5450   */\n            tag_51:\n                /* \"#utility.yul\":5321:5325   */\n              0x00\n                /* \"#utility.yul\":5359:5361   */\n              0x20\n                /* \"#utility.yul\":5348:5357   */\n              dup3\n                /* \"#utility.yul\":5344:5362   */\n              add\n                /* \"#utility.yul\":5336:5362   */\n              swap1\n              pop\n                /* \"#utility.yul\":5372:5443   */\n              tag_302\n                /* \"#utility.yul\":5440:5441   */\n              0x00\n                /* \"#utility.yul\":5429:5438   */\n              dup4\n                /* \"#utility.yul\":5425:5442   */\n              add\n                /* \"#utility.yul\":5416:5422   */\n              dup5\n                /* \"#utility.yul\":5372:5443   */\n              tag_194\n              jump\t// in\n            tag_302:\n                /* \"#utility.yul\":5228:5450   */\n              swap3\n              swap2\n              pop\n              pop\n              jump\t// out\n                /* \"#utility.yul\":5456:5769   */\n            tag_56:\n                /* \"#utility.yul\":5569:5573   */\n              0x00\n                /* \"#utility.yul\":5607:5609   */\n              0x20\n                /* \"#utility.yul\":5596:5605   */\n              dup3\n                /* \"#utility.yul\":5592:5610   */\n              add\n                /* \"#utility.yul\":5584:5610   */\n              swap1\n              pop\n                /* \"#utility.yul\":5656:5665   */\n              dup2\n                /* \"#utility.yul\":5650:5654   */\n              dup2\n                /* \"#utility.yul\":5646:5666   */\n              sub\n                /* \"#utility.yul\":5642:5643   */\n              0x00\n                /* \"#utility.yul\":5631:5640   */\n              dup4\n                /* \"#utility.yul\":5627:5644   */\n              add\n                /* \"#utility.yul\":5620:5667   */\n              mstore\n                /* \"#utility.yul\":5684:5762   */\n              tag_304\n                /* \"#utility.yul\":5757:5761   */\n              dup2\n                /* \"#utility.yul\":5748:5754   */\n              dup5\n                /* \"#utility.yul\":5684:5762   */\n              tag_199\n              jump\t// in\n            tag_304:\n                /* \"#utility.yul\":5676:5762   */\n              swap1\n              pop\n                /* \"#utility.yul\":5456:5769   */\n              swap3\n              swap2\n              pop\n              pop\n              jump\t// out\n                /* \"#utility.yul\":5775:5879   */\n            tag_200:\n                /* \"#utility.yul\":5820:5827   */\n              0x00\n                /* \"#utility.yul\":5849:5873   */\n              tag_306\n                /* \"#utility.yul\":5867:5872   */\n              dup3\n                /* \"#utility.yul\":5849:5873   */\n              tag_187\n              jump\t// in\n            tag_306:\n                /* \"#utility.yul\":5838:5873   */\n              swap1\n              pop\n                /* \"#utility.yul\":5775:5879   */\n              swap2\n              swap1\n              pop\n              jump\t// out\n                /* \"#utility.yul\":5885:6027   */\n            tag_201:\n                /* \"#utility.yul\":5988:6020   */\n              tag_308\n                /* \"#utility.yul\":6014:6019   */\n              dup2\n                /* \"#utility.yul\":5988:6020   */\n              tag_200\n              jump\t// in\n            tag_308:\n                /* \"#utility.yul\":5983:5986   */\n              dup3\n                /* \"#utility.yul\":5976:6021   */\n              mstore\n                /* \"#utility.yul\":5885:6027   */\n              pop\n              pop\n              jump\t// out\n                /* \"#utility.yul\":6033:6808   */\n            tag_62:\n                /* \"#utility.yul\":6268:6272   */\n              0x00\n                /* \"#utility.yul\":6306:6309   */\n              0xa0\n                /* \"#utility.yul\":6295:6304   */\n              dup3\n                /* \"#utility.yul\":6291:6310   */\n              add\n                /* \"#utility.yul\":6283:6310   */\n              swap1\n              pop\n                /* \"#utility.yul\":6356:6365   */\n              dup2\n                /* \"#utility.yul\":6350:6354   */\n              dup2\n                /* \"#utility.yul\":6346:6366   */\n              sub\n                /* \"#utility.yul\":6342:6343   */\n              0x00\n                /* \"#utility.yul\":6331:6340   */\n              dup4\n                /* \"#utility.yul\":6327:6344   */\n              add\n                /* \"#utility.yul\":6320:6367   */\n              mstore\n                /* \"#utility.yul\":6384:6462   */\n              tag_310\n                /* \"#utility.yul\":6457:6461   */\n              dup2\n                /* \"#utility.yul\":6448:6454   */\n              dup9\n                /* \"#utility.yul\":6384:6462   */\n              tag_199\n              jump\t// in\n            tag_310:\n                /* \"#utility.yul\":6376:6462   */\n              swap1\n              pop\n                /* \"#utility.yul\":6472:6544   */\n              tag_311\n                /* \"#utility.yul\":6540:6542   */\n              0x20\n                /* \"#utility.yul\":6529:6538   */\n              dup4\n                /* \"#utility.yul\":6525:6543   */\n              add\n                /* \"#utility.yul\":6516:6522   */\n              dup8\n                /* \"#utility.yul\":6472:6544   */\n              tag_193\n              jump\t// in\n            tag_311:\n                /* \"#utility.yul\":6554:6642   */\n              tag_312\n                /* \"#utility.yul\":6638:6640   */\n              0x40\n                /* \"#utility.yul\":6627:6636   */\n              dup4\n                /* \"#utility.yul\":6623:6641   */\n              add\n                /* \"#utility.yul\":6614:6620   */\n              dup7\n                /* \"#utility.yul\":6554:6642   */\n              tag_201\n              jump\t// in\n            tag_312:\n                /* \"#utility.yul\":6652:6718   */\n              tag_313\n                /* \"#utility.yul\":6714:6716   */\n              0x60\n                /* \"#utility.yul\":6703:6712   */\n              dup4\n                /* \"#utility.yul\":6699:6717   */\n              add\n                /* \"#utility.yul\":6690:6696   */\n              dup6\n                /* \"#utility.yul\":6652:6718   */\n              tag_192\n              jump\t// in\n            tag_313:\n                /* \"#utility.yul\":6728:6801   */\n              tag_314\n                /* \"#utility.yul\":6796:6799   */\n              0x80\n                /* \"#utility.yul\":6785:6794   */\n              dup4\n                /* \"#utility.yul\":6781:6800   */\n              add\n                /* \"#utility.yul\":6772:6778   */\n              dup5\n                /* \"#utility.yul\":6728:6801   */\n              tag_193\n              jump\t// in\n            tag_314:\n                /* \"#utility.yul\":6033:6808   */\n              swap7\n              swap6\n              pop\n              pop\n              pop\n              pop\n              pop\n              pop\n              jump\t// out\n                /* \"#utility.yul\":6814:6931   */\n            tag_202:\n                /* \"#utility.yul\":6923:6924   */\n              0x00\n                /* \"#utility.yul\":6920:6921   */\n              dup1\n                /* \"#utility.yul\":6913:6925   */\n              revert\n                /* \"#utility.yul\":6937:7054   */\n            tag_203:\n                /* \"#utility.yul\":7046:7047   */\n              0x00\n                /* \"#utility.yul\":7043:7044   */\n              dup1\n                /* \"#utility.yul\":7036:7048   */\n              revert\n                /* \"#utility.yul\":7060:7240   */\n            tag_204:\n                /* \"#utility.yul\":7108:7185   */\n              0x4e487b7100000000000000000000000000000000000000000000000000000000\n                /* \"#utility.yul\":7105:7106   */\n              0x00\n                /* \"#utility.yul\":7098:7186   */\n              mstore\n                /* \"#utility.yul\":7205:7209   */\n              0x41\n                /* \"#utility.yul\":7202:7203   */\n              0x04\n                /* \"#utility.yul\":7195:7210   */\n              mstore\n                /* \"#utility.yul\":7229:7233   */\n              0x24\n                /* \"#utility.yul\":7226:7227   */\n              0x00\n                /* \"#utility.yul\":7219:7234   */\n              revert\n                /* \"#utility.yul\":7246:7527   */\n            tag_205:\n                /* \"#utility.yul\":7329:7356   */\n              tag_319\n                /* \"#utility.yul\":7351:7355   */\n              dup3\n                /* \"#utility.yul\":7329:7356   */\n              tag_198\n              jump\t// in\n            tag_319:\n                /* \"#utility.yul\":7321:7327   */\n              dup2\n                /* \"#utility.yul\":7317:7357   */\n              add\n                /* \"#utility.yul\":7459:7465   */\n              dup2\n                /* \"#utility.yul\":7447:7457   */\n              dup2\n                /* \"#utility.yul\":7444:7466   */\n              lt\n                /* \"#utility.yul\":7423:7441   */\n              0xffffffffffffffff\n                /* \"#utility.yul\":7411:7421   */\n              dup3\n                /* \"#utility.yul\":7408:7442   */\n              gt\n                /* \"#utility.yul\":7405:7467   */\n              or\n                /* \"#utility.yul\":7402:7490   */\n              iszero\n              tag_320\n              jumpi\n                /* \"#utility.yul\":7470:7488   */\n              tag_321\n              tag_204\n              jump\t// in\n            tag_321:\n                /* \"#utility.yul\":7402:7490   */\n            tag_320:\n                /* \"#utility.yul\":7510:7520   */\n              dup1\n                /* \"#utility.yul\":7506:7508   */\n              0x40\n                /* \"#utility.yul\":7499:7521   */\n              mstore\n                /* \"#utility.yul\":7289:7527   */\n              pop\n                /* \"#utility.yul\":7246:7527   */\n              pop\n              pop\n              jump\t// out\n                /* \"#utility.yul\":7533:7662   */\n            tag_206:\n                /* \"#utility.yul\":7567:7573   */\n              0x00\n                /* \"#utility.yul\":7594:7614   */\n              tag_323\n              tag_181\n              jump\t// in\n            tag_323:\n                /* \"#utility.yul\":7584:7614   */\n              swap1\n              pop\n                /* \"#utility.yul\":7623:7656   */\n              tag_324\n                /* \"#utility.yul\":7651:7655   */\n              dup3\n                /* \"#utility.yul\":7643:7649   */\n              dup3\n                /* \"#utility.yul\":7623:7656   */\n              tag_205\n              jump\t// in\n            tag_324:\n                /* \"#utility.yul\":7533:7662   */\n              swap2\n              swap1\n              pop\n              jump\t// out\n                /* \"#utility.yul\":7668:7976   */\n            tag_207:\n                /* \"#utility.yul\":7730:7734   */\n              0x00\n                /* \"#utility.yul\":7820:7838   */\n              0xffffffffffffffff\n                /* \"#utility.yul\":7812:7818   */\n              dup3\n                /* \"#utility.yul\":7809:7839   */\n              gt\n                /* \"#utility.yul\":7806:7862   */\n              iszero\n              tag_326\n              jumpi\n                /* \"#utility.yul\":7842:7860   */\n              tag_327\n              tag_204\n              jump\t// in\n            tag_327:\n                /* \"#utility.yul\":7806:7862   */\n            tag_326:\n                /* \"#utility.yul\":7880:7909   */\n              tag_328\n                /* \"#utility.yul\":7902:7908   */\n              dup3\n                /* \"#utility.yul\":7880:7909   */\n              tag_198\n              jump\t// in\n            tag_328:\n                /* \"#utility.yul\":7872:7909   */\n              swap1\n              pop\n                /* \"#utility.yul\":7964:7968   */\n              0x20\n                /* \"#utility.yul\":7958:7962   */\n              dup2\n                /* \"#utility.yul\":7954:7969   */\n              add\n                /* \"#utility.yul\":7946:7969   */\n              swap1\n              pop\n                /* \"#utility.yul\":7668:7976   */\n              swap2\n              swap1\n              pop\n              jump\t// out\n                /* \"#utility.yul\":7982:8136   */\n            tag_208:\n                /* \"#utility.yul\":8066:8072   */\n              dup3\n                /* \"#utility.yul\":8061:8064   */\n              dup2\n                /* \"#utility.yul\":8056:8059   */\n              dup4\n                /* \"#utility.yul\":8043:8073   */\n              calldatacopy\n                /* \"#utility.yul\":8128:8129   */\n              0x00\n                /* \"#utility.yul\":8119:8125   */\n              dup4\n                /* \"#utility.yul\":8114:8117   */\n              dup4\n                /* \"#utility.yul\":8110:8126   */\n              add\n                /* \"#utility.yul\":8103:8130   */\n              mstore\n                /* \"#utility.yul\":7982:8136   */\n              pop\n              pop\n              pop\n              jump\t// out\n                /* \"#utility.yul\":8142:8554   */\n            tag_209:\n                /* \"#utility.yul\":8220:8225   */\n              0x00\n                /* \"#utility.yul\":8245:8311   */\n              tag_331\n                /* \"#utility.yul\":8261:8310   */\n              tag_332\n                /* \"#utility.yul\":8303:8309   */\n              dup5\n                /* \"#utility.yul\":8261:8310   */\n              tag_207\n              jump\t// in\n            tag_332:\n                /* \"#utility.yul\":8245:8311   */\n              tag_206\n              jump\t// in\n            tag_331:\n                /* \"#utility.yul\":8236:8311   */\n              swap1\n              pop\n                /* \"#utility.yul\":8334:8340   */\n              dup3\n                /* \"#utility.yul\":8327:8332   */\n              dup2\n                /* \"#utility.yul\":8320:8341   */\n              mstore\n                /* \"#utility.yul\":8372:8376   */\n              0x20\n                /* \"#utility.yul\":8365:8370   */\n              dup2\n                /* \"#utility.yul\":8361:8377   */\n              add\n                /* \"#utility.yul\":8410:8413   */\n              dup5\n                /* \"#utility.yul\":8401:8407   */\n              dup5\n                /* \"#utility.yul\":8396:8399   */\n              dup5\n                /* \"#utility.yul\":8392:8408   */\n              add\n                /* \"#utility.yul\":8389:8414   */\n              gt\n                /* \"#utility.yul\":8386:8498   */\n              iszero\n              tag_333\n              jumpi\n                /* \"#utility.yul\":8417:8496   */\n              tag_334\n              tag_203\n              jump\t// in\n            tag_334:\n                /* \"#utility.yul\":8386:8498   */\n            tag_333:\n                /* \"#utility.yul\":8507:8548   */\n              tag_335\n                /* \"#utility.yul\":8541:8547   */\n              dup5\n                /* \"#utility.yul\":8536:8539   */\n              dup3\n                /* \"#utility.yul\":8531:8534   */\n              dup6\n                /* \"#utility.yul\":8507:8548   */\n              tag_208\n              jump\t// in\n            tag_335:\n                /* \"#utility.yul\":8226:8554   */\n              pop\n                /* \"#utility.yul\":8142:8554   */\n              swap4\n              swap3\n              pop\n              pop\n              pop\n              jump\t// out\n                /* \"#utility.yul\":8574:8914   */\n            tag_210:\n                /* \"#utility.yul\":8630:8635   */\n              0x00\n                /* \"#utility.yul\":8679:8682   */\n              dup3\n                /* \"#utility.yul\":8672:8676   */\n              0x1f\n                /* \"#utility.yul\":8664:8670   */\n              dup4\n                /* \"#utility.yul\":8660:8677   */\n              add\n                /* \"#utility.yul\":8656:8683   */\n              slt\n                /* \"#utility.yul\":8646:8768   */\n              tag_337\n              jumpi\n                /* \"#utility.yul\":8687:8766   */\n              tag_338\n              tag_202\n              jump\t// in\n            tag_338:\n                /* \"#utility.yul\":8646:8768   */\n            tag_337:\n                /* \"#utility.yul\":8804:8810   */\n              dup2\n                /* \"#utility.yul\":8791:8811   */\n              calldataload\n                /* \"#utility.yul\":8829:8908   */\n              tag_339\n                /* \"#utility.yul\":8904:8907   */\n              dup5\n                /* \"#utility.yul\":8896:8902   */\n              dup3\n                /* \"#utility.yul\":8889:8893   */\n              0x20\n                /* \"#utility.yul\":8881:8887   */\n              dup7\n                /* \"#utility.yul\":8877:8894   */\n              add\n                /* \"#utility.yul\":8829:8908   */\n              tag_209\n              jump\t// in\n            tag_339:\n                /* \"#utility.yul\":8820:8908   */\n              swap2\n              pop\n                /* \"#utility.yul\":8636:8914   */\n              pop\n                /* \"#utility.yul\":8574:8914   */\n              swap3\n              swap2\n              pop\n              pop\n              jump\t// out\n                /* \"#utility.yul\":8920:9058   */\n            tag_211:\n                /* \"#utility.yul\":9001:9033   */\n              tag_341\n                /* \"#utility.yul\":9027:9032   */\n              dup2\n                /* \"#utility.yul\":9001:9033   */\n              tag_200\n              jump\t// in\n            tag_341:\n                /* \"#utility.yul\":8994:8999   */\n              dup2\n                /* \"#utility.yul\":8991:9034   */\n              eq\n                /* \"#utility.yul\":8981:9052   */\n              tag_342\n              jumpi\n                /* \"#utility.yul\":9048:9049   */\n              0x00\n                /* \"#utility.yul\":9045:9046   */\n              dup1\n                /* \"#utility.yul\":9038:9050   */\n              revert\n                /* \"#utility.yul\":8981:9052   */\n            tag_342:\n                /* \"#utility.yul\":8920:9058   */\n              pop\n              jump\t// out\n                /* \"#utility.yul\":9064:9219   */\n            tag_212:\n                /* \"#utility.yul\":9118:9123   */\n              0x00\n                /* \"#utility.yul\":9156:9162   */\n              dup2\n                /* \"#utility.yul\":9143:9163   */\n              calldataload\n                /* \"#utility.yul\":9134:9163   */\n              swap1\n              pop\n                /* \"#utility.yul\":9172:9213   */\n              tag_344\n                /* \"#utility.yul\":9207:9212   */\n              dup2\n                /* \"#utility.yul\":9172:9213   */\n              tag_211\n              jump\t// in\n            tag_344:\n                /* \"#utility.yul\":9064:9219   */\n              swap3\n              swap2\n              pop\n              pop\n              jump\t// out\n                /* \"#utility.yul\":9225:10040   */\n            tag_66:\n                /* \"#utility.yul\":9320:9326   */\n              0x00\n                /* \"#utility.yul\":9328:9334   */\n              dup1\n                /* \"#utility.yul\":9336:9342   */\n              0x00\n                /* \"#utility.yul\":9385:9387   */\n              0x60\n                /* \"#utility.yul\":9373:9382   */\n              dup5\n                /* \"#utility.yul\":9364:9371   */\n              dup7\n                /* \"#utility.yul\":9360:9383   */\n              sub\n                /* \"#utility.yul\":9356:9388   */\n              slt\n                /* \"#utility.yul\":9353:9472   */\n              iszero\n              tag_346\n              jumpi\n                /* \"#utility.yul\":9391:9470   */\n              tag_347\n              tag_182\n              jump\t// in\n            tag_347:\n                /* \"#utility.yul\":9353:9472   */\n            tag_346:\n                /* \"#utility.yul\":9539:9540   */\n              0x00\n                /* \"#utility.yul\":9528:9537   */\n              dup5\n                /* \"#utility.yul\":9524:9541   */\n              add\n                /* \"#utility.yul\":9511:9542   */\n              calldataload\n                /* \"#utility.yul\":9569:9587   */\n              0xffffffffffffffff\n                /* \"#utility.yul\":9561:9567   */\n              dup2\n                /* \"#utility.yul\":9558:9588   */\n              gt\n                /* \"#utility.yul\":9555:9672   */\n              iszero\n              tag_348\n              jumpi\n                /* \"#utility.yul\":9591:9670   */\n              tag_349\n              tag_183\n              jump\t// in\n            tag_349:\n                /* \"#utility.yul\":9555:9672   */\n            tag_348:\n                /* \"#utility.yul\":9696:9759   */\n              tag_350\n                /* \"#utility.yul\":9751:9758   */\n              dup7\n                /* \"#utility.yul\":9742:9748   */\n              dup3\n                /* \"#utility.yul\":9731:9740   */\n              dup8\n                /* \"#utility.yul\":9727:9749   */\n              add\n                /* \"#utility.yul\":9696:9759   */\n              tag_210\n              jump\t// in\n            tag_350:\n                /* \"#utility.yul\":9686:9759   */\n              swap4\n              pop\n                /* \"#utility.yul\":9482:9769   */\n              pop\n                /* \"#utility.yul\":9808:9810   */\n              0x20\n                /* \"#utility.yul\":9834:9887   */\n              tag_351\n                /* \"#utility.yul\":9879:9886   */\n              dup7\n                /* \"#utility.yul\":9870:9876   */\n              dup3\n                /* \"#utility.yul\":9859:9868   */\n              dup8\n                /* \"#utility.yul\":9855:9877   */\n              add\n                /* \"#utility.yul\":9834:9887   */\n              tag_186\n              jump\t// in\n            tag_351:\n                /* \"#utility.yul\":9824:9887   */\n              swap3\n              pop\n                /* \"#utility.yul\":9779:9897   */\n              pop\n                /* \"#utility.yul\":9936:9938   */\n              0x40\n                /* \"#utility.yul\":9962:10023   */\n              tag_352\n                /* \"#utility.yul\":10015:10022   */\n              dup7\n                /* \"#utility.yul\":10006:10012   */\n              dup3\n                /* \"#utility.yul\":9995:10004   */\n              dup8\n                /* \"#utility.yul\":9991:10013   */\n              add\n                /* \"#utility.yul\":9962:10023   */\n              tag_212\n              jump\t// in\n            tag_352:\n                /* \"#utility.yul\":9952:10023   */\n              swap2\n              pop\n                /* \"#utility.yul\":9907:10033   */\n              pop\n                /* \"#utility.yul\":9225:10040   */\n              swap3\n              pop\n              swap3\n              pop\n              swap3\n              jump\t// out\n                /* \"#utility.yul\":10046:10219   */\n            tag_213:\n                /* \"#utility.yul\":10186:10211   */\n              0x596f7520617265206e6f7420746865206d616e61676572000000000000000000\n                /* \"#utility.yul\":10182:10183   */\n              0x00\n                /* \"#utility.yul\":10174:10180   */\n              dup3\n                /* \"#utility.yul\":10170:10184   */\n              add\n                /* \"#utility.yul\":10163:10212   */\n              mstore\n                /* \"#utility.yul\":10046:10219   */\n              pop\n              jump\t// out\n                /* \"#utility.yul\":10225:10591   */\n            tag_214:\n                /* \"#utility.yul\":10367:10370   */\n              0x00\n                /* \"#utility.yul\":10388:10455   */\n              tag_355\n                /* \"#utility.yul\":10452:10454   */\n              0x17\n                /* \"#utility.yul\":10447:10450   */\n              dup4\n                /* \"#utility.yul\":10388:10455   */\n              tag_196\n              jump\t// in\n            tag_355:\n                /* \"#utility.yul\":10381:10455   */\n              swap2\n              pop\n                /* \"#utility.yul\":10464:10557   */\n              tag_356\n                /* \"#utility.yul\":10553:10556   */\n              dup3\n                /* \"#utility.yul\":10464:10557   */\n              tag_213\n              jump\t// in\n            tag_356:\n                /* \"#utility.yul\":10582:10584   */\n              0x20\n                /* \"#utility.yul\":10577:10580   */\n              dup3\n                /* \"#utility.yul\":10573:10585   */\n              add\n                /* \"#utility.yul\":10566:10585   */\n              swap1\n              pop\n                /* \"#utility.yul\":10225:10591   */\n              swap2\n              swap1\n              pop\n              jump\t// out\n                /* \"#utility.yul\":10597:11016   */\n            tag_101:\n                /* \"#utility.yul\":10763:10767   */\n              0x00\n                /* \"#utility.yul\":10801:10803   */\n              0x20\n                /* \"#utility.yul\":10790:10799   */\n              dup3\n                /* \"#utility.yul\":10786:10804   */\n              add\n                /* \"#utility.yul\":10778:10804   */\n              swap1\n              pop\n                /* \"#utility.yul\":10850:10859   */\n              dup2\n                /* \"#utility.yul\":10844:10848   */\n              dup2\n                /* \"#utility.yul\":10840:10860   */\n              sub\n                /* \"#utility.yul\":10836:10837   */\n              0x00\n                /* \"#utility.yul\":10825:10834   */\n              dup4\n                /* \"#utility.yul\":10821:10838   */\n              add\n                /* \"#utility.yul\":10814:10861   */\n              mstore\n                /* \"#utility.yul\":10878:11009   */\n              tag_358\n                /* \"#utility.yul\":11004:11008   */\n              dup2\n                /* \"#utility.yul\":10878:11009   */\n              tag_214\n              jump\t// in\n            tag_358:\n                /* \"#utility.yul\":10870:11009   */\n              swap1\n              pop\n                /* \"#utility.yul\":10597:11016   */\n              swap2\n              swap1\n              pop\n              jump\t// out\n                /* \"#utility.yul\":11022:11202   */\n            tag_105:\n                /* \"#utility.yul\":11070:11147   */\n              0x4e487b7100000000000000000000000000000000000000000000000000000000\n                /* \"#utility.yul\":11067:11068   */\n              0x00\n                /* \"#utility.yul\":11060:11148   */\n              mstore\n                /* \"#utility.yul\":11167:11171   */\n              0x32\n                /* \"#utility.yul\":11164:11165   */\n              0x04\n                /* \"#utility.yul\":11157:11172   */\n              mstore\n                /* \"#utility.yul\":11191:11195   */\n              0x24\n                /* \"#utility.yul\":11188:11189   */\n              0x00\n                /* \"#utility.yul\":11181:11196   */\n              revert\n                /* \"#utility.yul\":11208:11388   */\n            tag_215:\n                /* \"#utility.yul\":11256:11333   */\n              0x4e487b7100000000000000000000000000000000000000000000000000000000\n                /* \"#utility.yul\":11253:11254   */\n              0x00\n                /* \"#utility.yul\":11246:11334   */\n              mstore\n                /* \"#utility.yul\":11353:11357   */\n              0x12\n                /* \"#utility.yul\":11350:11351   */\n              0x04\n                /* \"#utility.yul\":11343:11358   */\n              mstore\n                /* \"#utility.yul\":11377:11381   */\n              0x24\n                /* \"#utility.yul\":11374:11375   */\n              0x00\n                /* \"#utility.yul\":11367:11382   */\n              revert\n                /* \"#utility.yul\":11394:11574   */\n            tag_216:\n                /* \"#utility.yul\":11442:11519   */\n              0x4e487b7100000000000000000000000000000000000000000000000000000000\n                /* \"#utility.yul\":11439:11440   */\n              0x00\n                /* \"#utility.yul\":11432:11520   */\n              mstore\n                /* \"#utility.yul\":11539:11543   */\n              0x11\n                /* \"#utility.yul\":11536:11537   */\n              0x04\n                /* \"#utility.yul\":11529:11544   */\n              mstore\n                /* \"#utility.yul\":11563:11567   */\n              0x24\n                /* \"#utility.yul\":11560:11561   */\n              0x00\n                /* \"#utility.yul\":11553:11568   */\n              revert\n                /* \"#utility.yul\":11580:11765   */\n            tag_108:\n                /* \"#utility.yul\":11620:11621   */\n              0x00\n                /* \"#utility.yul\":11637:11657   */\n              tag_363\n                /* \"#utility.yul\":11655:11656   */\n              dup3\n                /* \"#utility.yul\":11637:11657   */\n              tag_184\n              jump\t// in\n            tag_363:\n                /* \"#utility.yul\":11632:11657   */\n              swap2\n              pop\n                /* \"#utility.yul\":11671:11691   */\n              tag_364\n                /* \"#utility.yul\":11689:11690   */\n              dup4\n                /* \"#utility.yul\":11671:11691   */\n              tag_184\n              jump\t// in\n            tag_364:\n                /* \"#utility.yul\":11666:11691   */\n              swap3\n              pop\n                /* \"#utility.yul\":11710:11711   */\n              dup3\n                /* \"#utility.yul\":11700:11735   */\n              tag_365\n              jumpi\n                /* \"#utility.yul\":11715:11733   */\n              tag_366\n              tag_215\n              jump\t// in\n            tag_366:\n                /* \"#utility.yul\":11700:11735   */\n            tag_365:\n                /* \"#utility.yul\":11757:11758   */\n              dup3\n                /* \"#utility.yul\":11754:11755   */\n              dup3\n                /* \"#utility.yul\":11750:11759   */\n              div\n                /* \"#utility.yul\":11745:11759   */\n              swap1\n              pop\n                /* \"#utility.yul\":11580:11765   */\n              swap3\n              swap2\n              pop\n              pop\n              jump\t// out\n                /* \"#utility.yul\":11771:11939   */\n            tag_217:\n                /* \"#utility.yul\":11911:11931   */\n              0x4e6f20656e6f75676820617070726f7665720000000000000000000000000000\n                /* \"#utility.yul\":11907:11908   */\n              0x00\n                /* \"#utility.yul\":11899:11905   */\n              dup3\n                /* \"#utility.yul\":11895:11909   */\n              add\n                /* \"#utility.yul\":11888:11932   */\n              mstore\n                /* \"#utility.yul\":11771:11939   */\n              pop\n              jump\t// out\n                /* \"#utility.yul\":11945:12311   */\n            tag_218:\n                /* \"#utility.yul\":12087:12090   */\n              0x00\n                /* \"#utility.yul\":12108:12175   */\n              tag_369\n                /* \"#utility.yul\":12172:12174   */\n              0x12\n                /* \"#utility.yul\":12167:12170   */\n              dup4\n                /* \"#utility.yul\":12108:12175   */\n              tag_196\n              jump\t// in\n            tag_369:\n                /* \"#utility.yul\":12101:12175   */\n              swap2\n              pop\n                /* \"#utility.yul\":12184:12277   */\n              tag_370\n                /* \"#utility.yul\":12273:12276   */\n              dup3\n                /* \"#utility.yul\":12184:12277   */\n              tag_217\n              jump\t// in\n            tag_370:\n                /* \"#utility.yul\":12302:12304   */\n              0x20\n                /* \"#utility.yul\":12297:12300   */\n              dup3\n                /* \"#utility.yul\":12293:12305   */\n              add\n                /* \"#utility.yul\":12286:12305   */\n              swap1\n              pop\n                /* \"#utility.yul\":11945:12311   */\n              swap2\n              swap1\n              pop\n              jump\t// out\n                /* \"#utility.yul\":12317:12736   */\n            tag_111:\n                /* \"#utility.yul\":12483:12487   */\n              0x00\n                /* \"#utility.yul\":12521:12523   */\n              0x20\n                /* \"#utility.yul\":12510:12519   */\n              dup3\n                /* \"#utility.yul\":12506:12524   */\n              add\n                /* \"#utility.yul\":12498:12524   */\n              swap1\n              pop\n                /* \"#utility.yul\":12570:12579   */\n              dup2\n                /* \"#utility.yul\":12564:12568   */\n              dup2\n                /* \"#utility.yul\":12560:12580   */\n              sub\n                /* \"#utility.yul\":12556:12557   */\n              0x00\n                /* \"#utility.yul\":12545:12554   */\n              dup4\n                /* \"#utility.yul\":12541:12558   */\n              add\n                /* \"#utility.yul\":12534:12581   */\n              mstore\n                /* \"#utility.yul\":12598:12729   */\n              tag_372\n                /* \"#utility.yul\":12724:12728   */\n              dup2\n                /* \"#utility.yul\":12598:12729   */\n              tag_218\n              jump\t// in\n            tag_372:\n                /* \"#utility.yul\":12590:12729   */\n              swap1\n              pop\n                /* \"#utility.yul\":12317:12736   */\n              swap2\n              swap1\n              pop\n              jump\t// out\n                /* \"#utility.yul\":12742:12909   */\n            tag_219:\n                /* \"#utility.yul\":12882:12901   */\n              0x416c726561647920636f6d706c65746564000000000000000000000000000000\n                /* \"#utility.yul\":12878:12879   */\n              0x00\n                /* \"#utility.yul\":12870:12876   */\n              dup3\n                /* \"#utility.yul\":12866:12880   */\n              add\n                /* \"#utility.yul\":12859:12902   */\n              mstore\n                /* \"#utility.yul\":12742:12909   */\n              pop\n              jump\t// out\n                /* \"#utility.yul\":12915:13281   */\n            tag_220:\n                /* \"#utility.yul\":13057:13060   */\n              0x00\n                /* \"#utility.yul\":13078:13145   */\n              tag_375\n                /* \"#utility.yul\":13142:13144   */\n              0x11\n                /* \"#utility.yul\":13137:13140   */\n              dup4\n                /* \"#utility.yul\":13078:13145   */\n              tag_196\n              jump\t// in\n            tag_375:\n                /* \"#utility.yul\":13071:13145   */\n              swap2\n              pop\n                /* \"#utility.yul\":13154:13247   */\n              tag_376\n                /* \"#utility.yul\":13243:13246   */\n              dup3\n                /* \"#utility.yul\":13154:13247   */\n              tag_219\n              jump\t// in\n            tag_376:\n                /* \"#utility.yul\":13272:13274   */\n              0x20\n                /* \"#utility.yul\":13267:13270   */\n              dup3\n                /* \"#utility.yul\":13263:13275   */\n              add\n                /* \"#utility.yul\":13256:13275   */\n              swap1\n              pop\n                /* \"#utility.yul\":12915:13281   */\n              swap2\n              swap1\n              pop\n              jump\t// out\n                /* \"#utility.yul\":13287:13706   */\n            tag_114:\n                /* \"#utility.yul\":13453:13457   */\n              0x00\n                /* \"#utility.yul\":13491:13493   */\n              0x20\n                /* \"#utility.yul\":13480:13489   */\n              dup3\n                /* \"#utility.yul\":13476:13494   */\n              add\n                /* \"#utility.yul\":13468:13494   */\n              swap1\n              pop\n                /* \"#utility.yul\":13540:13549   */\n              dup2\n                /* \"#utility.yul\":13534:13538   */\n              dup2\n                /* \"#utility.yul\":13530:13550   */\n              sub\n                /* \"#utility.yul\":13526:13527   */\n              0x00\n                /* \"#utility.yul\":13515:13524   */\n              dup4\n                /* \"#utility.yul\":13511:13528   */\n              add\n                /* \"#utility.yul\":13504:13551   */\n              mstore\n                /* \"#utility.yul\":13568:13699   */\n              tag_378\n                /* \"#utility.yul\":13694:13698   */\n              dup2\n                /* \"#utility.yul\":13568:13699   */\n              tag_220\n              jump\t// in\n            tag_378:\n                /* \"#utility.yul\":13560:13699   */\n              swap1\n              pop\n                /* \"#utility.yul\":13287:13706   */\n              swap2\n              swap1\n              pop\n              jump\t// out\n                /* \"#utility.yul\":13712:13892   */\n            tag_221:\n                /* \"#utility.yul\":13760:13837   */\n              0x4e487b7100000000000000000000000000000000000000000000000000000000\n                /* \"#utility.yul\":13757:13758   */\n              0x00\n                /* \"#utility.yul\":13750:13838   */\n              mstore\n                /* \"#utility.yul\":13857:13861   */\n              0x22\n                /* \"#utility.yul\":13854:13855   */\n              0x04\n                /* \"#utility.yul\":13847:13862   */\n              mstore\n                /* \"#utility.yul\":13881:13885   */\n              0x24\n                /* \"#utility.yul\":13878:13879   */\n              0x00\n                /* \"#utility.yul\":13871:13886   */\n              revert\n                /* \"#utility.yul\":13898:14218   */\n            tag_120:\n                /* \"#utility.yul\":13942:13948   */\n              0x00\n                /* \"#utility.yul\":13979:13980   */\n              0x02\n                /* \"#utility.yul\":13973:13977   */\n              dup3\n                /* \"#utility.yul\":13969:13981   */\n              div\n                /* \"#utility.yul\":13959:13981   */\n              swap1\n              pop\n                /* \"#utility.yul\":14026:14027   */\n              0x01\n                /* \"#utility.yul\":14020:14024   */\n              dup3\n                /* \"#utility.yul\":14016:14028   */\n              and\n                /* \"#utility.yul\":14047:14065   */\n              dup1\n                /* \"#utility.yul\":14037:14118   */\n              tag_381\n              jumpi\n                /* \"#utility.yul\":14103:14107   */\n              0x7f\n                /* \"#utility.yul\":14095:14101   */\n              dup3\n                /* \"#utility.yul\":14091:14108   */\n              and\n                /* \"#utility.yul\":14081:14108   */\n              swap2\n              pop\n                /* \"#utility.yul\":14037:14118   */\n            tag_381:\n                /* \"#utility.yul\":14165:14167   */\n              0x20\n                /* \"#utility.yul\":14157:14163   */\n              dup3\n                /* \"#utility.yul\":14154:14168   */\n              lt\n                /* \"#utility.yul\":14134:14152   */\n              dup2\n                /* \"#utility.yul\":14131:14169   */\n              sub\n                /* \"#utility.yul\":14128:14212   */\n              tag_382\n              jumpi\n                /* \"#utility.yul\":14184:14202   */\n              tag_383\n              tag_221\n              jump\t// in\n            tag_383:\n                /* \"#utility.yul\":14128:14212   */\n            tag_382:\n                /* \"#utility.yul\":13949:14218   */\n              pop\n                /* \"#utility.yul\":13898:14218   */\n              swap2\n              swap1\n              pop\n              jump\t// out\n                /* \"#utility.yul\":14224:14365   */\n            tag_222:\n                /* \"#utility.yul\":14273:14277   */\n              0x00\n                /* \"#utility.yul\":14296:14299   */\n              dup2\n                /* \"#utility.yul\":14288:14299   */\n              swap1\n              pop\n                /* \"#utility.yul\":14319:14322   */\n              dup2\n                /* \"#utility.yul\":14316:14317   */\n              0x00\n                /* \"#utility.yul\":14309:14323   */\n              mstore\n                /* \"#utility.yul\":14353:14357   */\n              0x20\n                /* \"#utility.yul\":14350:14351   */\n              0x00\n                /* \"#utility.yul\":14340:14358   */\n              keccak256\n                /* \"#utility.yul\":14332:14358   */\n              swap1\n              pop\n                /* \"#utility.yul\":14224:14365   */\n              swap2\n              swap1\n              pop\n              jump\t// out\n                /* \"#utility.yul\":14371:14464   */\n            tag_223:\n                /* \"#utility.yul\":14408:14414   */\n              0x00\n                /* \"#utility.yul\":14455:14457   */\n              0x20\n                /* \"#utility.yul\":14450:14452   */\n              0x1f\n                /* \"#utility.yul\":14443:14448   */\n              dup4\n                /* \"#utility.yul\":14439:14453   */\n              add\n                /* \"#utility.yul\":14435:14458   */\n              div\n                /* \"#utility.yul\":14425:14458   */\n              swap1\n              pop\n                /* \"#utility.yul\":14371:14464   */\n              swap2\n              swap1\n              pop\n              jump\t// out\n                /* \"#utility.yul\":14470:14577   */\n            tag_224:\n                /* \"#utility.yul\":14514:14522   */\n              0x00\n                /* \"#utility.yul\":14564:14569   */\n              dup3\n                /* \"#utility.yul\":14558:14562   */\n              dup3\n                /* \"#utility.yul\":14554:14570   */\n              shl\n                /* \"#utility.yul\":14533:14570   */\n              swap1\n              pop\n                /* \"#utility.yul\":14470:14577   */\n              swap3\n              swap2\n              pop\n              pop\n              jump\t// out\n                /* \"#utility.yul\":14583:14976   */\n            tag_225:\n                /* \"#utility.yul\":14652:14658   */\n              0x00\n                /* \"#utility.yul\":14702:14703   */\n              0x08\n                /* \"#utility.yul\":14690:14700   */\n              dup4\n                /* \"#utility.yul\":14686:14704   */\n              mul\n                /* \"#utility.yul\":14725:14822   */\n              tag_388\n                /* \"#utility.yul\":14755:14821   */\n              0xffffffffffffffffffffffffffffffffffffffffffffffffffffffffffffffff\n                /* \"#utility.yul\":14744:14753   */\n              dup3\n                /* \"#utility.yul\":14725:14822   */\n              tag_224\n              jump\t// in\n            tag_388:\n                /* \"#utility.yul\":14843:14882   */\n              tag_389\n                /* \"#utility.yul\":14873:14881   */\n              dup7\n                /* \"#utility.yul\":14862:14871   */\n              dup4\n                /* \"#utility.yul\":14843:14882   */\n              tag_224\n              jump\t// in\n            tag_389:\n                /* \"#utility.yul\":14831:14882   */\n              swap6\n              pop\n                /* \"#utility.yul\":14915:14919   */\n              dup1\n                /* \"#utility.yul\":14911:14920   */\n              not\n                /* \"#utility.yul\":14904:14909   */\n              dup5\n                /* \"#utility.yul\":14900:14921   */\n              and\n                /* \"#utility.yul\":14891:14921   */\n              swap4\n              pop\n                /* \"#utility.yul\":14964:14968   */\n              dup1\n                /* \"#utility.yul\":14954:14962   */\n              dup7\n                /* \"#utility.yul\":14950:14969   */\n              and\n                /* \"#utility.yul\":14943:14948   */\n              dup5\n                /* \"#utility.yul\":14940:14970   */\n              or\n                /* \"#utility.yul\":14930:14970   */\n              swap3\n              pop\n                /* \"#utility.yul\":14659:14976   */\n              pop\n              pop\n                /* \"#utility.yul\":14583:14976   */\n              swap4\n              swap3\n              pop\n              pop\n              pop\n              jump\t// out\n                /* \"#utility.yul\":14982:15042   */\n            tag_226:\n                /* \"#utility.yul\":15010:15013   */\n              0x00\n                /* \"#utility.yul\":15031:15036   */\n              dup2\n                /* \"#utility.yul\":15024:15036   */\n              swap1\n              pop\n                /* \"#utility.yul\":14982:15042   */\n              swap2\n              swap1\n              pop\n              jump\t// out\n                /* \"#utility.yul\":15048:15190   */\n            tag_227:\n                /* \"#utility.yul\":15098:15107   */\n              0x00\n                /* \"#utility.yul\":15131:15184   */\n              tag_392\n                /* \"#utility.yul\":15149:15183   */\n              tag_393\n                /* \"#utility.yul\":15158:15182   */\n              tag_394\n                /* \"#utility.yul\":15176:15181   */\n              dup5\n                /* \"#utility.yul\":15158:15182   */\n              tag_184\n              jump\t// in\n            tag_394:\n                /* \"#utility.yul\":15149:15183   */\n              tag_226\n              jump\t// in\n            tag_393:\n                /* \"#utility.yul\":15131:15184   */\n              tag_184\n              jump\t// in\n            tag_392:\n                /* \"#utility.yul\":15118:15184   */\n              swap1\n              pop\n                /* \"#utility.yul\":15048:15190   */\n              swap2\n              swap1\n              pop\n              jump\t// out\n                /* \"#utility.yul\":15196:15271   */\n            tag_228:\n                /* \"#utility.yul\":15239:15242   */\n              0x00\n                /* \"#utility.yul\":15260:15265   */\n              dup2\n                /* \"#utility.yul\":15253:15265   */\n              swap1\n              pop\n                /* \"#utility.yul\":15196:15271   */\n              swap2\n              swap1\n              pop\n              jump\t// out\n                /* \"#utility.yul\":15277:15546   */\n            tag_229:\n                /* \"#utility.yul\":15387:15426   */\n              tag_397\n                /* \"#utility.yul\":15418:15425   */\n              dup4\n                /* \"#utility.yul\":15387:15426   */\n              tag_227\n              jump\t// in\n            tag_397:\n                /* \"#utility.yul\":15448:15539   */\n              tag_398\n                /* \"#utility.yul\":15497:15538   */\n              tag_399\n                /* \"#utility.yul\":15521:15537   */\n              dup3\n                /* \"#utility.yul\":15497:15538   */\n              tag_228\n              jump\t// in\n            tag_399:\n                /* \"#utility.yul\":15489:15495   */\n              dup5\n                /* \"#utility.yul\":15482:15486   */\n              dup5\n                /* \"#utility.yul\":15476:15487   */\n              sload\n                /* \"#utility.yul\":15448:15539   */\n              tag_225\n              jump\t// in\n            tag_398:\n                /* \"#utility.yul\":15442:15446   */\n              dup3\n                /* \"#utility.yul\":15435:15540   */\n              sstore\n                /* \"#utility.yul\":15353:15546   */\n              pop\n                /* \"#utility.yul\":15277:15546   */\n              pop\n              pop\n              pop\n              jump\t// out\n                /* \"#utility.yul\":15552:15625   */\n            tag_230:\n                /* \"#utility.yul\":15597:15600   */\n              0x00\n                /* \"#utility.yul\":15552:15625   */\n              swap1\n              jump\t// out\n                /* \"#utility.yul\":15631:15820   */\n            tag_231:\n                /* \"#utility.yul\":15708:15740   */\n              tag_402\n              tag_230\n              jump\t// in\n            tag_402:\n                /* \"#utility.yul\":15749:15814   */\n              tag_403\n                /* \"#utility.yul\":15807:15813   */\n              dup2\n                /* \"#utility.yul\":15799:15805   */\n              dup5\n                /* \"#utility.yul\":15793:15797   */\n              dup5\n                /* \"#utility.yul\":15749:15814   */\n              tag_229\n              jump\t// in\n            tag_403:\n                /* \"#utility.yul\":15684:15820   */\n              pop\n                /* \"#utility.yul\":15631:15820   */\n              pop\n              pop\n              jump\t// out\n                /* \"#utility.yul\":15826:16012   */\n            tag_232:\n                /* \"#utility.yul\":15886:16006   */\n            tag_405:\n                /* \"#utility.yul\":15903:15906   */\n              dup2\n                /* \"#utility.yul\":15896:15901   */\n              dup2\n                /* \"#utility.yul\":15893:15907   */\n              lt\n                /* \"#utility.yul\":15886:16006   */\n              iszero\n              tag_407\n              jumpi\n                /* \"#utility.yul\":15957:15996   */\n              tag_408\n                /* \"#utility.yul\":15994:15995   */\n              0x00\n                /* \"#utility.yul\":15987:15992   */\n              dup3\n                /* \"#utility.yul\":15957:15996   */\n              tag_231\n              jump\t// in\n            tag_408:\n                /* \"#utility.yul\":15930:15931   */\n              0x01\n                /* \"#utility.yul\":15923:15928   */\n              dup2\n                /* \"#utility.yul\":15919:15932   */\n              add\n                /* \"#utility.yul\":15910:15932   */\n              swap1\n              pop\n                /* \"#utility.yul\":15886:16006   */\n              jump(tag_405)\n            tag_407:\n                /* \"#utility.yul\":15826:16012   */\n              pop\n              pop\n              jump\t// out\n                /* \"#utility.yul\":16018:16561   */\n            tag_233:\n                /* \"#utility.yul\":16119:16121   */\n              0x1f\n                /* \"#utility.yul\":16114:16117   */\n              dup3\n                /* \"#utility.yul\":16111:16122   */\n              gt\n                /* \"#utility.yul\":16108:16554   */\n              iszero\n              tag_410\n              jumpi\n                /* \"#utility.yul\":16153:16191   */\n              tag_411\n                /* \"#utility.yul\":16185:16190   */\n              dup2\n                /* \"#utility.yul\":16153:16191   */\n              tag_222\n              jump\t// in\n            tag_411:\n                /* \"#utility.yul\":16237:16266   */\n              tag_412\n                /* \"#utility.yul\":16255:16265   */\n              dup5\n                /* \"#utility.yul\":16237:16266   */\n              tag_223\n              jump\t// in\n            tag_412:\n                /* \"#utility.yul\":16227:16235   */\n              dup2\n                /* \"#utility.yul\":16223:16267   */\n              add\n                /* \"#utility.yul\":16420:16422   */\n              0x20\n                /* \"#utility.yul\":16408:16418   */\n              dup6\n                /* \"#utility.yul\":16405:16423   */\n              lt\n                /* \"#utility.yul\":16402:16451   */\n              iszero\n              tag_413\n              jumpi\n                /* \"#utility.yul\":16441:16449   */\n              dup2\n                /* \"#utility.yul\":16426:16449   */\n              swap1\n              pop\n                /* \"#utility.yul\":16402:16451   */\n            tag_413:\n                /* \"#utility.yul\":16464:16544   */\n              tag_414\n                /* \"#utility.yul\":16520:16542   */\n              tag_415\n                /* \"#utility.yul\":16538:16541   */\n              dup6\n                /* \"#utility.yul\":16520:16542   */\n              tag_223\n              jump\t// in\n            tag_415:\n                /* \"#utility.yul\":16510:16518   */\n              dup4\n                /* \"#utility.yul\":16506:16543   */\n              add\n                /* \"#utility.yul\":16493:16504   */\n              dup3\n                /* \"#utility.yul\":16464:16544   */\n              tag_232\n              jump\t// in\n            tag_414:\n                /* \"#utility.yul\":16123:16554   */\n              pop\n              pop\n                /* \"#utility.yul\":16108:16554   */\n            tag_410:\n                /* \"#utility.yul\":16018:16561   */\n              pop\n              pop\n              pop\n              jump\t// out\n                /* \"#utility.yul\":16567:16684   */\n            tag_234:\n                /* \"#utility.yul\":16621:16629   */\n              0x00\n                /* \"#utility.yul\":16671:16676   */\n              dup3\n                /* \"#utility.yul\":16665:16669   */\n              dup3\n                /* \"#utility.yul\":16661:16677   */\n              shr\n                /* \"#utility.yul\":16640:16677   */\n              swap1\n              pop\n                /* \"#utility.yul\":16567:16684   */\n              swap3\n              swap2\n              pop\n              pop\n              jump\t// out\n                /* \"#utility.yul\":16690:16859   */\n            tag_235:\n                /* \"#utility.yul\":16734:16740   */\n              0x00\n                /* \"#utility.yul\":16767:16818   */\n              tag_418\n                /* \"#utility.yul\":16815:16816   */\n              0x00\n                /* \"#utility.yul\":16811:16817   */\n              not\n                /* \"#utility.yul\":16803:16808   */\n              dup5\n                /* \"#utility.yul\":16800:16801   */\n              0x08\n                /* \"#utility.yul\":16796:16809   */\n              mul\n                /* \"#utility.yul\":16767:16818   */\n              tag_234\n              jump\t// in\n            tag_418:\n                /* \"#utility.yul\":16763:16819   */\n              not\n                /* \"#utility.yul\":16848:16852   */\n              dup1\n                /* \"#utility.yul\":16842:16846   */\n              dup4\n                /* \"#utility.yul\":16838:16853   */\n              and\n                /* \"#utility.yul\":16828:16853   */\n              swap2\n              pop\n                /* \"#utility.yul\":16741:16859   */\n              pop\n                /* \"#utility.yul\":16690:16859   */\n              swap3\n              swap2\n              pop\n              pop\n              jump\t// out\n                /* \"#utility.yul\":16864:17159   */\n            tag_236:\n                /* \"#utility.yul\":16940:16944   */\n              0x00\n                /* \"#utility.yul\":17086:17115   */\n              tag_420\n                /* \"#utility.yul\":17111:17114   */\n              dup4\n                /* \"#utility.yul\":17105:17109   */\n              dup4\n                /* \"#utility.yul\":17086:17115   */\n              tag_235\n              jump\t// in\n            tag_420:\n                /* \"#utility.yul\":17078:17115   */\n              swap2\n              pop\n                /* \"#utility.yul\":17148:17151   */\n              dup3\n                /* \"#utility.yul\":17145:17146   */\n              0x02\n                /* \"#utility.yul\":17141:17152   */\n              mul\n                /* \"#utility.yul\":17135:17139   */\n              dup3\n                /* \"#utility.yul\":17132:17153   */\n              or\n                /* \"#utility.yul\":17124:17153   */\n              swap1\n              pop\n                /* \"#utility.yul\":16864:17159   */\n              swap3\n              swap2\n              pop\n              pop\n              jump\t// out\n                /* \"#utility.yul\":17164:18559   */\n            tag_153:\n                /* \"#utility.yul\":17281:17318   */\n              tag_422\n                /* \"#utility.yul\":17314:17317   */\n              dup3\n                /* \"#utility.yul\":17281:17318   */\n              tag_195\n              jump\t// in\n            tag_422:\n                /* \"#utility.yul\":17383:17401   */\n              0xffffffffffffffff\n                /* \"#utility.yul\":17375:17381   */\n              dup2\n                /* \"#utility.yul\":17372:17402   */\n              gt\n                /* \"#utility.yul\":17369:17425   */\n              iszero\n              tag_423\n              jumpi\n                /* \"#utility.yul\":17405:17423   */\n              tag_424\n              tag_204\n              jump\t// in\n            tag_424:\n                /* \"#utility.yul\":17369:17425   */\n            tag_423:\n                /* \"#utility.yul\":17449:17487   */\n              tag_425\n                /* \"#utility.yul\":17481:17485   */\n              dup3\n                /* \"#utility.yul\":17475:17486   */\n              sload\n                /* \"#utility.yul\":17449:17487   */\n              tag_120\n              jump\t// in\n            tag_425:\n                /* \"#utility.yul\":17534:17601   */\n              tag_426\n                /* \"#utility.yul\":17594:17600   */\n              dup3\n                /* \"#utility.yul\":17586:17592   */\n              dup3\n                /* \"#utility.yul\":17580:17584   */\n              dup6\n                /* \"#utility.yul\":17534:17601   */\n              tag_233\n              jump\t// in\n            tag_426:\n                /* \"#utility.yul\":17628:17629   */\n              0x00\n                /* \"#utility.yul\":17652:17656   */\n              0x20\n                /* \"#utility.yul\":17639:17656   */\n              swap1\n              pop\n                /* \"#utility.yul\":17684:17686   */\n              0x1f\n                /* \"#utility.yul\":17676:17682   */\n              dup4\n                /* \"#utility.yul\":17673:17687   */\n              gt\n                /* \"#utility.yul\":17701:17702   */\n              0x01\n                /* \"#utility.yul\":17696:18314   */\n              dup2\n              eq\n              tag_428\n              jumpi\n                /* \"#utility.yul\":18358:18359   */\n              0x00\n                /* \"#utility.yul\":18375:18381   */\n              dup5\n                /* \"#utility.yul\":18372:18449   */\n              iszero\n              tag_429\n              jumpi\n                /* \"#utility.yul\":18424:18433   */\n              dup3\n                /* \"#utility.yul\":18419:18422   */\n              dup8\n                /* \"#utility.yul\":18415:18434   */\n              add\n                /* \"#utility.yul\":18409:18435   */\n              mload\n                /* \"#utility.yul\":18400:18435   */\n              swap1\n              pop\n                /* \"#utility.yul\":18372:18449   */\n            tag_429:\n                /* \"#utility.yul\":18475:18542   */\n              tag_430\n                /* \"#utility.yul\":18535:18541   */\n              dup6\n                /* \"#utility.yul\":18528:18533   */\n              dup3\n                /* \"#utility.yul\":18475:18542   */\n              tag_236\n              jump\t// in\n            tag_430:\n                /* \"#utility.yul\":18469:18473   */\n              dup7\n                /* \"#utility.yul\":18462:18543   */\n              sstore\n                /* \"#utility.yul\":18331:18553   */\n              pop\n                /* \"#utility.yul\":17666:18553   */\n              jump(tag_427)\n                /* \"#utility.yul\":17696:18314   */\n            tag_428:\n                /* \"#utility.yul\":17748:17752   */\n              0x1f\n                /* \"#utility.yul\":17744:17753   */\n              not\n                /* \"#utility.yul\":17736:17742   */\n              dup5\n                /* \"#utility.yul\":17732:17754   */\n              and\n                /* \"#utility.yul\":17782:17819   */\n              tag_431\n                /* \"#utility.yul\":17814:17818   */\n              dup7\n                /* \"#utility.yul\":17782:17819   */\n              tag_222\n              jump\t// in\n            tag_431:\n                /* \"#utility.yul\":17841:17842   */\n              0x00\n                /* \"#utility.yul\":17855:18063   */\n            tag_432:\n                /* \"#utility.yul\":17869:17876   */\n              dup3\n                /* \"#utility.yul\":17866:17867   */\n              dup2\n                /* \"#utility.yul\":17863:17877   */\n              lt\n                /* \"#utility.yul\":17855:18063   */\n              iszero\n              tag_434\n              jumpi\n                /* \"#utility.yul\":17948:17957   */\n              dup5\n                /* \"#utility.yul\":17943:17946   */\n              dup10\n                /* \"#utility.yul\":17939:17958   */\n              add\n                /* \"#utility.yul\":17933:17959   */\n              mload\n                /* \"#utility.yul\":17925:17931   */\n              dup3\n                /* \"#utility.yul\":17918:17960   */\n              sstore\n                /* \"#utility.yul\":17999:18000   */\n              0x01\n                /* \"#utility.yul\":17991:17997   */\n              dup3\n                /* \"#utility.yul\":17987:18001   */\n              add\n                /* \"#utility.yul\":17977:18001   */\n              swap2\n              pop\n                /* \"#utility.yul\":18046:18048   */\n              0x20\n                /* \"#utility.yul\":18035:18044   */\n              dup6\n                /* \"#utility.yul\":18031:18049   */\n              add\n                /* \"#utility.yul\":18018:18049   */\n              swap5\n              pop\n                /* \"#utility.yul\":17892:17896   */\n              0x20\n                /* \"#utility.yul\":17889:17890   */\n              dup2\n                /* \"#utility.yul\":17885:17897   */\n              add\n                /* \"#utility.yul\":17880:17897   */\n              swap1\n              pop\n                /* \"#utility.yul\":17855:18063   */\n              jump(tag_432)\n            tag_434:\n                /* \"#utility.yul\":18091:18097   */\n              dup7\n                /* \"#utility.yul\":18082:18089   */\n              dup4\n                /* \"#utility.yul\":18079:18098   */\n              lt\n                /* \"#utility.yul\":18076:18255   */\n              iszero\n              tag_435\n              jumpi\n                /* \"#utility.yul\":18149:18158   */\n              dup5\n                /* \"#utility.yul\":18144:18147   */\n              dup10\n                /* \"#utility.yul\":18140:18159   */\n              add\n                /* \"#utility.yul\":18134:18160   */\n              mload\n                /* \"#utility.yul\":18192:18240   */\n              tag_436\n                /* \"#utility.yul\":18234:18238   */\n              0x1f\n                /* \"#utility.yul\":18226:18232   */\n              dup10\n                /* \"#utility.yul\":18222:18239   */\n              and\n                /* \"#utility.yul\":18211:18220   */\n              dup3\n                /* \"#utility.yul\":18192:18240   */\n              tag_235\n              jump\t// in\n            tag_436:\n                /* \"#utility.yul\":18184:18190   */\n              dup4\n                /* \"#utility.yul\":18177:18241   */\n              sstore\n                /* \"#utility.yul\":18099:18255   */\n              pop\n                /* \"#utility.yul\":18076:18255   */\n            tag_435:\n                /* \"#utility.yul\":18301:18302   */\n              0x01\n                /* \"#utility.yul\":18297:18298   */\n              0x02\n                /* \"#utility.yul\":18289:18295   */\n              dup9\n                /* \"#utility.yul\":18285:18299   */\n              mul\n                /* \"#utility.yul\":18281:18303   */\n              add\n                /* \"#utility.yul\":18275:18279   */\n              dup9\n                /* \"#utility.yul\":18268:18304   */\n              sstore\n                /* \"#utility.yul\":17703:18314   */\n              pop\n              pop\n              pop\n                /* \"#utility.yul\":17666:18553   */\n            tag_427:\n              pop\n                /* \"#utility.yul\":17256:18559   */\n              pop\n              pop\n              pop\n                /* \"#utility.yul\":17164:18559   */\n              pop\n              pop\n              jump\t// out\n                /* \"#utility.yul\":18565:18798   */\n            tag_168:\n                /* \"#utility.yul\":18604:18607   */\n              0x00\n                /* \"#utility.yul\":18627:18651   */\n              tag_438\n                /* \"#utility.yul\":18645:18650   */\n              dup3\n                /* \"#utility.yul\":18627:18651   */\n              tag_184\n              jump\t// in\n            tag_438:\n                /* \"#utility.yul\":18618:18651   */\n              swap2\n              pop\n                /* \"#utility.yul\":18673:18739   */\n              0xffffffffffffffffffffffffffffffffffffffffffffffffffffffffffffffff\n                /* \"#utility.yul\":18666:18671   */\n              dup3\n                /* \"#utility.yul\":18663:18740   */\n              sub\n                /* \"#utility.yul\":18660:18763   */\n              tag_439\n              jumpi\n                /* \"#utility.yul\":18743:18761   */\n              tag_440\n              tag_216\n              jump\t// in\n            tag_440:\n                /* \"#utility.yul\":18660:18763   */\n            tag_439:\n                /* \"#utility.yul\":18790:18791   */\n              0x01\n                /* \"#utility.yul\":18783:18788   */\n              dup3\n                /* \"#utility.yul\":18779:18792   */\n              add\n                /* \"#utility.yul\":18772:18792   */\n              swap1\n              pop\n                /* \"#utility.yul\":18565:18798   */\n              swap2\n              swap1\n              pop\n              jump\t// out\n                /* \"#utility.yul\":18804:18978   */\n            tag_237:\n                /* \"#utility.yul\":18944:18970   */\n              0x596f752068617665206e6f7420636f6e74726962757465640000000000000000\n                /* \"#utility.yul\":18940:18941   */\n              0x00\n                /* \"#utility.yul\":18932:18938   */\n              dup3\n                /* \"#utility.yul\":18928:18942   */\n              add\n                /* \"#utility.yul\":18921:18971   */\n              mstore\n                /* \"#utility.yul\":18804:18978   */\n              pop\n              jump\t// out\n                /* \"#utility.yul\":18984:19350   */\n            tag_238:\n                /* \"#utility.yul\":19126:19129   */\n              0x00\n                /* \"#utility.yul\":19147:19214   */\n              tag_443\n                /* \"#utility.yul\":19211:19213   */\n              0x18\n                /* \"#utility.yul\":19206:19209   */\n              dup4\n                /* \"#utility.yul\":19147:19214   */\n              tag_196\n              jump\t// in\n            tag_443:\n                /* \"#utility.yul\":19140:19214   */\n              swap2\n              pop\n                /* \"#utility.yul\":19223:19316   */\n              tag_444\n                /* \"#utility.yul\":19312:19315   */\n              dup3\n                /* \"#utility.yul\":19223:19316   */\n              tag_237\n              jump\t// in\n            tag_444:\n                /* \"#utility.yul\":19341:19343   */\n              0x20\n                /* \"#utility.yul\":19336:19339   */\n              dup3\n                /* \"#utility.yul\":19332:19344   */\n              add\n                /* \"#utility.yul\":19325:19344   */\n              swap1\n              pop\n                /* \"#utility.yul\":18984:19350   */\n              swap2\n              swap1\n              pop\n              jump\t// out\n                /* \"#utility.yul\":19356:19775   */\n            tag_175:\n                /* \"#utility.yul\":19522:19526   */\n              0x00\n                /* \"#utility.yul\":19560:19562   */\n              0x20\n                /* \"#utility.yul\":19549:19558   */\n              dup3\n                /* \"#utility.yul\":19545:19563   */\n              add\n                /* \"#utility.yul\":19537:19563   */\n              swap1\n              pop\n                /* \"#utility.yul\":19609:19618   */\n              dup2\n                /* \"#utility.yul\":19603:19607   */\n              dup2\n                /* \"#utility.yul\":19599:19619   */\n              sub\n                /* \"#utility.yul\":19595:19596   */\n              0x00\n                /* \"#utility.yul\":19584:19593   */\n              dup4\n                /* \"#utility.yul\":19580:19597   */\n              add\n                /* \"#utility.yul\":19573:19620   */\n              mstore\n                /* \"#utility.yul\":19637:19768   */\n              tag_446\n                /* \"#utility.yul\":19763:19767   */\n              dup2\n                /* \"#utility.yul\":19637:19768   */\n              tag_238\n              jump\t// in\n            tag_446:\n                /* \"#utility.yul\":19629:19768   */\n              swap1\n              pop\n                /* \"#utility.yul\":19356:19775   */\n              swap2\n              swap1\n              pop\n              jump\t// out\n                /* \"#utility.yul\":19781:19951   */\n            tag_239:\n                /* \"#utility.yul\":19921:19943   */\n              0x596f7527766520616c726561647920766f746564000000000000000000000000\n                /* \"#utility.yul\":19917:19918   */\n              0x00\n                /* \"#utility.yul\":19909:19915   */\n              dup3\n                /* \"#utility.yul\":19905:19919   */\n              add\n                /* \"#utility.yul\":19898:19944   */\n              mstore\n                /* \"#utility.yul\":19781:19951   */\n              pop\n              jump\t// out\n                /* \"#utility.yul\":19957:20323   */\n            tag_240:\n                /* \"#utility.yul\":20099:20102   */\n              0x00\n                /* \"#utility.yul\":20120:20187   */\n              tag_449\n                /* \"#utility.yul\":20184:20186   */\n              0x14\n                /* \"#utility.yul\":20179:20182   */\n              dup4\n                /* \"#utility.yul\":20120:20187   */\n              tag_196\n              jump\t// in\n            tag_449:\n                /* \"#utility.yul\":20113:20187   */\n              swap2\n              pop\n                /* \"#utility.yul\":20196:20289   */\n              tag_450\n                /* \"#utility.yul\":20285:20288   */\n              dup3\n                /* \"#utility.yul\":20196:20289   */\n              tag_239\n              jump\t// in\n            tag_450:\n                /* \"#utility.yul\":20314:20316   */\n              0x20\n                /* \"#utility.yul\":20309:20312   */\n              dup3\n                /* \"#utility.yul\":20305:20317   */\n              add\n                /* \"#utility.yul\":20298:20317   */\n              swap1\n              pop\n                /* \"#utility.yul\":19957:20323   */\n              swap2\n              swap1\n              pop\n              jump\t// out\n                /* \"#utility.yul\":20329:20748   */\n            tag_178:\n                /* \"#utility.yul\":20495:20499   */\n              0x00\n                /* \"#utility.yul\":20533:20535   */\n              0x20\n                /* \"#utility.yul\":20522:20531   */\n              dup3\n                /* \"#utility.yul\":20518:20536   */\n              add\n                /* \"#utility.yul\":20510:20536   */\n              swap1\n              pop\n                /* \"#utility.yul\":20582:20591   */\n              dup2\n                /* \"#utility.yul\":20576:20580   */\n              dup2\n                /* \"#utility.yul\":20572:20592   */\n              sub\n                /* \"#utility.yul\":20568:20569   */\n              0x00\n                /* \"#utility.yul\":20557:20566   */\n              dup4\n                /* \"#utility.yul\":20553:20570   */\n              add\n                /* \"#utility.yul\":20546:20593   */\n              mstore\n                /* \"#utility.yul\":20610:20741   */\n              tag_452\n                /* \"#utility.yul\":20736:20740   */\n              dup2\n                /* \"#utility.yul\":20610:20741   */\n              tag_240\n              jump\t// in\n            tag_452:\n                /* \"#utility.yul\":20602:20741   */\n              swap1\n              pop\n                /* \"#utility.yul\":20329:20748   */\n              swap2\n              swap1\n              pop\n              jump\t// out\n\n            auxdata: 0xa2646970667358221220e539318affb9b328e48699890490e325a9a6714b8f2ab228127b209bbaea147364736f6c634300080f0033\n        }\n    }\n\n    auxdata: 0xa2646970667358221220bddf95c8be458c33a60b8c95a42c840138cb0a372ab784d0bccca08ba970a08c64736f6c634300080f0033\n}\n","bytecode":{"linkReferences":{},"object":"608060405234801561001057600080fd5b506128c8806100206000396000f3fe60806040523480156200001157600080fd5b5060043610620000465760003560e01c8063339d50a5146200004b578063cd7b73291462000081578063d4ddd71a14620000a3575b600080fd5b620000696004803603810190620000639190620002a2565b620000c3565b60405162000078919062000319565b60405180910390f35b6200008b62000103565b6040516200009a919062000404565b60405180910390f35b620000c16004803603810190620000bb91906200058a565b62000193565b005b60008181548110620000d457600080fd5b906000526020600020016000915054906101000a900473ffffffffffffffffffffffffffffffffffffffff1681565b606060008054806020026020016040519081016040528092919081815260200182805480156200018957602002820191906000526020600020905b8160009054906101000a900473ffffffffffffffffffffffffffffffffffffffff1673ffffffffffffffffffffffffffffffffffffffff16815260200190600101908083116200013e575b5050505050905090565b6000853386868686604051620001a99062000245565b620001ba9695949392919062000713565b604051809103906000f080158015620001d7573d6000803e3d6000fd5b5090506000819080600181540180825580915050600190039060005260206000200160009091909190916101000a81548173ffffffffffffffffffffffffffffffffffffffff021916908373ffffffffffffffffffffffffffffffffffffffff160217905550505050505050565b6120fd806200079683390190565b6000604051905090565b600080fd5b600080fd5b6000819050919050565b6200027c8162000267565b81146200028857600080fd5b50565b6000813590506200029c8162000271565b92915050565b600060208284031215620002bb57620002ba6200025d565b5b6000620002cb848285016200028b565b91505092915050565b600073ffffffffffffffffffffffffffffffffffffffff82169050919050565b60006200030182620002d4565b9050919050565b6200031381620002f4565b82525050565b600060208201905062000330600083018462000308565b92915050565b600081519050919050565b600082825260208201905092915050565b6000819050602082019050919050565b6200036d81620002f4565b82525050565b600062000381838362000362565b60208301905092915050565b6000602082019050919050565b6000620003a78262000336565b620003b3818562000341565b9350620003c08362000352565b8060005b83811015620003f7578151620003db888262000373565b9750620003e8836200038d565b925050600181019050620003c4565b5085935050505092915050565b600060208201905081810360008301526200042081846200039a565b905092915050565b600080fd5b600080fd5b6000601f19601f8301169050919050565b7f4e487b7100000000000000000000000000000000000000000000000000000000600052604160045260246000fd5b6200047d8262000432565b810181811067ffffffffffffffff821117156200049f576200049e62000443565b5b80604052505050565b6000620004b462000253565b9050620004c2828262000472565b919050565b600067ffffffffffffffff821115620004e557620004e462000443565b5b620004f08262000432565b9050602081019050919050565b82818337600083830152505050565b6000620005236200051d84620004c7565b620004a8565b9050828152602081018484840111156200054257620005416200042d565b5b6200054f848285620004fd565b509392505050565b600082601f8301126200056f576200056e62000428565b5b8135620005818482602086016200050c565b91505092915050565b600080600080600060a08688031215620005a957620005a86200025d565b5b6000620005b9888289016200028b565b955050602086013567ffffffffffffffff811115620005dd57620005dc62000262565b5b620005eb8882890162000557565b945050604086013567ffffffffffffffff8111156200060f576200060e62000262565b5b6200061d8882890162000557565b935050606086013567ffffffffffffffff81111562000641576200064062000262565b5b6200064f8882890162000557565b925050608062000662888289016200028b565b9150509295509295909350565b6200067a8162000267565b82525050565b600081519050919050565b600082825260208201905092915050565b60005b83811015620006bc5780820151818401526020810190506200069f565b83811115620006cc576000848401525b50505050565b6000620006df8262000680565b620006eb81856200068b565b9350620006fd8185602086016200069c565b620007088162000432565b840191505092915050565b600060c0820190506200072a60008301896200066f565b62000739602083018862000308565b81810360408301526200074d8187620006d2565b90508181036060830152620007638186620006d2565b90508181036080830152620007798185620006d2565b90506200078a60a08301846200066f565b97965050505050505056fe60806040523480156200001157600080fd5b50604051620020fd380380620020fd833981810160405281019062000037919062000305565b84600160006101000a81548173ffffffffffffffffffffffffffffffffffffffff021916908373ffffffffffffffffffffffffffffffffffffffff1602179055508560078190555083600390816200009091906200063f565b508260049081620000a291906200063f565b508160059081620000b491906200063f565b508060068190555050505050505062000726565b6000604051905090565b600080fd5b600080fd5b6000819050919050565b620000f181620000dc565b8114620000fd57600080fd5b50565b6000815190506200011181620000e6565b92915050565b600073ffffffffffffffffffffffffffffffffffffffff82169050919050565b6000620001448262000117565b9050919050565b620001568162000137565b81146200016257600080fd5b50565b60008151905062000176816200014b565b92915050565b600080fd5b600080fd5b6000601f19601f8301169050919050565b7f4e487b7100000000000000000000000000000000000000000000000000000000600052604160045260246000fd5b620001d18262000186565b810181811067ffffffffffffffff82111715620001f357620001f262000197565b5b80604052505050565b600062000208620000c8565b9050620002168282620001c6565b919050565b600067ffffffffffffffff82111562000239576200023862000197565b5b620002448262000186565b9050602081019050919050565b60005b838110156200027157808201518184015260208101905062000254565b8381111562000281576000848401525b50505050565b60006200029e62000298846200021b565b620001fc565b905082815260208101848484011115620002bd57620002bc62000181565b5b620002ca84828562000251565b509392505050565b600082601f830112620002ea57620002e96200017c565b5b8151620002fc84826020860162000287565b91505092915050565b60008060008060008060c08789031215620003255762000324620000d2565b5b60006200033589828a0162000100565b96505060206200034889828a0162000165565b955050604087015167ffffffffffffffff8111156200036c576200036b620000d7565b5b6200037a89828a01620002d2565b945050606087015167ffffffffffffffff8111156200039e576200039d620000d7565b5b620003ac89828a01620002d2565b935050608087015167ffffffffffffffff811115620003d057620003cf620000d7565b5b620003de89828a01620002d2565b92505060a0620003f189828a0162000100565b9150509295509295509295565b600081519050919050565b7f4e487b7100000000000000000000000000000000000000000000000000000000600052602260045260246000fd5b600060028204905060018216806200045157607f821691505b60208210810362000467576200046662000409565b5b50919050565b60008190508160005260206000209050919050565b60006020601f8301049050919050565b600082821b905092915050565b600060088302620004d17fffffffffffffffffffffffffffffffffffffffffffffffffffffffffffffffff8262000492565b620004dd868362000492565b95508019841693508086168417925050509392505050565b6000819050919050565b6000620005206200051a6200051484620000dc565b620004f5565b620000dc565b9050919050565b6000819050919050565b6200053c83620004ff565b620005546200054b8262000527565b8484546200049f565b825550505050565b600090565b6200056b6200055c565b6200057881848462000531565b505050565b5b81811015620005a0576200059460008262000561565b6001810190506200057e565b5050565b601f821115620005ef57620005b9816200046d565b620005c48462000482565b81016020851015620005d4578190505b620005ec620005e38562000482565b8301826200057d565b50505b505050565b600082821c905092915050565b60006200061460001984600802620005f4565b1980831691505092915050565b60006200062f838362000601565b9150826002028217905092915050565b6200064a82620003fe565b67ffffffffffffffff81111562000666576200066562000197565b5b62000672825462000438565b6200067f828285620005a4565b600060209050601f831160018114620006b75760008415620006a2578287015190505b620006ae858262000621565b8655506200071e565b601f198416620006c7866200046d565b60005b82811015620006f157848901518255600182019150602085019450602081019050620006ca565b868310156200071157848901516200070d601f89168262000601565b8355505b6001600288020188555050505b505050505050565b6119c780620007366000396000f3fe6080604052600436106100fe5760003560e01c80638a9cfd5511610095578063aaffadf311610064578063aaffadf314610326578063aba8315014610351578063d7bb99ba1461037c578063d7d1bbdb14610386578063e850cbc8146103af576100fe565b80638a9cfd551461027c5780638b7afe2e146102a55780638b85165d146102d057806397654a8c146102fb576100fe565b80634051ddac116100d15780634051ddac146101b2578063481c6a75146101e55780637e7cd1b31461021057806381d12c581461023b576100fe565b806303441006146101035780630a1443911461011f578063128e9be61461015c5780633410452a14610187575b600080fd5b61011d60048036038101906101189190610ea7565b6103d8565b005b34801561012b57600080fd5b5061014660048036038101906101419190610f32565b6105c3565b6040516101539190610f7a565b60405180910390f35b34801561016857600080fd5b506101716105e3565b60405161017e9190610fa4565b60405180910390f35b34801561019357600080fd5b5061019c6105e9565b6040516101a99190610fa4565b60405180910390f35b3480156101be57600080fd5b506101c76105f5565b6040516101dc99989796959493929190611067565b60405180910390f35b3480156101f157600080fd5b506101fa6107fe565b6040516102079190611109565b60405180910390f35b34801561021c57600080fd5b50610225610824565b6040516102329190611124565b60405180910390f35b34801561024757600080fd5b50610262600480360381019061025d9190610ea7565b6108b2565b604051610273959493929190611167565b60405180910390f35b34801561028857600080fd5b506102a3600480360381019061029e9190611322565b6109ad565b005b3480156102b157600080fd5b506102ba610aeb565b6040516102c79190610fa4565b60405180910390f35b3480156102dc57600080fd5b506102e5610af3565b6040516102f29190610fa4565b60405180910390f35b34801561030757600080fd5b50610310610af9565b60405161031d9190611124565b60405180910390f35b34801561033257600080fd5b5061033b610b87565b6040516103489190610fa4565b60405180910390f35b34801561035d57600080fd5b50610366610b8d565b6040516103739190611124565b60405180910390f35b610384610c1b565b005b34801561039257600080fd5b506103ad60048036038101906103a89190610ea7565b610c9b565b005b3480156103bb57600080fd5b506103d660048036038101906103d19190610ea7565b610e53565b005b600160009054906101000a900473ffffffffffffffffffffffffffffffffffffffff1673ffffffffffffffffffffffffffffffffffffffff163373ffffffffffffffffffffffffffffffffffffffff1614610468576040517f08c379a000000000000000000000000000000000000000000000000000000000815260040161045f906113dd565b60405180910390fd5b600080828154811061047d5761047c6113fd565b5b90600052602060002090600502019050600260085461049c919061148a565b8160030154116104e1576040517f08c379a00000000000000000000000000000000000000000000000000000000081526004016104d890611507565b60405180910390fd5b8060020160149054906101000a900460ff1615610533576040517f08c379a000000000000000000000000000000000000000000000000000000000815260040161052a90611573565b60405180910390fd5b8060020160009054906101000a900473ffffffffffffffffffffffffffffffffffffffff1673ffffffffffffffffffffffffffffffffffffffff166108fc82600101549081150290604051600060405180830381858888f193505050501580156105a1573d6000803e3d6000fd5b5060018160020160146101000a81548160ff0219169083151502179055505050565b60026020528060005260406000206000915054906101000a900460ff1681565b60085481565b60008080549050905090565b60008060008060006060806060600060075447600080549050600854600160009054906101000a900473ffffffffffffffffffffffffffffffffffffffff16600360046005600654838054610649906115c2565b80601f0160208091040260200160405190810160405280929190818152602001828054610675906115c2565b80156106c25780601f10610697576101008083540402835291602001916106c2565b820191906000526020600020905b8154815290600101906020018083116106a557829003601f168201915b505050505093508280546106d5906115c2565b80601f0160208091040260200160405190810160405280929190818152602001828054610701906115c2565b801561074e5780601f106107235761010080835404028352916020019161074e565b820191906000526020600020905b81548152906001019060200180831161073157829003601f168201915b50505050509250818054610761906115c2565b80601f016020809104026020016040519081016040528092919081815260200182805461078d906115c2565b80156107da5780601f106107af576101008083540402835291602001916107da565b820191906000526020600020905b8154815290600101906020018083116107bd57829003601f168201915b50505050509150985098509850985098509850985098509850909192939495969798565b600160009054906101000a900473ffffffffffffffffffffffffffffffffffffffff1681565b60038054610831906115c2565b80601f016020809104026020016040519081016040528092919081815260200182805461085d906115c2565b80156108aa5780601f1061087f576101008083540402835291602001916108aa565b820191906000526020600020905b81548152906001019060200180831161088d57829003601f168201915b505050505081565b600081815481106108c257600080fd5b90600052602060002090600502016000915090508060000180546108e5906115c2565b80601f0160208091040260200160405190810160405280929190818152602001828054610911906115c2565b801561095e5780601f106109335761010080835404028352916020019161095e565b820191906000526020600020905b81548152906001019060200180831161094157829003601f168201915b5050505050908060010154908060020160009054906101000a900473ffffffffffffffffffffffffffffffffffffffff16908060020160149054906101000a900460ff16908060030154905085565b600160009054906101000a900473ffffffffffffffffffffffffffffffffffffffff1673ffffffffffffffffffffffffffffffffffffffff163373ffffffffffffffffffffffffffffffffffffffff1614610a3d576040517f08c379a0000000000000000000000000000000000000000000000000000000008152600401610a34906113dd565b60405180910390fd5b600080600181600181540180825580915050039060005260206000209060050201905083816000019081610a71919061179f565b50828160010181905550818160020160006101000a81548173ffffffffffffffffffffffffffffffffffffffff021916908373ffffffffffffffffffffffffffffffffffffffff16021790555060008160020160146101000a81548160ff0219169083151502179055506000816003018190555050505050565b600047905090565b60065481565b60048054610b06906115c2565b80601f0160208091040260200160405190810160405280929190818152602001828054610b32906115c2565b8015610b7f5780601f10610b5457610100808354040283529160200191610b7f565b820191906000526020600020905b815481529060010190602001808311610b6257829003601f168201915b505050505081565b60075481565b60058054610b9a906115c2565b80601f0160208091040260200160405190810160405280929190818152602001828054610bc6906115c2565b8015610c135780601f10610be857610100808354040283529160200191610c13565b820191906000526020600020905b815481529060010190602001808311610bf657829003601f168201915b505050505081565b6007543411610c2957600080fd5b6001600260003373ffffffffffffffffffffffffffffffffffffffff1673ffffffffffffffffffffffffffffffffffffffff16815260200190815260200160002060006101000a81548160ff02191690831515021790555060086000815480929190610c9490611871565b9190505550565b6000808281548110610cb057610caf6113fd565b5b90600052602060002090600502019050600260003373ffffffffffffffffffffffffffffffffffffffff1673ffffffffffffffffffffffffffffffffffffffff16815260200190815260200160002060009054906101000a900460ff16610d4c576040517f08c379a0000000000000000000000000000000000000000000000000000000008152600401610d4390611905565b60405180910390fd5b8060040160003373ffffffffffffffffffffffffffffffffffffffff1673ffffffffffffffffffffffffffffffffffffffff16815260200190815260200160002060009054906101000a900460ff1615610ddb576040517f08c379a0000000000000000000000000000000000000000000000000000000008152600401610dd290611971565b60405180910390fd5b60018160040160003373ffffffffffffffffffffffffffffffffffffffff1673ffffffffffffffffffffffffffffffffffffffff16815260200190815260200160002060006101000a81548160ff021916908315150217905550806003016000815480929190610e4a90611871565b91905055505050565b8060078190555050565b6000604051905090565b600080fd5b600080fd5b6000819050919050565b610e8481610e71565b8114610e8f57600080fd5b50565b600081359050610ea181610e7b565b92915050565b600060208284031215610ebd57610ebc610e67565b5b6000610ecb84828501610e92565b91505092915050565b600073ffffffffffffffffffffffffffffffffffffffff82169050919050565b6000610eff82610ed4565b9050919050565b610f0f81610ef4565b8114610f1a57600080fd5b50565b600081359050610f2c81610f06565b92915050565b600060208284031215610f4857610f47610e67565b5b6000610f5684828501610f1d565b91505092915050565b60008115159050919050565b610f7481610f5f565b82525050565b6000602082019050610f8f6000830184610f6b565b92915050565b610f9e81610e71565b82525050565b6000602082019050610fb96000830184610f95565b92915050565b610fc881610ef4565b82525050565b600081519050919050565b600082825260208201905092915050565b60005b83811015611008578082015181840152602081019050610fed565b83811115611017576000848401525b50505050565b6000601f19601f8301169050919050565b600061103982610fce565b6110438185610fd9565b9350611053818560208601610fea565b61105c8161101d565b840191505092915050565b60006101208201905061107d600083018c610f95565b61108a602083018b610f95565b611097604083018a610f95565b6110a46060830189610f95565b6110b16080830188610fbf565b81810360a08301526110c3818761102e565b905081810360c08301526110d7818661102e565b905081810360e08301526110eb818561102e565b90506110fb610100830184610f95565b9a9950505050505050505050565b600060208201905061111e6000830184610fbf565b92915050565b6000602082019050818103600083015261113e818461102e565b905092915050565b600061115182610ed4565b9050919050565b61116181611146565b82525050565b600060a0820190508181036000830152611181818861102e565b90506111906020830187610f95565b61119d6040830186611158565b6111aa6060830185610f6b565b6111b76080830184610f95565b9695505050505050565b600080fd5b600080fd5b7f4e487b7100000000000000000000000000000000000000000000000000000000600052604160045260246000fd5b6112038261101d565b810181811067ffffffffffffffff82111715611222576112216111cb565b5b80604052505050565b6000611235610e5d565b905061124182826111fa565b919050565b600067ffffffffffffffff821115611261576112606111cb565b5b61126a8261101d565b9050602081019050919050565b82818337600083830152505050565b600061129961129484611246565b61122b565b9050828152602081018484840111156112b5576112b46111c6565b5b6112c0848285611277565b509392505050565b600082601f8301126112dd576112dc6111c1565b5b81356112ed848260208601611286565b91505092915050565b6112ff81611146565b811461130a57600080fd5b50565b60008135905061131c816112f6565b92915050565b60008060006060848603121561133b5761133a610e67565b5b600084013567ffffffffffffffff81111561135957611358610e6c565b5b611365868287016112c8565b935050602061137686828701610e92565b92505060406113878682870161130d565b9150509250925092565b7f596f7520617265206e6f7420746865206d616e61676572000000000000000000600082015250565b60006113c7601783610fd9565b91506113d282611391565b602082019050919050565b600060208201905081810360008301526113f6816113ba565b9050919050565b7f4e487b7100000000000000000000000000000000000000000000000000000000600052603260045260246000fd5b7f4e487b7100000000000000000000000000000000000000000000000000000000600052601260045260246000fd5b7f4e487b7100000000000000000000000000000000000000000000000000000000600052601160045260246000fd5b600061149582610e71565b91506114a083610e71565b9250826114b0576114af61142c565b5b828204905092915050565b7f4e6f20656e6f75676820617070726f7665720000000000000000000000000000600082015250565b60006114f1601283610fd9565b91506114fc826114bb565b602082019050919050565b60006020820190508181036000830152611520816114e4565b9050919050565b7f416c726561647920636f6d706c65746564000000000000000000000000000000600082015250565b600061155d601183610fd9565b915061156882611527565b602082019050919050565b6000602082019050818103600083015261158c81611550565b9050919050565b7f4e487b7100000000000000000000000000000000000000000000000000000000600052602260045260246000fd5b600060028204905060018216806115da57607f821691505b6020821081036115ed576115ec611593565b5b50919050565b60008190508160005260206000209050919050565b60006020601f8301049050919050565b600082821b905092915050565b6000600883026116557fffffffffffffffffffffffffffffffffffffffffffffffffffffffffffffffff82611618565b61165f8683611618565b95508019841693508086168417925050509392505050565b6000819050919050565b600061169c61169761169284610e71565b611677565b610e71565b9050919050565b6000819050919050565b6116b683611681565b6116ca6116c2826116a3565b848454611625565b825550505050565b600090565b6116df6116d2565b6116ea8184846116ad565b505050565b5b8181101561170e576117036000826116d7565b6001810190506116f0565b5050565b601f82111561175357611724816115f3565b61172d84611608565b8101602085101561173c578190505b61175061174885611608565b8301826116ef565b50505b505050565b600082821c905092915050565b600061177660001984600802611758565b1980831691505092915050565b600061178f8383611765565b9150826002028217905092915050565b6117a882610fce565b67ffffffffffffffff8111156117c1576117c06111cb565b5b6117cb82546115c2565b6117d6828285611712565b600060209050601f83116001811461180957600084156117f7578287015190505b6118018582611783565b865550611869565b601f198416611817866115f3565b60005b8281101561183f5784890151825560018201915060208501945060208101905061181a565b8683101561185c5784890151611858601f891682611765565b8355505b6001600288020188555050505b505050505050565b600061187c82610e71565b91507fffffffffffffffffffffffffffffffffffffffffffffffffffffffffffffffff82036118ae576118ad61145b565b5b600182019050919050565b7f596f752068617665206e6f7420636f6e74726962757465640000000000000000600082015250565b60006118ef601883610fd9565b91506118fa826118b9565b602082019050919050565b6000602082019050818103600083015261191e816118e2565b9050919050565b7f596f7527766520616c726561647920766f746564000000000000000000000000600082015250565b600061195b601483610fd9565b915061196682611925565b602082019050919050565b6000602082019050818103600083015261198a8161194e565b905091905056fea2646970667358221220e539318affb9b328e48699890490e325a9a6714b8f2ab228127b209bbaea147364736f6c634300080f0033a2646970667358221220bddf95c8be458c33a60b8c95a42c840138cb0a372ab784d0bccca08ba970a08c64736f6c634300080f0033","opcodes":"PUSH1 0x80 PUSH1 0x40 MSTORE CALLVALUE DUP1 ISZERO PUSH2 0x10 JUMPI PUSH1 0x0 DUP1 REVERT JUMPDEST POP PUSH2 0x28C8 DUP1 PUSH2 0x20 PUSH1 0x0 CODECOPY PUSH1 0x0 RETURN INVALID PUSH1 0x80 PUSH1 0x40 MSTORE CALLVALUE DUP1 ISZERO PUSH3 0x11 JUMPI PUSH1 0x0 DUP1 REVERT JUMPDEST POP PUSH1 0x4 CALLDATASIZE LT PUSH3 0x46 JUMPI PUSH1 0x0 CALLDATALOAD PUSH1 0xE0 SHR DUP1 PUSH4 0x339D50A5 EQ PUSH3 0x4B JUMPI DUP1 PUSH4 0xCD7B7329 EQ PUSH3 0x81 JUMPI DUP1 PUSH4 0xD4DDD71A EQ PUSH3 0xA3 JUMPI JUMPDEST PUSH1 0x0 DUP1 REVERT JUMPDEST PUSH3 0x69 PUSH1 0x4 DUP1 CALLDATASIZE SUB DUP2 ADD SWAP1 PUSH3 0x63 SWAP2 SWAP1 PUSH3 0x2A2 JUMP JUMPDEST PUSH3 0xC3 JUMP JUMPDEST PUSH1 0x40 MLOAD PUSH3 0x78 SWAP2 SWAP1 PUSH3 0x319 JUMP JUMPDEST PUSH1 0x40 MLOAD DUP1 SWAP2 SUB SWAP1 RETURN JUMPDEST PUSH3 0x8B PUSH3 0x103 JUMP JUMPDEST PUSH1 0x40 MLOAD PUSH3 0x9A SWAP2 SWAP1 PUSH3 0x404 JUMP JUMPDEST PUSH1 0x40 MLOAD DUP1 SWAP2 SUB SWAP1 RETURN JUMPDEST PUSH3 0xC1 PUSH1 0x4 DUP1 CALLDATASIZE SUB DUP2 ADD SWAP1 PUSH3 0xBB SWAP2 SWAP1 PUSH3 0x58A JUMP JUMPDEST PUSH3 0x193 JUMP JUMPDEST STOP JUMPDEST PUSH1 0x0 DUP2 DUP2 SLOAD DUP2 LT PUSH3 0xD4 JUMPI PUSH1 0x0 DUP1 REVERT JUMPDEST SWAP1 PUSH1 0x0 MSTORE PUSH1 0x20 PUSH1 0x0 KECCAK256 ADD PUSH1 0x0 SWAP2 POP SLOAD SWAP1 PUSH2 0x100 EXP SWAP1 DIV PUSH20 0xFFFFFFFFFFFFFFFFFFFFFFFFFFFFFFFFFFFFFFFF AND DUP2 JUMP JUMPDEST PUSH1 0x60 PUSH1 0x0 DUP1 SLOAD DUP1 PUSH1 0x20 MUL PUSH1 0x20 ADD PUSH1 0x40 MLOAD SWAP1 DUP2 ADD PUSH1 0x40 MSTORE DUP1 SWAP3 SWAP2 SWAP1 DUP2 DUP2 MSTORE PUSH1 0x20 ADD DUP3 DUP1 SLOAD DUP1 ISZERO PUSH3 0x189 JUMPI PUSH1 0x20 MUL DUP3 ADD SWAP2 SWAP1 PUSH1 0x0 MSTORE PUSH1 0x20 PUSH1 0x0 KECCAK256 SWAP1 JUMPDEST DUP2 PUSH1 0x0 SWAP1 SLOAD SWAP1 PUSH2 0x100 EXP SWAP1 DIV PUSH20 0xFFFFFFFFFFFFFFFFFFFFFFFFFFFFFFFFFFFFFFFF AND PUSH20 0xFFFFFFFFFFFFFFFFFFFFFFFFFFFFFFFFFFFFFFFF AND DUP2 MSTORE PUSH1 0x20 ADD SWAP1 PUSH1 0x1 ADD SWAP1 DUP1 DUP4 GT PUSH3 0x13E JUMPI JUMPDEST POP POP POP POP POP SWAP1 POP SWAP1 JUMP JUMPDEST PUSH1 0x0 DUP6 CALLER DUP7 DUP7 DUP7 DUP7 PUSH1 0x40 MLOAD PUSH3 0x1A9 SWAP1 PUSH3 0x245 JUMP JUMPDEST PUSH3 0x1BA SWAP7 SWAP6 SWAP5 SWAP4 SWAP3 SWAP2 SWAP1 PUSH3 0x713 JUMP JUMPDEST PUSH1 0x40 MLOAD DUP1 SWAP2 SUB SWAP1 PUSH1 0x0 CREATE DUP1 ISZERO DUP1 ISZERO PUSH3 0x1D7 JUMPI RETURNDATASIZE PUSH1 0x0 DUP1 RETURNDATACOPY RETURNDATASIZE PUSH1 0x0 REVERT JUMPDEST POP SWAP1 POP PUSH1 0x0 DUP2 SWAP1 DUP1 PUSH1 0x1 DUP2 SLOAD ADD DUP1 DUP3 SSTORE DUP1 SWAP2 POP POP PUSH1 0x1 SWAP1 SUB SWAP1 PUSH1 0x0 MSTORE PUSH1 0x20 PUSH1 0x0 KECCAK256 ADD PUSH1 0x0 SWAP1 SWAP2 SWAP1 SWAP2 SWAP1 SWAP2 PUSH2 0x100 EXP DUP2 SLOAD DUP2 PUSH20 0xFFFFFFFFFFFFFFFFFFFFFFFFFFFFFFFFFFFFFFFF MUL NOT AND SWAP1 DUP4 PUSH20 0xFFFFFFFFFFFFFFFFFFFFFFFFFFFFFFFFFFFFFFFF AND MUL OR SWAP1 SSTORE POP POP POP POP POP POP POP JUMP JUMPDEST PUSH2 0x20FD DUP1 PUSH3 0x796 DUP4 CODECOPY ADD SWAP1 JUMP JUMPDEST PUSH1 0x0 PUSH1 0x40 MLOAD SWAP1 POP SWAP1 JUMP JUMPDEST PUSH1 0x0 DUP1 REVERT JUMPDEST PUSH1 0x0 DUP1 REVERT JUMPDEST PUSH1 0x0 DUP2 SWAP1 POP SWAP2 SWAP1 POP JUMP JUMPDEST PUSH3 0x27C DUP2 PUSH3 0x267 JUMP JUMPDEST DUP2 EQ PUSH3 0x288 JUMPI PUSH1 0x0 DUP1 REVERT JUMPDEST POP JUMP JUMPDEST PUSH1 0x0 DUP2 CALLDATALOAD SWAP1 POP PUSH3 0x29C DUP2 PUSH3 0x271 JUMP JUMPDEST SWAP3 SWAP2 POP POP JUMP JUMPDEST PUSH1 0x0 PUSH1 0x20 DUP3 DUP5 SUB SLT ISZERO PUSH3 0x2BB JUMPI PUSH3 0x2BA PUSH3 0x25D JUMP JUMPDEST JUMPDEST PUSH1 0x0 PUSH3 0x2CB DUP5 DUP3 DUP6 ADD PUSH3 0x28B JUMP JUMPDEST SWAP2 POP POP SWAP3 SWAP2 POP POP JUMP JUMPDEST PUSH1 0x0 PUSH20 0xFFFFFFFFFFFFFFFFFFFFFFFFFFFFFFFFFFFFFFFF DUP3 AND SWAP1 POP SWAP2 SWAP1 POP JUMP JUMPDEST PUSH1 0x0 PUSH3 0x301 DUP3 PUSH3 0x2D4 JUMP JUMPDEST SWAP1 POP SWAP2 SWAP1 POP JUMP JUMPDEST PUSH3 0x313 DUP2 PUSH3 0x2F4 JUMP JUMPDEST DUP3 MSTORE POP POP JUMP JUMPDEST PUSH1 0x0 PUSH1 0x20 DUP3 ADD SWAP1 POP PUSH3 0x330 PUSH1 0x0 DUP4 ADD DUP5 PUSH3 0x308 JUMP JUMPDEST SWAP3 SWAP2 POP POP JUMP JUMPDEST PUSH1 0x0 DUP2 MLOAD SWAP1 POP SWAP2 SWAP1 POP JUMP JUMPDEST PUSH1 0x0 DUP3 DUP3 MSTORE PUSH1 0x20 DUP3 ADD SWAP1 POP SWAP3 SWAP2 POP POP JUMP JUMPDEST PUSH1 0x0 DUP2 SWAP1 POP PUSH1 0x20 DUP3 ADD SWAP1 POP SWAP2 SWAP1 POP JUMP JUMPDEST PUSH3 0x36D DUP2 PUSH3 0x2F4 JUMP JUMPDEST DUP3 MSTORE POP POP JUMP JUMPDEST PUSH1 0x0 PUSH3 0x381 DUP4 DUP4 PUSH3 0x362 JUMP JUMPDEST PUSH1 0x20 DUP4 ADD SWAP1 POP SWAP3 SWAP2 POP POP JUMP JUMPDEST PUSH1 0x0 PUSH1 0x20 DUP3 ADD SWAP1 POP SWAP2 SWAP1 POP JUMP JUMPDEST PUSH1 0x0 PUSH3 0x3A7 DUP3 PUSH3 0x336 JUMP JUMPDEST PUSH3 0x3B3 DUP2 DUP6 PUSH3 0x341 JUMP JUMPDEST SWAP4 POP PUSH3 0x3C0 DUP4 PUSH3 0x352 JUMP JUMPDEST DUP1 PUSH1 0x0 JUMPDEST DUP4 DUP2 LT ISZERO PUSH3 0x3F7 JUMPI DUP2 MLOAD PUSH3 0x3DB DUP9 DUP3 PUSH3 0x373 JUMP JUMPDEST SWAP8 POP PUSH3 0x3E8 DUP4 PUSH3 0x38D JUMP JUMPDEST SWAP3 POP POP PUSH1 0x1 DUP2 ADD SWAP1 POP PUSH3 0x3C4 JUMP JUMPDEST POP DUP6 SWAP4 POP POP POP POP SWAP3 SWAP2 POP POP JUMP JUMPDEST PUSH1 0x0 PUSH1 0x20 DUP3 ADD SWAP1 POP DUP2 DUP2 SUB PUSH1 0x0 DUP4 ADD MSTORE PUSH3 0x420 DUP2 DUP5 PUSH3 0x39A JUMP JUMPDEST SWAP1 POP SWAP3 SWAP2 POP POP JUMP JUMPDEST PUSH1 0x0 DUP1 REVERT JUMPDEST PUSH1 0x0 DUP1 REVERT JUMPDEST PUSH1 0x0 PUSH1 0x1F NOT PUSH1 0x1F DUP4 ADD AND SWAP1 POP SWAP2 SWAP1 POP JUMP JUMPDEST PUSH32 0x4E487B7100000000000000000000000000000000000000000000000000000000 PUSH1 0x0 MSTORE PUSH1 0x41 PUSH1 0x4 MSTORE PUSH1 0x24 PUSH1 0x0 REVERT JUMPDEST PUSH3 0x47D DUP3 PUSH3 0x432 JUMP JUMPDEST DUP2 ADD DUP2 DUP2 LT PUSH8 0xFFFFFFFFFFFFFFFF DUP3 GT OR ISZERO PUSH3 0x49F JUMPI PUSH3 0x49E PUSH3 0x443 JUMP JUMPDEST JUMPDEST DUP1 PUSH1 0x40 MSTORE POP POP POP JUMP JUMPDEST PUSH1 0x0 PUSH3 0x4B4 PUSH3 0x253 JUMP JUMPDEST SWAP1 POP PUSH3 0x4C2 DUP3 DUP3 PUSH3 0x472 JUMP JUMPDEST SWAP2 SWAP1 POP JUMP JUMPDEST PUSH1 0x0 PUSH8 0xFFFFFFFFFFFFFFFF DUP3 GT ISZERO PUSH3 0x4E5 JUMPI PUSH3 0x4E4 PUSH3 0x443 JUMP JUMPDEST JUMPDEST PUSH3 0x4F0 DUP3 PUSH3 0x432 JUMP JUMPDEST SWAP1 POP PUSH1 0x20 DUP2 ADD SWAP1 POP SWAP2 SWAP1 POP JUMP JUMPDEST DUP3 DUP2 DUP4 CALLDATACOPY PUSH1 0x0 DUP4 DUP4 ADD MSTORE POP POP POP JUMP JUMPDEST PUSH1 0x0 PUSH3 0x523 PUSH3 0x51D DUP5 PUSH3 0x4C7 JUMP JUMPDEST PUSH3 0x4A8 JUMP JUMPDEST SWAP1 POP DUP3 DUP2 MSTORE PUSH1 0x20 DUP2 ADD DUP5 DUP5 DUP5 ADD GT ISZERO PUSH3 0x542 JUMPI PUSH3 0x541 PUSH3 0x42D JUMP JUMPDEST JUMPDEST PUSH3 0x54F DUP5 DUP3 DUP6 PUSH3 0x4FD JUMP JUMPDEST POP SWAP4 SWAP3 POP POP POP JUMP JUMPDEST PUSH1 0x0 DUP3 PUSH1 0x1F DUP4 ADD SLT PUSH3 0x56F JUMPI PUSH3 0x56E PUSH3 0x428 JUMP JUMPDEST JUMPDEST DUP2 CALLDATALOAD PUSH3 0x581 DUP5 DUP3 PUSH1 0x20 DUP7 ADD PUSH3 0x50C JUMP JUMPDEST SWAP2 POP POP SWAP3 SWAP2 POP POP JUMP JUMPDEST PUSH1 0x0 DUP1 PUSH1 0x0 DUP1 PUSH1 0x0 PUSH1 0xA0 DUP7 DUP9 SUB SLT ISZERO PUSH3 0x5A9 JUMPI PUSH3 0x5A8 PUSH3 0x25D JUMP JUMPDEST JUMPDEST PUSH1 0x0 PUSH3 0x5B9 DUP9 DUP3 DUP10 ADD PUSH3 0x28B JUMP JUMPDEST SWAP6 POP POP PUSH1 0x20 DUP7 ADD CALLDATALOAD PUSH8 0xFFFFFFFFFFFFFFFF DUP2 GT ISZERO PUSH3 0x5DD JUMPI PUSH3 0x5DC PUSH3 0x262 JUMP JUMPDEST JUMPDEST PUSH3 0x5EB DUP9 DUP3 DUP10 ADD PUSH3 0x557 JUMP JUMPDEST SWAP5 POP POP PUSH1 0x40 DUP7 ADD CALLDATALOAD PUSH8 0xFFFFFFFFFFFFFFFF DUP2 GT ISZERO PUSH3 0x60F JUMPI PUSH3 0x60E PUSH3 0x262 JUMP JUMPDEST JUMPDEST PUSH3 0x61D DUP9 DUP3 DUP10 ADD PUSH3 0x557 JUMP JUMPDEST SWAP4 POP POP PUSH1 0x60 DUP7 ADD CALLDATALOAD PUSH8 0xFFFFFFFFFFFFFFFF DUP2 GT ISZERO PUSH3 0x641 JUMPI PUSH3 0x640 PUSH3 0x262 JUMP JUMPDEST JUMPDEST PUSH3 0x64F DUP9 DUP3 DUP10 ADD PUSH3 0x557 JUMP JUMPDEST SWAP3 POP POP PUSH1 0x80 PUSH3 0x662 DUP9 DUP3 DUP10 ADD PUSH3 0x28B JUMP JUMPDEST SWAP2 POP POP SWAP3 SWAP6 POP SWAP3 SWAP6 SWAP1 SWAP4 POP JUMP JUMPDEST PUSH3 0x67A DUP2 PUSH3 0x267 JUMP JUMPDEST DUP3 MSTORE POP POP JUMP JUMPDEST PUSH1 0x0 DUP2 MLOAD SWAP1 POP SWAP2 SWAP1 POP JUMP JUMPDEST PUSH1 0x0 DUP3 DUP3 MSTORE PUSH1 0x20 DUP3 ADD SWAP1 POP SWAP3 SWAP2 POP POP JUMP JUMPDEST PUSH1 0x0 JUMPDEST DUP4 DUP2 LT ISZERO PUSH3 0x6BC JUMPI DUP1 DUP3 ADD MLOAD DUP2 DUP5 ADD MSTORE PUSH1 0x20 DUP2 ADD SWAP1 POP PUSH3 0x69F JUMP JUMPDEST DUP4 DUP2 GT ISZERO PUSH3 0x6CC JUMPI PUSH1 0x0 DUP5 DUP5 ADD MSTORE JUMPDEST POP POP POP POP JUMP JUMPDEST PUSH1 0x0 PUSH3 0x6DF DUP3 PUSH3 0x680 JUMP JUMPDEST PUSH3 0x6EB DUP2 DUP6 PUSH3 0x68B JUMP JUMPDEST SWAP4 POP PUSH3 0x6FD DUP2 DUP6 PUSH1 0x20 DUP7 ADD PUSH3 0x69C JUMP JUMPDEST PUSH3 0x708 DUP2 PUSH3 0x432 JUMP JUMPDEST DUP5 ADD SWAP2 POP POP SWAP3 SWAP2 POP POP JUMP JUMPDEST PUSH1 0x0 PUSH1 0xC0 DUP3 ADD SWAP1 POP PUSH3 0x72A PUSH1 0x0 DUP4 ADD DUP10 PUSH3 0x66F JUMP JUMPDEST PUSH3 0x739 PUSH1 0x20 DUP4 ADD DUP9 PUSH3 0x308 JUMP JUMPDEST DUP2 DUP2 SUB PUSH1 0x40 DUP4 ADD MSTORE PUSH3 0x74D DUP2 DUP8 PUSH3 0x6D2 JUMP JUMPDEST SWAP1 POP DUP2 DUP2 SUB PUSH1 0x60 DUP4 ADD MSTORE PUSH3 0x763 DUP2 DUP7 PUSH3 0x6D2 JUMP JUMPDEST SWAP1 POP DUP2 DUP2 SUB PUSH1 0x80 DUP4 ADD MSTORE PUSH3 0x779 DUP2 DUP6 PUSH3 0x6D2 JUMP JUMPDEST SWAP1 POP PUSH3 0x78A PUSH1 0xA0 DUP4 ADD DUP5 PUSH3 0x66F JUMP JUMPDEST SWAP8 SWAP7 POP POP POP POP POP POP POP JUMP INVALID PUSH1 0x80 PUSH1 0x40 MSTORE CALLVALUE DUP1 ISZERO PUSH3 0x11 JUMPI PUSH1 0x0 DUP1 REVERT JUMPDEST POP PUSH1 0x40 MLOAD PUSH3 0x20FD CODESIZE SUB DUP1 PUSH3 0x20FD DUP4 CODECOPY DUP2 DUP2 ADD PUSH1 0x40 MSTORE DUP2 ADD SWAP1 PUSH3 0x37 SWAP2 SWAP1 PUSH3 0x305 JUMP JUMPDEST DUP5 PUSH1 0x1 PUSH1 0x0 PUSH2 0x100 EXP DUP2 SLOAD DUP2 PUSH20 0xFFFFFFFFFFFFFFFFFFFFFFFFFFFFFFFFFFFFFFFF MUL NOT AND SWAP1 DUP4 PUSH20 0xFFFFFFFFFFFFFFFFFFFFFFFFFFFFFFFFFFFFFFFF AND MUL OR SWAP1 SSTORE POP DUP6 PUSH1 0x7 DUP2 SWAP1 SSTORE POP DUP4 PUSH1 0x3 SWAP1 DUP2 PUSH3 0x90 SWAP2 SWAP1 PUSH3 0x63F JUMP JUMPDEST POP DUP3 PUSH1 0x4 SWAP1 DUP2 PUSH3 0xA2 SWAP2 SWAP1 PUSH3 0x63F JUMP JUMPDEST POP DUP2 PUSH1 0x5 SWAP1 DUP2 PUSH3 0xB4 SWAP2 SWAP1 PUSH3 0x63F JUMP JUMPDEST POP DUP1 PUSH1 0x6 DUP2 SWAP1 SSTORE POP POP POP POP POP POP POP PUSH3 0x726 JUMP JUMPDEST PUSH1 0x0 PUSH1 0x40 MLOAD SWAP1 POP SWAP1 JUMP JUMPDEST PUSH1 0x0 DUP1 REVERT JUMPDEST PUSH1 0x0 DUP1 REVERT JUMPDEST PUSH1 0x0 DUP2 SWAP1 POP SWAP2 SWAP1 POP JUMP JUMPDEST PUSH3 0xF1 DUP2 PUSH3 0xDC JUMP JUMPDEST DUP2 EQ PUSH3 0xFD JUMPI PUSH1 0x0 DUP1 REVERT JUMPDEST POP JUMP JUMPDEST PUSH1 0x0 DUP2 MLOAD SWAP1 POP PUSH3 0x111 DUP2 PUSH3 0xE6 JUMP JUMPDEST SWAP3 SWAP2 POP POP JUMP JUMPDEST PUSH1 0x0 PUSH20 0xFFFFFFFFFFFFFFFFFFFFFFFFFFFFFFFFFFFFFFFF DUP3 AND SWAP1 POP SWAP2 SWAP1 POP JUMP JUMPDEST PUSH1 0x0 PUSH3 0x144 DUP3 PUSH3 0x117 JUMP JUMPDEST SWAP1 POP SWAP2 SWAP1 POP JUMP JUMPDEST PUSH3 0x156 DUP2 PUSH3 0x137 JUMP JUMPDEST DUP2 EQ PUSH3 0x162 JUMPI PUSH1 0x0 DUP1 REVERT JUMPDEST POP JUMP JUMPDEST PUSH1 0x0 DUP2 MLOAD SWAP1 POP PUSH3 0x176 DUP2 PUSH3 0x14B JUMP JUMPDEST SWAP3 SWAP2 POP POP JUMP JUMPDEST PUSH1 0x0 DUP1 REVERT JUMPDEST PUSH1 0x0 DUP1 REVERT JUMPDEST PUSH1 0x0 PUSH1 0x1F NOT PUSH1 0x1F DUP4 ADD AND SWAP1 POP SWAP2 SWAP1 POP JUMP JUMPDEST PUSH32 0x4E487B7100000000000000000000000000000000000000000000000000000000 PUSH1 0x0 MSTORE PUSH1 0x41 PUSH1 0x4 MSTORE PUSH1 0x24 PUSH1 0x0 REVERT JUMPDEST PUSH3 0x1D1 DUP3 PUSH3 0x186 JUMP JUMPDEST DUP2 ADD DUP2 DUP2 LT PUSH8 0xFFFFFFFFFFFFFFFF DUP3 GT OR ISZERO PUSH3 0x1F3 JUMPI PUSH3 0x1F2 PUSH3 0x197 JUMP JUMPDEST JUMPDEST DUP1 PUSH1 0x40 MSTORE POP POP POP JUMP JUMPDEST PUSH1 0x0 PUSH3 0x208 PUSH3 0xC8 JUMP JUMPDEST SWAP1 POP PUSH3 0x216 DUP3 DUP3 PUSH3 0x1C6 JUMP JUMPDEST SWAP2 SWAP1 POP JUMP JUMPDEST PUSH1 0x0 PUSH8 0xFFFFFFFFFFFFFFFF DUP3 GT ISZERO PUSH3 0x239 JUMPI PUSH3 0x238 PUSH3 0x197 JUMP JUMPDEST JUMPDEST PUSH3 0x244 DUP3 PUSH3 0x186 JUMP JUMPDEST SWAP1 POP PUSH1 0x20 DUP2 ADD SWAP1 POP SWAP2 SWAP1 POP JUMP JUMPDEST PUSH1 0x0 JUMPDEST DUP4 DUP2 LT ISZERO PUSH3 0x271 JUMPI DUP1 DUP3 ADD MLOAD DUP2 DUP5 ADD MSTORE PUSH1 0x20 DUP2 ADD SWAP1 POP PUSH3 0x254 JUMP JUMPDEST DUP4 DUP2 GT ISZERO PUSH3 0x281 JUMPI PUSH1 0x0 DUP5 DUP5 ADD MSTORE JUMPDEST POP POP POP POP JUMP JUMPDEST PUSH1 0x0 PUSH3 0x29E PUSH3 0x298 DUP5 PUSH3 0x21B JUMP JUMPDEST PUSH3 0x1FC JUMP JUMPDEST SWAP1 POP DUP3 DUP2 MSTORE PUSH1 0x20 DUP2 ADD DUP5 DUP5 DUP5 ADD GT ISZERO PUSH3 0x2BD JUMPI PUSH3 0x2BC PUSH3 0x181 JUMP JUMPDEST JUMPDEST PUSH3 0x2CA DUP5 DUP3 DUP6 PUSH3 0x251 JUMP JUMPDEST POP SWAP4 SWAP3 POP POP POP JUMP JUMPDEST PUSH1 0x0 DUP3 PUSH1 0x1F DUP4 ADD SLT PUSH3 0x2EA JUMPI PUSH3 0x2E9 PUSH3 0x17C JUMP JUMPDEST JUMPDEST DUP2 MLOAD PUSH3 0x2FC DUP5 DUP3 PUSH1 0x20 DUP7 ADD PUSH3 0x287 JUMP JUMPDEST SWAP2 POP POP SWAP3 SWAP2 POP POP JUMP JUMPDEST PUSH1 0x0 DUP1 PUSH1 0x0 DUP1 PUSH1 0x0 DUP1 PUSH1 0xC0 DUP8 DUP10 SUB SLT ISZERO PUSH3 0x325 JUMPI PUSH3 0x324 PUSH3 0xD2 JUMP JUMPDEST JUMPDEST PUSH1 0x0 PUSH3 0x335 DUP10 DUP3 DUP11 ADD PUSH3 0x100 JUMP JUMPDEST SWAP7 POP POP PUSH1 0x20 PUSH3 0x348 DUP10 DUP3 DUP11 ADD PUSH3 0x165 JUMP JUMPDEST SWAP6 POP POP PUSH1 0x40 DUP8 ADD MLOAD PUSH8 0xFFFFFFFFFFFFFFFF DUP2 GT ISZERO PUSH3 0x36C JUMPI PUSH3 0x36B PUSH3 0xD7 JUMP JUMPDEST JUMPDEST PUSH3 0x37A DUP10 DUP3 DUP11 ADD PUSH3 0x2D2 JUMP JUMPDEST SWAP5 POP POP PUSH1 0x60 DUP8 ADD MLOAD PUSH8 0xFFFFFFFFFFFFFFFF DUP2 GT ISZERO PUSH3 0x39E JUMPI PUSH3 0x39D PUSH3 0xD7 JUMP JUMPDEST JUMPDEST PUSH3 0x3AC DUP10 DUP3 DUP11 ADD PUSH3 0x2D2 JUMP JUMPDEST SWAP4 POP POP PUSH1 0x80 DUP8 ADD MLOAD PUSH8 0xFFFFFFFFFFFFFFFF DUP2 GT ISZERO PUSH3 0x3D0 JUMPI PUSH3 0x3CF PUSH3 0xD7 JUMP JUMPDEST JUMPDEST PUSH3 0x3DE DUP10 DUP3 DUP11 ADD PUSH3 0x2D2 JUMP JUMPDEST SWAP3 POP POP PUSH1 0xA0 PUSH3 0x3F1 DUP10 DUP3 DUP11 ADD PUSH3 0x100 JUMP JUMPDEST SWAP2 POP POP SWAP3 SWAP6 POP SWAP3 SWAP6 POP SWAP3 SWAP6 JUMP JUMPDEST PUSH1 0x0 DUP2 MLOAD SWAP1 POP SWAP2 SWAP1 POP JUMP JUMPDEST PUSH32 0x4E487B7100000000000000000000000000000000000000000000000000000000 PUSH1 0x0 MSTORE PUSH1 0x22 PUSH1 0x4 MSTORE PUSH1 0x24 PUSH1 0x0 REVERT JUMPDEST PUSH1 0x0 PUSH1 0x2 DUP3 DIV SWAP1 POP PUSH1 0x1 DUP3 AND DUP1 PUSH3 0x451 JUMPI PUSH1 0x7F DUP3 AND SWAP2 POP JUMPDEST PUSH1 0x20 DUP3 LT DUP2 SUB PUSH3 0x467 JUMPI PUSH3 0x466 PUSH3 0x409 JUMP JUMPDEST JUMPDEST POP SWAP2 SWAP1 POP JUMP JUMPDEST PUSH1 0x0 DUP2 SWAP1 POP DUP2 PUSH1 0x0 MSTORE PUSH1 0x20 PUSH1 0x0 KECCAK256 SWAP1 POP SWAP2 SWAP1 POP JUMP JUMPDEST PUSH1 0x0 PUSH1 0x20 PUSH1 0x1F DUP4 ADD DIV SWAP1 POP SWAP2 SWAP1 POP JUMP JUMPDEST PUSH1 0x0 DUP3 DUP3 SHL SWAP1 POP SWAP3 SWAP2 POP POP JUMP JUMPDEST PUSH1 0x0 PUSH1 0x8 DUP4 MUL PUSH3 0x4D1 PUSH32 0xFFFFFFFFFFFFFFFFFFFFFFFFFFFFFFFFFFFFFFFFFFFFFFFFFFFFFFFFFFFFFFFF DUP3 PUSH3 0x492 JUMP JUMPDEST PUSH3 0x4DD DUP7 DUP4 PUSH3 0x492 JUMP JUMPDEST SWAP6 POP DUP1 NOT DUP5 AND SWAP4 POP DUP1 DUP7 AND DUP5 OR SWAP3 POP POP POP SWAP4 SWAP3 POP POP POP JUMP JUMPDEST PUSH1 0x0 DUP2 SWAP1 POP SWAP2 SWAP1 POP JUMP JUMPDEST PUSH1 0x0 PUSH3 0x520 PUSH3 0x51A PUSH3 0x514 DUP5 PUSH3 0xDC JUMP JUMPDEST PUSH3 0x4F5 JUMP JUMPDEST PUSH3 0xDC JUMP JUMPDEST SWAP1 POP SWAP2 SWAP1 POP JUMP JUMPDEST PUSH1 0x0 DUP2 SWAP1 POP SWAP2 SWAP1 POP JUMP JUMPDEST PUSH3 0x53C DUP4 PUSH3 0x4FF JUMP JUMPDEST PUSH3 0x554 PUSH3 0x54B DUP3 PUSH3 0x527 JUMP JUMPDEST DUP5 DUP5 SLOAD PUSH3 0x49F JUMP JUMPDEST DUP3 SSTORE POP POP POP POP JUMP JUMPDEST PUSH1 0x0 SWAP1 JUMP JUMPDEST PUSH3 0x56B PUSH3 0x55C JUMP JUMPDEST PUSH3 0x578 DUP2 DUP5 DUP5 PUSH3 0x531 JUMP JUMPDEST POP POP POP JUMP JUMPDEST JUMPDEST DUP2 DUP2 LT ISZERO PUSH3 0x5A0 JUMPI PUSH3 0x594 PUSH1 0x0 DUP3 PUSH3 0x561 JUMP JUMPDEST PUSH1 0x1 DUP2 ADD SWAP1 POP PUSH3 0x57E JUMP JUMPDEST POP POP JUMP JUMPDEST PUSH1 0x1F DUP3 GT ISZERO PUSH3 0x5EF JUMPI PUSH3 0x5B9 DUP2 PUSH3 0x46D JUMP JUMPDEST PUSH3 0x5C4 DUP5 PUSH3 0x482 JUMP JUMPDEST DUP2 ADD PUSH1 0x20 DUP6 LT ISZERO PUSH3 0x5D4 JUMPI DUP2 SWAP1 POP JUMPDEST PUSH3 0x5EC PUSH3 0x5E3 DUP6 PUSH3 0x482 JUMP JUMPDEST DUP4 ADD DUP3 PUSH3 0x57D JUMP JUMPDEST POP POP JUMPDEST POP POP POP JUMP JUMPDEST PUSH1 0x0 DUP3 DUP3 SHR SWAP1 POP SWAP3 SWAP2 POP POP JUMP JUMPDEST PUSH1 0x0 PUSH3 0x614 PUSH1 0x0 NOT DUP5 PUSH1 0x8 MUL PUSH3 0x5F4 JUMP JUMPDEST NOT DUP1 DUP4 AND SWAP2 POP POP SWAP3 SWAP2 POP POP JUMP JUMPDEST PUSH1 0x0 PUSH3 0x62F DUP4 DUP4 PUSH3 0x601 JUMP JUMPDEST SWAP2 POP DUP3 PUSH1 0x2 MUL DUP3 OR SWAP1 POP SWAP3 SWAP2 POP POP JUMP JUMPDEST PUSH3 0x64A DUP3 PUSH3 0x3FE JUMP JUMPDEST PUSH8 0xFFFFFFFFFFFFFFFF DUP2 GT ISZERO PUSH3 0x666 JUMPI PUSH3 0x665 PUSH3 0x197 JUMP JUMPDEST JUMPDEST PUSH3 0x672 DUP3 SLOAD PUSH3 0x438 JUMP JUMPDEST PUSH3 0x67F DUP3 DUP3 DUP6 PUSH3 0x5A4 JUMP JUMPDEST PUSH1 0x0 PUSH1 0x20 SWAP1 POP PUSH1 0x1F DUP4 GT PUSH1 0x1 DUP2 EQ PUSH3 0x6B7 JUMPI PUSH1 0x0 DUP5 ISZERO PUSH3 0x6A2 JUMPI DUP3 DUP8 ADD MLOAD SWAP1 POP JUMPDEST PUSH3 0x6AE DUP6 DUP3 PUSH3 0x621 JUMP JUMPDEST DUP7 SSTORE POP PUSH3 0x71E JUMP JUMPDEST PUSH1 0x1F NOT DUP5 AND PUSH3 0x6C7 DUP7 PUSH3 0x46D JUMP JUMPDEST PUSH1 0x0 JUMPDEST DUP3 DUP2 LT ISZERO PUSH3 0x6F1 JUMPI DUP5 DUP10 ADD MLOAD DUP3 SSTORE PUSH1 0x1 DUP3 ADD SWAP2 POP PUSH1 0x20 DUP6 ADD SWAP5 POP PUSH1 0x20 DUP2 ADD SWAP1 POP PUSH3 0x6CA JUMP JUMPDEST DUP7 DUP4 LT ISZERO PUSH3 0x711 JUMPI DUP5 DUP10 ADD MLOAD PUSH3 0x70D PUSH1 0x1F DUP10 AND DUP3 PUSH3 0x601 JUMP JUMPDEST DUP4 SSTORE POP JUMPDEST PUSH1 0x1 PUSH1 0x2 DUP9 MUL ADD DUP9 SSTORE POP POP POP JUMPDEST POP POP POP POP POP POP JUMP JUMPDEST PUSH2 0x19C7 DUP1 PUSH3 0x736 PUSH1 0x0 CODECOPY PUSH1 0x0 RETURN INVALID PUSH1 0x80 PUSH1 0x40 MSTORE PUSH1 0x4 CALLDATASIZE LT PUSH2 0xFE JUMPI PUSH1 0x0 CALLDATALOAD PUSH1 0xE0 SHR DUP1 PUSH4 0x8A9CFD55 GT PUSH2 0x95 JUMPI DUP1 PUSH4 0xAAFFADF3 GT PUSH2 0x64 JUMPI DUP1 PUSH4 0xAAFFADF3 EQ PUSH2 0x326 JUMPI DUP1 PUSH4 0xABA83150 EQ PUSH2 0x351 JUMPI DUP1 PUSH4 0xD7BB99BA EQ PUSH2 0x37C JUMPI DUP1 PUSH4 0xD7D1BBDB EQ PUSH2 0x386 JUMPI DUP1 PUSH4 0xE850CBC8 EQ PUSH2 0x3AF JUMPI PUSH2 0xFE JUMP JUMPDEST DUP1 PUSH4 0x8A9CFD55 EQ PUSH2 0x27C JUMPI DUP1 PUSH4 0x8B7AFE2E EQ PUSH2 0x2A5 JUMPI DUP1 PUSH4 0x8B85165D EQ PUSH2 0x2D0 JUMPI DUP1 PUSH4 0x97654A8C EQ PUSH2 0x2FB JUMPI PUSH2 0xFE JUMP JUMPDEST DUP1 PUSH4 0x4051DDAC GT PUSH2 0xD1 JUMPI DUP1 PUSH4 0x4051DDAC EQ PUSH2 0x1B2 JUMPI DUP1 PUSH4 0x481C6A75 EQ PUSH2 0x1E5 JUMPI DUP1 PUSH4 0x7E7CD1B3 EQ PUSH2 0x210 JUMPI DUP1 PUSH4 0x81D12C58 EQ PUSH2 0x23B JUMPI PUSH2 0xFE JUMP JUMPDEST DUP1 PUSH4 0x3441006 EQ PUSH2 0x103 JUMPI DUP1 PUSH4 0xA144391 EQ PUSH2 0x11F JUMPI DUP1 PUSH4 0x128E9BE6 EQ PUSH2 0x15C JUMPI DUP1 PUSH4 0x3410452A EQ PUSH2 0x187 JUMPI JUMPDEST PUSH1 0x0 DUP1 REVERT JUMPDEST PUSH2 0x11D PUSH1 0x4 DUP1 CALLDATASIZE SUB DUP2 ADD SWAP1 PUSH2 0x118 SWAP2 SWAP1 PUSH2 0xEA7 JUMP JUMPDEST PUSH2 0x3D8 JUMP JUMPDEST STOP JUMPDEST CALLVALUE DUP1 ISZERO PUSH2 0x12B JUMPI PUSH1 0x0 DUP1 REVERT JUMPDEST POP PUSH2 0x146 PUSH1 0x4 DUP1 CALLDATASIZE SUB DUP2 ADD SWAP1 PUSH2 0x141 SWAP2 SWAP1 PUSH2 0xF32 JUMP JUMPDEST PUSH2 0x5C3 JUMP JUMPDEST PUSH1 0x40 MLOAD PUSH2 0x153 SWAP2 SWAP1 PUSH2 0xF7A JUMP JUMPDEST PUSH1 0x40 MLOAD DUP1 SWAP2 SUB SWAP1 RETURN JUMPDEST CALLVALUE DUP1 ISZERO PUSH2 0x168 JUMPI PUSH1 0x0 DUP1 REVERT JUMPDEST POP PUSH2 0x171 PUSH2 0x5E3 JUMP JUMPDEST PUSH1 0x40 MLOAD PUSH2 0x17E SWAP2 SWAP1 PUSH2 0xFA4 JUMP JUMPDEST PUSH1 0x40 MLOAD DUP1 SWAP2 SUB SWAP1 RETURN JUMPDEST CALLVALUE DUP1 ISZERO PUSH2 0x193 JUMPI PUSH1 0x0 DUP1 REVERT JUMPDEST POP PUSH2 0x19C PUSH2 0x5E9 JUMP JUMPDEST PUSH1 0x40 MLOAD PUSH2 0x1A9 SWAP2 SWAP1 PUSH2 0xFA4 JUMP JUMPDEST PUSH1 0x40 MLOAD DUP1 SWAP2 SUB SWAP1 RETURN JUMPDEST CALLVALUE DUP1 ISZERO PUSH2 0x1BE JUMPI PUSH1 0x0 DUP1 REVERT JUMPDEST POP PUSH2 0x1C7 PUSH2 0x5F5 JUMP JUMPDEST PUSH1 0x40 MLOAD PUSH2 0x1DC SWAP10 SWAP9 SWAP8 SWAP7 SWAP6 SWAP5 SWAP4 SWAP3 SWAP2 SWAP1 PUSH2 0x1067 JUMP JUMPDEST PUSH1 0x40 MLOAD DUP1 SWAP2 SUB SWAP1 RETURN JUMPDEST CALLVALUE DUP1 ISZERO PUSH2 0x1F1 JUMPI PUSH1 0x0 DUP1 REVERT JUMPDEST POP PUSH2 0x1FA PUSH2 0x7FE JUMP JUMPDEST PUSH1 0x40 MLOAD PUSH2 0x207 SWAP2 SWAP1 PUSH2 0x1109 JUMP JUMPDEST PUSH1 0x40 MLOAD DUP1 SWAP2 SUB SWAP1 RETURN JUMPDEST CALLVALUE DUP1 ISZERO PUSH2 0x21C JUMPI PUSH1 0x0 DUP1 REVERT JUMPDEST POP PUSH2 0x225 PUSH2 0x824 JUMP JUMPDEST PUSH1 0x40 MLOAD PUSH2 0x232 SWAP2 SWAP1 PUSH2 0x1124 JUMP JUMPDEST PUSH1 0x40 MLOAD DUP1 SWAP2 SUB SWAP1 RETURN JUMPDEST CALLVALUE DUP1 ISZERO PUSH2 0x247 JUMPI PUSH1 0x0 DUP1 REVERT JUMPDEST POP PUSH2 0x262 PUSH1 0x4 DUP1 CALLDATASIZE SUB DUP2 ADD SWAP1 PUSH2 0x25D SWAP2 SWAP1 PUSH2 0xEA7 JUMP JUMPDEST PUSH2 0x8B2 JUMP JUMPDEST PUSH1 0x40 MLOAD PUSH2 0x273 SWAP6 SWAP5 SWAP4 SWAP3 SWAP2 SWAP1 PUSH2 0x1167 JUMP JUMPDEST PUSH1 0x40 MLOAD DUP1 SWAP2 SUB SWAP1 RETURN JUMPDEST CALLVALUE DUP1 ISZERO PUSH2 0x288 JUMPI PUSH1 0x0 DUP1 REVERT JUMPDEST POP PUSH2 0x2A3 PUSH1 0x4 DUP1 CALLDATASIZE SUB DUP2 ADD SWAP1 PUSH2 0x29E SWAP2 SWAP1 PUSH2 0x1322 JUMP JUMPDEST PUSH2 0x9AD JUMP JUMPDEST STOP JUMPDEST CALLVALUE DUP1 ISZERO PUSH2 0x2B1 JUMPI PUSH1 0x0 DUP1 REVERT JUMPDEST POP PUSH2 0x2BA PUSH2 0xAEB JUMP JUMPDEST PUSH1 0x40 MLOAD PUSH2 0x2C7 SWAP2 SWAP1 PUSH2 0xFA4 JUMP JUMPDEST PUSH1 0x40 MLOAD DUP1 SWAP2 SUB SWAP1 RETURN JUMPDEST CALLVALUE DUP1 ISZERO PUSH2 0x2DC JUMPI PUSH1 0x0 DUP1 REVERT JUMPDEST POP PUSH2 0x2E5 PUSH2 0xAF3 JUMP JUMPDEST PUSH1 0x40 MLOAD PUSH2 0x2F2 SWAP2 SWAP1 PUSH2 0xFA4 JUMP JUMPDEST PUSH1 0x40 MLOAD DUP1 SWAP2 SUB SWAP1 RETURN JUMPDEST CALLVALUE DUP1 ISZERO PUSH2 0x307 JUMPI PUSH1 0x0 DUP1 REVERT JUMPDEST POP PUSH2 0x310 PUSH2 0xAF9 JUMP JUMPDEST PUSH1 0x40 MLOAD PUSH2 0x31D SWAP2 SWAP1 PUSH2 0x1124 JUMP JUMPDEST PUSH1 0x40 MLOAD DUP1 SWAP2 SUB SWAP1 RETURN JUMPDEST CALLVALUE DUP1 ISZERO PUSH2 0x332 JUMPI PUSH1 0x0 DUP1 REVERT JUMPDEST POP PUSH2 0x33B PUSH2 0xB87 JUMP JUMPDEST PUSH1 0x40 MLOAD PUSH2 0x348 SWAP2 SWAP1 PUSH2 0xFA4 JUMP JUMPDEST PUSH1 0x40 MLOAD DUP1 SWAP2 SUB SWAP1 RETURN JUMPDEST CALLVALUE DUP1 ISZERO PUSH2 0x35D JUMPI PUSH1 0x0 DUP1 REVERT JUMPDEST POP PUSH2 0x366 PUSH2 0xB8D JUMP JUMPDEST PUSH1 0x40 MLOAD PUSH2 0x373 SWAP2 SWAP1 PUSH2 0x1124 JUMP JUMPDEST PUSH1 0x40 MLOAD DUP1 SWAP2 SUB SWAP1 RETURN JUMPDEST PUSH2 0x384 PUSH2 0xC1B JUMP JUMPDEST STOP JUMPDEST CALLVALUE DUP1 ISZERO PUSH2 0x392 JUMPI PUSH1 0x0 DUP1 REVERT JUMPDEST POP PUSH2 0x3AD PUSH1 0x4 DUP1 CALLDATASIZE SUB DUP2 ADD SWAP1 PUSH2 0x3A8 SWAP2 SWAP1 PUSH2 0xEA7 JUMP JUMPDEST PUSH2 0xC9B JUMP JUMPDEST STOP JUMPDEST CALLVALUE DUP1 ISZERO PUSH2 0x3BB JUMPI PUSH1 0x0 DUP1 REVERT JUMPDEST POP PUSH2 0x3D6 PUSH1 0x4 DUP1 CALLDATASIZE SUB DUP2 ADD SWAP1 PUSH2 0x3D1 SWAP2 SWAP1 PUSH2 0xEA7 JUMP JUMPDEST PUSH2 0xE53 JUMP JUMPDEST STOP JUMPDEST PUSH1 0x1 PUSH1 0x0 SWAP1 SLOAD SWAP1 PUSH2 0x100 EXP SWAP1 DIV PUSH20 0xFFFFFFFFFFFFFFFFFFFFFFFFFFFFFFFFFFFFFFFF AND PUSH20 0xFFFFFFFFFFFFFFFFFFFFFFFFFFFFFFFFFFFFFFFF AND CALLER PUSH20 0xFFFFFFFFFFFFFFFFFFFFFFFFFFFFFFFFFFFFFFFF AND EQ PUSH2 0x468 JUMPI PUSH1 0x40 MLOAD PUSH32 0x8C379A000000000000000000000000000000000000000000000000000000000 DUP2 MSTORE PUSH1 0x4 ADD PUSH2 0x45F SWAP1 PUSH2 0x13DD JUMP JUMPDEST PUSH1 0x40 MLOAD DUP1 SWAP2 SUB SWAP1 REVERT JUMPDEST PUSH1 0x0 DUP1 DUP3 DUP2 SLOAD DUP2 LT PUSH2 0x47D JUMPI PUSH2 0x47C PUSH2 0x13FD JUMP JUMPDEST JUMPDEST SWAP1 PUSH1 0x0 MSTORE PUSH1 0x20 PUSH1 0x0 KECCAK256 SWAP1 PUSH1 0x5 MUL ADD SWAP1 POP PUSH1 0x2 PUSH1 0x8 SLOAD PUSH2 0x49C SWAP2 SWAP1 PUSH2 0x148A JUMP JUMPDEST DUP2 PUSH1 0x3 ADD SLOAD GT PUSH2 0x4E1 JUMPI PUSH1 0x40 MLOAD PUSH32 0x8C379A000000000000000000000000000000000000000000000000000000000 DUP2 MSTORE PUSH1 0x4 ADD PUSH2 0x4D8 SWAP1 PUSH2 0x1507 JUMP JUMPDEST PUSH1 0x40 MLOAD DUP1 SWAP2 SUB SWAP1 REVERT JUMPDEST DUP1 PUSH1 0x2 ADD PUSH1 0x14 SWAP1 SLOAD SWAP1 PUSH2 0x100 EXP SWAP1 DIV PUSH1 0xFF AND ISZERO PUSH2 0x533 JUMPI PUSH1 0x40 MLOAD PUSH32 0x8C379A000000000000000000000000000000000000000000000000000000000 DUP2 MSTORE PUSH1 0x4 ADD PUSH2 0x52A SWAP1 PUSH2 0x1573 JUMP JUMPDEST PUSH1 0x40 MLOAD DUP1 SWAP2 SUB SWAP1 REVERT JUMPDEST DUP1 PUSH1 0x2 ADD PUSH1 0x0 SWAP1 SLOAD SWAP1 PUSH2 0x100 EXP SWAP1 DIV PUSH20 0xFFFFFFFFFFFFFFFFFFFFFFFFFFFFFFFFFFFFFFFF AND PUSH20 0xFFFFFFFFFFFFFFFFFFFFFFFFFFFFFFFFFFFFFFFF AND PUSH2 0x8FC DUP3 PUSH1 0x1 ADD SLOAD SWAP1 DUP2 ISZERO MUL SWAP1 PUSH1 0x40 MLOAD PUSH1 0x0 PUSH1 0x40 MLOAD DUP1 DUP4 SUB DUP2 DUP6 DUP9 DUP9 CALL SWAP4 POP POP POP POP ISZERO DUP1 ISZERO PUSH2 0x5A1 JUMPI RETURNDATASIZE PUSH1 0x0 DUP1 RETURNDATACOPY RETURNDATASIZE PUSH1 0x0 REVERT JUMPDEST POP PUSH1 0x1 DUP2 PUSH1 0x2 ADD PUSH1 0x14 PUSH2 0x100 EXP DUP2 SLOAD DUP2 PUSH1 0xFF MUL NOT AND SWAP1 DUP4 ISZERO ISZERO MUL OR SWAP1 SSTORE POP POP POP JUMP JUMPDEST PUSH1 0x2 PUSH1 0x20 MSTORE DUP1 PUSH1 0x0 MSTORE PUSH1 0x40 PUSH1 0x0 KECCAK256 PUSH1 0x0 SWAP2 POP SLOAD SWAP1 PUSH2 0x100 EXP SWAP1 DIV PUSH1 0xFF AND DUP2 JUMP JUMPDEST PUSH1 0x8 SLOAD DUP2 JUMP JUMPDEST PUSH1 0x0 DUP1 DUP1 SLOAD SWAP1 POP SWAP1 POP SWAP1 JUMP JUMPDEST PUSH1 0x0 DUP1 PUSH1 0x0 DUP1 PUSH1 0x0 PUSH1 0x60 DUP1 PUSH1 0x60 PUSH1 0x0 PUSH1 0x7 SLOAD SELFBALANCE PUSH1 0x0 DUP1 SLOAD SWAP1 POP PUSH1 0x8 SLOAD PUSH1 0x1 PUSH1 0x0 SWAP1 SLOAD SWAP1 PUSH2 0x100 EXP SWAP1 DIV PUSH20 0xFFFFFFFFFFFFFFFFFFFFFFFFFFFFFFFFFFFFFFFF AND PUSH1 0x3 PUSH1 0x4 PUSH1 0x5 PUSH1 0x6 SLOAD DUP4 DUP1 SLOAD PUSH2 0x649 SWAP1 PUSH2 0x15C2 JUMP JUMPDEST DUP1 PUSH1 0x1F ADD PUSH1 0x20 DUP1 SWAP2 DIV MUL PUSH1 0x20 ADD PUSH1 0x40 MLOAD SWAP1 DUP2 ADD PUSH1 0x40 MSTORE DUP1 SWAP3 SWAP2 SWAP1 DUP2 DUP2 MSTORE PUSH1 0x20 ADD DUP3 DUP1 SLOAD PUSH2 0x675 SWAP1 PUSH2 0x15C2 JUMP JUMPDEST DUP1 ISZERO PUSH2 0x6C2 JUMPI DUP1 PUSH1 0x1F LT PUSH2 0x697 JUMPI PUSH2 0x100 DUP1 DUP4 SLOAD DIV MUL DUP4 MSTORE SWAP2 PUSH1 0x20 ADD SWAP2 PUSH2 0x6C2 JUMP JUMPDEST DUP3 ADD SWAP2 SWAP1 PUSH1 0x0 MSTORE PUSH1 0x20 PUSH1 0x0 KECCAK256 SWAP1 JUMPDEST DUP2 SLOAD DUP2 MSTORE SWAP1 PUSH1 0x1 ADD SWAP1 PUSH1 0x20 ADD DUP1 DUP4 GT PUSH2 0x6A5 JUMPI DUP3 SWAP1 SUB PUSH1 0x1F AND DUP3 ADD SWAP2 JUMPDEST POP POP POP POP POP SWAP4 POP DUP3 DUP1 SLOAD PUSH2 0x6D5 SWAP1 PUSH2 0x15C2 JUMP JUMPDEST DUP1 PUSH1 0x1F ADD PUSH1 0x20 DUP1 SWAP2 DIV MUL PUSH1 0x20 ADD PUSH1 0x40 MLOAD SWAP1 DUP2 ADD PUSH1 0x40 MSTORE DUP1 SWAP3 SWAP2 SWAP1 DUP2 DUP2 MSTORE PUSH1 0x20 ADD DUP3 DUP1 SLOAD PUSH2 0x701 SWAP1 PUSH2 0x15C2 JUMP JUMPDEST DUP1 ISZERO PUSH2 0x74E JUMPI DUP1 PUSH1 0x1F LT PUSH2 0x723 JUMPI PUSH2 0x100 DUP1 DUP4 SLOAD DIV MUL DUP4 MSTORE SWAP2 PUSH1 0x20 ADD SWAP2 PUSH2 0x74E JUMP JUMPDEST DUP3 ADD SWAP2 SWAP1 PUSH1 0x0 MSTORE PUSH1 0x20 PUSH1 0x0 KECCAK256 SWAP1 JUMPDEST DUP2 SLOAD DUP2 MSTORE SWAP1 PUSH1 0x1 ADD SWAP1 PUSH1 0x20 ADD DUP1 DUP4 GT PUSH2 0x731 JUMPI DUP3 SWAP1 SUB PUSH1 0x1F AND DUP3 ADD SWAP2 JUMPDEST POP POP POP POP POP SWAP3 POP DUP2 DUP1 SLOAD PUSH2 0x761 SWAP1 PUSH2 0x15C2 JUMP JUMPDEST DUP1 PUSH1 0x1F ADD PUSH1 0x20 DUP1 SWAP2 DIV MUL PUSH1 0x20 ADD PUSH1 0x40 MLOAD SWAP1 DUP2 ADD PUSH1 0x40 MSTORE DUP1 SWAP3 SWAP2 SWAP1 DUP2 DUP2 MSTORE PUSH1 0x20 ADD DUP3 DUP1 SLOAD PUSH2 0x78D SWAP1 PUSH2 0x15C2 JUMP JUMPDEST DUP1 ISZERO PUSH2 0x7DA JUMPI DUP1 PUSH1 0x1F LT PUSH2 0x7AF JUMPI PUSH2 0x100 DUP1 DUP4 SLOAD DIV MUL DUP4 MSTORE SWAP2 PUSH1 0x20 ADD SWAP2 PUSH2 0x7DA JUMP JUMPDEST DUP3 ADD SWAP2 SWAP1 PUSH1 0x0 MSTORE PUSH1 0x20 PUSH1 0x0 KECCAK256 SWAP1 JUMPDEST DUP2 SLOAD DUP2 MSTORE SWAP1 PUSH1 0x1 ADD SWAP1 PUSH1 0x20 ADD DUP1 DUP4 GT PUSH2 0x7BD JUMPI DUP3 SWAP1 SUB PUSH1 0x1F AND DUP3 ADD SWAP2 JUMPDEST POP POP POP POP POP SWAP2 POP SWAP9 POP SWAP9 POP SWAP9 POP SWAP9 POP SWAP9 POP SWAP9 POP SWAP9 POP SWAP9 POP SWAP9 POP SWAP1 SWAP2 SWAP3 SWAP4 SWAP5 SWAP6 SWAP7 SWAP8 SWAP9 JUMP JUMPDEST PUSH1 0x1 PUSH1 0x0 SWAP1 SLOAD SWAP1 PUSH2 0x100 EXP SWAP1 DIV PUSH20 0xFFFFFFFFFFFFFFFFFFFFFFFFFFFFFFFFFFFFFFFF AND DUP2 JUMP JUMPDEST PUSH1 0x3 DUP1 SLOAD PUSH2 0x831 SWAP1 PUSH2 0x15C2 JUMP JUMPDEST DUP1 PUSH1 0x1F ADD PUSH1 0x20 DUP1 SWAP2 DIV MUL PUSH1 0x20 ADD PUSH1 0x40 MLOAD SWAP1 DUP2 ADD PUSH1 0x40 MSTORE DUP1 SWAP3 SWAP2 SWAP1 DUP2 DUP2 MSTORE PUSH1 0x20 ADD DUP3 DUP1 SLOAD PUSH2 0x85D SWAP1 PUSH2 0x15C2 JUMP JUMPDEST DUP1 ISZERO PUSH2 0x8AA JUMPI DUP1 PUSH1 0x1F LT PUSH2 0x87F JUMPI PUSH2 0x100 DUP1 DUP4 SLOAD DIV MUL DUP4 MSTORE SWAP2 PUSH1 0x20 ADD SWAP2 PUSH2 0x8AA JUMP JUMPDEST DUP3 ADD SWAP2 SWAP1 PUSH1 0x0 MSTORE PUSH1 0x20 PUSH1 0x0 KECCAK256 SWAP1 JUMPDEST DUP2 SLOAD DUP2 MSTORE SWAP1 PUSH1 0x1 ADD SWAP1 PUSH1 0x20 ADD DUP1 DUP4 GT PUSH2 0x88D JUMPI DUP3 SWAP1 SUB PUSH1 0x1F AND DUP3 ADD SWAP2 JUMPDEST POP POP POP POP POP DUP2 JUMP JUMPDEST PUSH1 0x0 DUP2 DUP2 SLOAD DUP2 LT PUSH2 0x8C2 JUMPI PUSH1 0x0 DUP1 REVERT JUMPDEST SWAP1 PUSH1 0x0 MSTORE PUSH1 0x20 PUSH1 0x0 KECCAK256 SWAP1 PUSH1 0x5 MUL ADD PUSH1 0x0 SWAP2 POP SWAP1 POP DUP1 PUSH1 0x0 ADD DUP1 SLOAD PUSH2 0x8E5 SWAP1 PUSH2 0x15C2 JUMP JUMPDEST DUP1 PUSH1 0x1F ADD PUSH1 0x20 DUP1 SWAP2 DIV MUL PUSH1 0x20 ADD PUSH1 0x40 MLOAD SWAP1 DUP2 ADD PUSH1 0x40 MSTORE DUP1 SWAP3 SWAP2 SWAP1 DUP2 DUP2 MSTORE PUSH1 0x20 ADD DUP3 DUP1 SLOAD PUSH2 0x911 SWAP1 PUSH2 0x15C2 JUMP JUMPDEST DUP1 ISZERO PUSH2 0x95E JUMPI DUP1 PUSH1 0x1F LT PUSH2 0x933 JUMPI PUSH2 0x100 DUP1 DUP4 SLOAD DIV MUL DUP4 MSTORE SWAP2 PUSH1 0x20 ADD SWAP2 PUSH2 0x95E JUMP JUMPDEST DUP3 ADD SWAP2 SWAP1 PUSH1 0x0 MSTORE PUSH1 0x20 PUSH1 0x0 KECCAK256 SWAP1 JUMPDEST DUP2 SLOAD DUP2 MSTORE SWAP1 PUSH1 0x1 ADD SWAP1 PUSH1 0x20 ADD DUP1 DUP4 GT PUSH2 0x941 JUMPI DUP3 SWAP1 SUB PUSH1 0x1F AND DUP3 ADD SWAP2 JUMPDEST POP POP POP POP POP SWAP1 DUP1 PUSH1 0x1 ADD SLOAD SWAP1 DUP1 PUSH1 0x2 ADD PUSH1 0x0 SWAP1 SLOAD SWAP1 PUSH2 0x100 EXP SWAP1 DIV PUSH20 0xFFFFFFFFFFFFFFFFFFFFFFFFFFFFFFFFFFFFFFFF AND SWAP1 DUP1 PUSH1 0x2 ADD PUSH1 0x14 SWAP1 SLOAD SWAP1 PUSH2 0x100 EXP SWAP1 DIV PUSH1 0xFF AND SWAP1 DUP1 PUSH1 0x3 ADD SLOAD SWAP1 POP DUP6 JUMP JUMPDEST PUSH1 0x1 PUSH1 0x0 SWAP1 SLOAD SWAP1 PUSH2 0x100 EXP SWAP1 DIV PUSH20 0xFFFFFFFFFFFFFFFFFFFFFFFFFFFFFFFFFFFFFFFF AND PUSH20 0xFFFFFFFFFFFFFFFFFFFFFFFFFFFFFFFFFFFFFFFF AND CALLER PUSH20 0xFFFFFFFFFFFFFFFFFFFFFFFFFFFFFFFFFFFFFFFF AND EQ PUSH2 0xA3D JUMPI PUSH1 0x40 MLOAD PUSH32 0x8C379A000000000000000000000000000000000000000000000000000000000 DUP2 MSTORE PUSH1 0x4 ADD PUSH2 0xA34 SWAP1 PUSH2 0x13DD JUMP JUMPDEST PUSH1 0x40 MLOAD DUP1 SWAP2 SUB SWAP1 REVERT JUMPDEST PUSH1 0x0 DUP1 PUSH1 0x1 DUP2 PUSH1 0x1 DUP2 SLOAD ADD DUP1 DUP3 SSTORE DUP1 SWAP2 POP POP SUB SWAP1 PUSH1 0x0 MSTORE PUSH1 0x20 PUSH1 0x0 KECCAK256 SWAP1 PUSH1 0x5 MUL ADD SWAP1 POP DUP4 DUP2 PUSH1 0x0 ADD SWAP1 DUP2 PUSH2 0xA71 SWAP2 SWAP1 PUSH2 0x179F JUMP JUMPDEST POP DUP3 DUP2 PUSH1 0x1 ADD DUP2 SWAP1 SSTORE POP DUP2 DUP2 PUSH1 0x2 ADD PUSH1 0x0 PUSH2 0x100 EXP DUP2 SLOAD DUP2 PUSH20 0xFFFFFFFFFFFFFFFFFFFFFFFFFFFFFFFFFFFFFFFF MUL NOT AND SWAP1 DUP4 PUSH20 0xFFFFFFFFFFFFFFFFFFFFFFFFFFFFFFFFFFFFFFFF AND MUL OR SWAP1 SSTORE POP PUSH1 0x0 DUP2 PUSH1 0x2 ADD PUSH1 0x14 PUSH2 0x100 EXP DUP2 SLOAD DUP2 PUSH1 0xFF MUL NOT AND SWAP1 DUP4 ISZERO ISZERO MUL OR SWAP1 SSTORE POP PUSH1 0x0 DUP2 PUSH1 0x3 ADD DUP2 SWAP1 SSTORE POP POP POP POP POP JUMP JUMPDEST PUSH1 0x0 SELFBALANCE SWAP1 POP SWAP1 JUMP JUMPDEST PUSH1 0x6 SLOAD DUP2 JUMP JUMPDEST PUSH1 0x4 DUP1 SLOAD PUSH2 0xB06 SWAP1 PUSH2 0x15C2 JUMP JUMPDEST DUP1 PUSH1 0x1F ADD PUSH1 0x20 DUP1 SWAP2 DIV MUL PUSH1 0x20 ADD PUSH1 0x40 MLOAD SWAP1 DUP2 ADD PUSH1 0x40 MSTORE DUP1 SWAP3 SWAP2 SWAP1 DUP2 DUP2 MSTORE PUSH1 0x20 ADD DUP3 DUP1 SLOAD PUSH2 0xB32 SWAP1 PUSH2 0x15C2 JUMP JUMPDEST DUP1 ISZERO PUSH2 0xB7F JUMPI DUP1 PUSH1 0x1F LT PUSH2 0xB54 JUMPI PUSH2 0x100 DUP1 DUP4 SLOAD DIV MUL DUP4 MSTORE SWAP2 PUSH1 0x20 ADD SWAP2 PUSH2 0xB7F JUMP JUMPDEST DUP3 ADD SWAP2 SWAP1 PUSH1 0x0 MSTORE PUSH1 0x20 PUSH1 0x0 KECCAK256 SWAP1 JUMPDEST DUP2 SLOAD DUP2 MSTORE SWAP1 PUSH1 0x1 ADD SWAP1 PUSH1 0x20 ADD DUP1 DUP4 GT PUSH2 0xB62 JUMPI DUP3 SWAP1 SUB PUSH1 0x1F AND DUP3 ADD SWAP2 JUMPDEST POP POP POP POP POP DUP2 JUMP JUMPDEST PUSH1 0x7 SLOAD DUP2 JUMP JUMPDEST PUSH1 0x5 DUP1 SLOAD PUSH2 0xB9A SWAP1 PUSH2 0x15C2 JUMP JUMPDEST DUP1 PUSH1 0x1F ADD PUSH1 0x20 DUP1 SWAP2 DIV MUL PUSH1 0x20 ADD PUSH1 0x40 MLOAD SWAP1 DUP2 ADD PUSH1 0x40 MSTORE DUP1 SWAP3 SWAP2 SWAP1 DUP2 DUP2 MSTORE PUSH1 0x20 ADD DUP3 DUP1 SLOAD PUSH2 0xBC6 SWAP1 PUSH2 0x15C2 JUMP JUMPDEST DUP1 ISZERO PUSH2 0xC13 JUMPI DUP1 PUSH1 0x1F LT PUSH2 0xBE8 JUMPI PUSH2 0x100 DUP1 DUP4 SLOAD DIV MUL DUP4 MSTORE SWAP2 PUSH1 0x20 ADD SWAP2 PUSH2 0xC13 JUMP JUMPDEST DUP3 ADD SWAP2 SWAP1 PUSH1 0x0 MSTORE PUSH1 0x20 PUSH1 0x0 KECCAK256 SWAP1 JUMPDEST DUP2 SLOAD DUP2 MSTORE SWAP1 PUSH1 0x1 ADD SWAP1 PUSH1 0x20 ADD DUP1 DUP4 GT PUSH2 0xBF6 JUMPI DUP3 SWAP1 SUB PUSH1 0x1F AND DUP3 ADD SWAP2 JUMPDEST POP POP POP POP POP DUP2 JUMP JUMPDEST PUSH1 0x7 SLOAD CALLVALUE GT PUSH2 0xC29 JUMPI PUSH1 0x0 DUP1 REVERT JUMPDEST PUSH1 0x1 PUSH1 0x2 PUSH1 0x0 CALLER PUSH20 0xFFFFFFFFFFFFFFFFFFFFFFFFFFFFFFFFFFFFFFFF AND PUSH20 0xFFFFFFFFFFFFFFFFFFFFFFFFFFFFFFFFFFFFFFFF AND DUP2 MSTORE PUSH1 0x20 ADD SWAP1 DUP2 MSTORE PUSH1 0x20 ADD PUSH1 0x0 KECCAK256 PUSH1 0x0 PUSH2 0x100 EXP DUP2 SLOAD DUP2 PUSH1 0xFF MUL NOT AND SWAP1 DUP4 ISZERO ISZERO MUL OR SWAP1 SSTORE POP PUSH1 0x8 PUSH1 0x0 DUP2 SLOAD DUP1 SWAP3 SWAP2 SWAP1 PUSH2 0xC94 SWAP1 PUSH2 0x1871 JUMP JUMPDEST SWAP2 SWAP1 POP SSTORE POP JUMP JUMPDEST PUSH1 0x0 DUP1 DUP3 DUP2 SLOAD DUP2 LT PUSH2 0xCB0 JUMPI PUSH2 0xCAF PUSH2 0x13FD JUMP JUMPDEST JUMPDEST SWAP1 PUSH1 0x0 MSTORE PUSH1 0x20 PUSH1 0x0 KECCAK256 SWAP1 PUSH1 0x5 MUL ADD SWAP1 POP PUSH1 0x2 PUSH1 0x0 CALLER PUSH20 0xFFFFFFFFFFFFFFFFFFFFFFFFFFFFFFFFFFFFFFFF AND PUSH20 0xFFFFFFFFFFFFFFFFFFFFFFFFFFFFFFFFFFFFFFFF AND DUP2 MSTORE PUSH1 0x20 ADD SWAP1 DUP2 MSTORE PUSH1 0x20 ADD PUSH1 0x0 KECCAK256 PUSH1 0x0 SWAP1 SLOAD SWAP1 PUSH2 0x100 EXP SWAP1 DIV PUSH1 0xFF AND PUSH2 0xD4C JUMPI PUSH1 0x40 MLOAD PUSH32 0x8C379A000000000000000000000000000000000000000000000000000000000 DUP2 MSTORE PUSH1 0x4 ADD PUSH2 0xD43 SWAP1 PUSH2 0x1905 JUMP JUMPDEST PUSH1 0x40 MLOAD DUP1 SWAP2 SUB SWAP1 REVERT JUMPDEST DUP1 PUSH1 0x4 ADD PUSH1 0x0 CALLER PUSH20 0xFFFFFFFFFFFFFFFFFFFFFFFFFFFFFFFFFFFFFFFF AND PUSH20 0xFFFFFFFFFFFFFFFFFFFFFFFFFFFFFFFFFFFFFFFF AND DUP2 MSTORE PUSH1 0x20 ADD SWAP1 DUP2 MSTORE PUSH1 0x20 ADD PUSH1 0x0 KECCAK256 PUSH1 0x0 SWAP1 SLOAD SWAP1 PUSH2 0x100 EXP SWAP1 DIV PUSH1 0xFF AND ISZERO PUSH2 0xDDB JUMPI PUSH1 0x40 MLOAD PUSH32 0x8C379A000000000000000000000000000000000000000000000000000000000 DUP2 MSTORE PUSH1 0x4 ADD PUSH2 0xDD2 SWAP1 PUSH2 0x1971 JUMP JUMPDEST PUSH1 0x40 MLOAD DUP1 SWAP2 SUB SWAP1 REVERT JUMPDEST PUSH1 0x1 DUP2 PUSH1 0x4 ADD PUSH1 0x0 CALLER PUSH20 0xFFFFFFFFFFFFFFFFFFFFFFFFFFFFFFFFFFFFFFFF AND PUSH20 0xFFFFFFFFFFFFFFFFFFFFFFFFFFFFFFFFFFFFFFFF AND DUP2 MSTORE PUSH1 0x20 ADD SWAP1 DUP2 MSTORE PUSH1 0x20 ADD PUSH1 0x0 KECCAK256 PUSH1 0x0 PUSH2 0x100 EXP DUP2 SLOAD DUP2 PUSH1 0xFF MUL NOT AND SWAP1 DUP4 ISZERO ISZERO MUL OR SWAP1 SSTORE POP DUP1 PUSH1 0x3 ADD PUSH1 0x0 DUP2 SLOAD DUP1 SWAP3 SWAP2 SWAP1 PUSH2 0xE4A SWAP1 PUSH2 0x1871 JUMP JUMPDEST SWAP2 SWAP1 POP SSTORE POP POP POP JUMP JUMPDEST DUP1 PUSH1 0x7 DUP2 SWAP1 SSTORE POP POP JUMP JUMPDEST PUSH1 0x0 PUSH1 0x40 MLOAD SWAP1 POP SWAP1 JUMP JUMPDEST PUSH1 0x0 DUP1 REVERT JUMPDEST PUSH1 0x0 DUP1 REVERT JUMPDEST PUSH1 0x0 DUP2 SWAP1 POP SWAP2 SWAP1 POP JUMP JUMPDEST PUSH2 0xE84 DUP2 PUSH2 0xE71 JUMP JUMPDEST DUP2 EQ PUSH2 0xE8F JUMPI PUSH1 0x0 DUP1 REVERT JUMPDEST POP JUMP JUMPDEST PUSH1 0x0 DUP2 CALLDATALOAD SWAP1 POP PUSH2 0xEA1 DUP2 PUSH2 0xE7B JUMP JUMPDEST SWAP3 SWAP2 POP POP JUMP JUMPDEST PUSH1 0x0 PUSH1 0x20 DUP3 DUP5 SUB SLT ISZERO PUSH2 0xEBD JUMPI PUSH2 0xEBC PUSH2 0xE67 JUMP JUMPDEST JUMPDEST PUSH1 0x0 PUSH2 0xECB DUP5 DUP3 DUP6 ADD PUSH2 0xE92 JUMP JUMPDEST SWAP2 POP POP SWAP3 SWAP2 POP POP JUMP JUMPDEST PUSH1 0x0 PUSH20 0xFFFFFFFFFFFFFFFFFFFFFFFFFFFFFFFFFFFFFFFF DUP3 AND SWAP1 POP SWAP2 SWAP1 POP JUMP JUMPDEST PUSH1 0x0 PUSH2 0xEFF DUP3 PUSH2 0xED4 JUMP JUMPDEST SWAP1 POP SWAP2 SWAP1 POP JUMP JUMPDEST PUSH2 0xF0F DUP2 PUSH2 0xEF4 JUMP JUMPDEST DUP2 EQ PUSH2 0xF1A JUMPI PUSH1 0x0 DUP1 REVERT JUMPDEST POP JUMP JUMPDEST PUSH1 0x0 DUP2 CALLDATALOAD SWAP1 POP PUSH2 0xF2C DUP2 PUSH2 0xF06 JUMP JUMPDEST SWAP3 SWAP2 POP POP JUMP JUMPDEST PUSH1 0x0 PUSH1 0x20 DUP3 DUP5 SUB SLT ISZERO PUSH2 0xF48 JUMPI PUSH2 0xF47 PUSH2 0xE67 JUMP JUMPDEST JUMPDEST PUSH1 0x0 PUSH2 0xF56 DUP5 DUP3 DUP6 ADD PUSH2 0xF1D JUMP JUMPDEST SWAP2 POP POP SWAP3 SWAP2 POP POP JUMP JUMPDEST PUSH1 0x0 DUP2 ISZERO ISZERO SWAP1 POP SWAP2 SWAP1 POP JUMP JUMPDEST PUSH2 0xF74 DUP2 PUSH2 0xF5F JUMP JUMPDEST DUP3 MSTORE POP POP JUMP JUMPDEST PUSH1 0x0 PUSH1 0x20 DUP3 ADD SWAP1 POP PUSH2 0xF8F PUSH1 0x0 DUP4 ADD DUP5 PUSH2 0xF6B JUMP JUMPDEST SWAP3 SWAP2 POP POP JUMP JUMPDEST PUSH2 0xF9E DUP2 PUSH2 0xE71 JUMP JUMPDEST DUP3 MSTORE POP POP JUMP JUMPDEST PUSH1 0x0 PUSH1 0x20 DUP3 ADD SWAP1 POP PUSH2 0xFB9 PUSH1 0x0 DUP4 ADD DUP5 PUSH2 0xF95 JUMP JUMPDEST SWAP3 SWAP2 POP POP JUMP JUMPDEST PUSH2 0xFC8 DUP2 PUSH2 0xEF4 JUMP JUMPDEST DUP3 MSTORE POP POP JUMP JUMPDEST PUSH1 0x0 DUP2 MLOAD SWAP1 POP SWAP2 SWAP1 POP JUMP JUMPDEST PUSH1 0x0 DUP3 DUP3 MSTORE PUSH1 0x20 DUP3 ADD SWAP1 POP SWAP3 SWAP2 POP POP JUMP JUMPDEST PUSH1 0x0 JUMPDEST DUP4 DUP2 LT ISZERO PUSH2 0x1008 JUMPI DUP1 DUP3 ADD MLOAD DUP2 DUP5 ADD MSTORE PUSH1 0x20 DUP2 ADD SWAP1 POP PUSH2 0xFED JUMP JUMPDEST DUP4 DUP2 GT ISZERO PUSH2 0x1017 JUMPI PUSH1 0x0 DUP5 DUP5 ADD MSTORE JUMPDEST POP POP POP POP JUMP JUMPDEST PUSH1 0x0 PUSH1 0x1F NOT PUSH1 0x1F DUP4 ADD AND SWAP1 POP SWAP2 SWAP1 POP JUMP JUMPDEST PUSH1 0x0 PUSH2 0x1039 DUP3 PUSH2 0xFCE JUMP JUMPDEST PUSH2 0x1043 DUP2 DUP6 PUSH2 0xFD9 JUMP JUMPDEST SWAP4 POP PUSH2 0x1053 DUP2 DUP6 PUSH1 0x20 DUP7 ADD PUSH2 0xFEA JUMP JUMPDEST PUSH2 0x105C DUP2 PUSH2 0x101D JUMP JUMPDEST DUP5 ADD SWAP2 POP POP SWAP3 SWAP2 POP POP JUMP JUMPDEST PUSH1 0x0 PUSH2 0x120 DUP3 ADD SWAP1 POP PUSH2 0x107D PUSH1 0x0 DUP4 ADD DUP13 PUSH2 0xF95 JUMP JUMPDEST PUSH2 0x108A PUSH1 0x20 DUP4 ADD DUP12 PUSH2 0xF95 JUMP JUMPDEST PUSH2 0x1097 PUSH1 0x40 DUP4 ADD DUP11 PUSH2 0xF95 JUMP JUMPDEST PUSH2 0x10A4 PUSH1 0x60 DUP4 ADD DUP10 PUSH2 0xF95 JUMP JUMPDEST PUSH2 0x10B1 PUSH1 0x80 DUP4 ADD DUP9 PUSH2 0xFBF JUMP JUMPDEST DUP2 DUP2 SUB PUSH1 0xA0 DUP4 ADD MSTORE PUSH2 0x10C3 DUP2 DUP8 PUSH2 0x102E JUMP JUMPDEST SWAP1 POP DUP2 DUP2 SUB PUSH1 0xC0 DUP4 ADD MSTORE PUSH2 0x10D7 DUP2 DUP7 PUSH2 0x102E JUMP JUMPDEST SWAP1 POP DUP2 DUP2 SUB PUSH1 0xE0 DUP4 ADD MSTORE PUSH2 0x10EB DUP2 DUP6 PUSH2 0x102E JUMP JUMPDEST SWAP1 POP PUSH2 0x10FB PUSH2 0x100 DUP4 ADD DUP5 PUSH2 0xF95 JUMP JUMPDEST SWAP11 SWAP10 POP POP POP POP POP POP POP POP POP POP JUMP JUMPDEST PUSH1 0x0 PUSH1 0x20 DUP3 ADD SWAP1 POP PUSH2 0x111E PUSH1 0x0 DUP4 ADD DUP5 PUSH2 0xFBF JUMP JUMPDEST SWAP3 SWAP2 POP POP JUMP JUMPDEST PUSH1 0x0 PUSH1 0x20 DUP3 ADD SWAP1 POP DUP2 DUP2 SUB PUSH1 0x0 DUP4 ADD MSTORE PUSH2 0x113E DUP2 DUP5 PUSH2 0x102E JUMP JUMPDEST SWAP1 POP SWAP3 SWAP2 POP POP JUMP JUMPDEST PUSH1 0x0 PUSH2 0x1151 DUP3 PUSH2 0xED4 JUMP JUMPDEST SWAP1 POP SWAP2 SWAP1 POP JUMP JUMPDEST PUSH2 0x1161 DUP2 PUSH2 0x1146 JUMP JUMPDEST DUP3 MSTORE POP POP JUMP JUMPDEST PUSH1 0x0 PUSH1 0xA0 DUP3 ADD SWAP1 POP DUP2 DUP2 SUB PUSH1 0x0 DUP4 ADD MSTORE PUSH2 0x1181 DUP2 DUP9 PUSH2 0x102E JUMP JUMPDEST SWAP1 POP PUSH2 0x1190 PUSH1 0x20 DUP4 ADD DUP8 PUSH2 0xF95 JUMP JUMPDEST PUSH2 0x119D PUSH1 0x40 DUP4 ADD DUP7 PUSH2 0x1158 JUMP JUMPDEST PUSH2 0x11AA PUSH1 0x60 DUP4 ADD DUP6 PUSH2 0xF6B JUMP JUMPDEST PUSH2 0x11B7 PUSH1 0x80 DUP4 ADD DUP5 PUSH2 0xF95 JUMP JUMPDEST SWAP7 SWAP6 POP POP POP POP POP POP JUMP JUMPDEST PUSH1 0x0 DUP1 REVERT JUMPDEST PUSH1 0x0 DUP1 REVERT JUMPDEST PUSH32 0x4E487B7100000000000000000000000000000000000000000000000000000000 PUSH1 0x0 MSTORE PUSH1 0x41 PUSH1 0x4 MSTORE PUSH1 0x24 PUSH1 0x0 REVERT JUMPDEST PUSH2 0x1203 DUP3 PUSH2 0x101D JUMP JUMPDEST DUP2 ADD DUP2 DUP2 LT PUSH8 0xFFFFFFFFFFFFFFFF DUP3 GT OR ISZERO PUSH2 0x1222 JUMPI PUSH2 0x1221 PUSH2 0x11CB JUMP JUMPDEST JUMPDEST DUP1 PUSH1 0x40 MSTORE POP POP POP JUMP JUMPDEST PUSH1 0x0 PUSH2 0x1235 PUSH2 0xE5D JUMP JUMPDEST SWAP1 POP PUSH2 0x1241 DUP3 DUP3 PUSH2 0x11FA JUMP JUMPDEST SWAP2 SWAP1 POP JUMP JUMPDEST PUSH1 0x0 PUSH8 0xFFFFFFFFFFFFFFFF DUP3 GT ISZERO PUSH2 0x1261 JUMPI PUSH2 0x1260 PUSH2 0x11CB JUMP JUMPDEST JUMPDEST PUSH2 0x126A DUP3 PUSH2 0x101D JUMP JUMPDEST SWAP1 POP PUSH1 0x20 DUP2 ADD SWAP1 POP SWAP2 SWAP1 POP JUMP JUMPDEST DUP3 DUP2 DUP4 CALLDATACOPY PUSH1 0x0 DUP4 DUP4 ADD MSTORE POP POP POP JUMP JUMPDEST PUSH1 0x0 PUSH2 0x1299 PUSH2 0x1294 DUP5 PUSH2 0x1246 JUMP JUMPDEST PUSH2 0x122B JUMP JUMPDEST SWAP1 POP DUP3 DUP2 MSTORE PUSH1 0x20 DUP2 ADD DUP5 DUP5 DUP5 ADD GT ISZERO PUSH2 0x12B5 JUMPI PUSH2 0x12B4 PUSH2 0x11C6 JUMP JUMPDEST JUMPDEST PUSH2 0x12C0 DUP5 DUP3 DUP6 PUSH2 0x1277 JUMP JUMPDEST POP SWAP4 SWAP3 POP POP POP JUMP JUMPDEST PUSH1 0x0 DUP3 PUSH1 0x1F DUP4 ADD SLT PUSH2 0x12DD JUMPI PUSH2 0x12DC PUSH2 0x11C1 JUMP JUMPDEST JUMPDEST DUP2 CALLDATALOAD PUSH2 0x12ED DUP5 DUP3 PUSH1 0x20 DUP7 ADD PUSH2 0x1286 JUMP JUMPDEST SWAP2 POP POP SWAP3 SWAP2 POP POP JUMP JUMPDEST PUSH2 0x12FF DUP2 PUSH2 0x1146 JUMP JUMPDEST DUP2 EQ PUSH2 0x130A JUMPI PUSH1 0x0 DUP1 REVERT JUMPDEST POP JUMP JUMPDEST PUSH1 0x0 DUP2 CALLDATALOAD SWAP1 POP PUSH2 0x131C DUP2 PUSH2 0x12F6 JUMP JUMPDEST SWAP3 SWAP2 POP POP JUMP JUMPDEST PUSH1 0x0 DUP1 PUSH1 0x0 PUSH1 0x60 DUP5 DUP7 SUB SLT ISZERO PUSH2 0x133B JUMPI PUSH2 0x133A PUSH2 0xE67 JUMP JUMPDEST JUMPDEST PUSH1 0x0 DUP5 ADD CALLDATALOAD PUSH8 0xFFFFFFFFFFFFFFFF DUP2 GT ISZERO PUSH2 0x1359 JUMPI PUSH2 0x1358 PUSH2 0xE6C JUMP JUMPDEST JUMPDEST PUSH2 0x1365 DUP7 DUP3 DUP8 ADD PUSH2 0x12C8 JUMP JUMPDEST SWAP4 POP POP PUSH1 0x20 PUSH2 0x1376 DUP7 DUP3 DUP8 ADD PUSH2 0xE92 JUMP JUMPDEST SWAP3 POP POP PUSH1 0x40 PUSH2 0x1387 DUP7 DUP3 DUP8 ADD PUSH2 0x130D JUMP JUMPDEST SWAP2 POP POP SWAP3 POP SWAP3 POP SWAP3 JUMP JUMPDEST PUSH32 0x596F7520617265206E6F7420746865206D616E61676572000000000000000000 PUSH1 0x0 DUP3 ADD MSTORE POP JUMP JUMPDEST PUSH1 0x0 PUSH2 0x13C7 PUSH1 0x17 DUP4 PUSH2 0xFD9 JUMP JUMPDEST SWAP2 POP PUSH2 0x13D2 DUP3 PUSH2 0x1391 JUMP JUMPDEST PUSH1 0x20 DUP3 ADD SWAP1 POP SWAP2 SWAP1 POP JUMP JUMPDEST PUSH1 0x0 PUSH1 0x20 DUP3 ADD SWAP1 POP DUP2 DUP2 SUB PUSH1 0x0 DUP4 ADD MSTORE PUSH2 0x13F6 DUP2 PUSH2 0x13BA JUMP JUMPDEST SWAP1 POP SWAP2 SWAP1 POP JUMP JUMPDEST PUSH32 0x4E487B7100000000000000000000000000000000000000000000000000000000 PUSH1 0x0 MSTORE PUSH1 0x32 PUSH1 0x4 MSTORE PUSH1 0x24 PUSH1 0x0 REVERT JUMPDEST PUSH32 0x4E487B7100000000000000000000000000000000000000000000000000000000 PUSH1 0x0 MSTORE PUSH1 0x12 PUSH1 0x4 MSTORE PUSH1 0x24 PUSH1 0x0 REVERT JUMPDEST PUSH32 0x4E487B7100000000000000000000000000000000000000000000000000000000 PUSH1 0x0 MSTORE PUSH1 0x11 PUSH1 0x4 MSTORE PUSH1 0x24 PUSH1 0x0 REVERT JUMPDEST PUSH1 0x0 PUSH2 0x1495 DUP3 PUSH2 0xE71 JUMP JUMPDEST SWAP2 POP PUSH2 0x14A0 DUP4 PUSH2 0xE71 JUMP JUMPDEST SWAP3 POP DUP3 PUSH2 0x14B0 JUMPI PUSH2 0x14AF PUSH2 0x142C JUMP JUMPDEST JUMPDEST DUP3 DUP3 DIV SWAP1 POP SWAP3 SWAP2 POP POP JUMP JUMPDEST PUSH32 0x4E6F20656E6F75676820617070726F7665720000000000000000000000000000 PUSH1 0x0 DUP3 ADD MSTORE POP JUMP JUMPDEST PUSH1 0x0 PUSH2 0x14F1 PUSH1 0x12 DUP4 PUSH2 0xFD9 JUMP JUMPDEST SWAP2 POP PUSH2 0x14FC DUP3 PUSH2 0x14BB JUMP JUMPDEST PUSH1 0x20 DUP3 ADD SWAP1 POP SWAP2 SWAP1 POP JUMP JUMPDEST PUSH1 0x0 PUSH1 0x20 DUP3 ADD SWAP1 POP DUP2 DUP2 SUB PUSH1 0x0 DUP4 ADD MSTORE PUSH2 0x1520 DUP2 PUSH2 0x14E4 JUMP JUMPDEST SWAP1 POP SWAP2 SWAP1 POP JUMP JUMPDEST PUSH32 0x416C726561647920636F6D706C65746564000000000000000000000000000000 PUSH1 0x0 DUP3 ADD MSTORE POP JUMP JUMPDEST PUSH1 0x0 PUSH2 0x155D PUSH1 0x11 DUP4 PUSH2 0xFD9 JUMP JUMPDEST SWAP2 POP PUSH2 0x1568 DUP3 PUSH2 0x1527 JUMP JUMPDEST PUSH1 0x20 DUP3 ADD SWAP1 POP SWAP2 SWAP1 POP JUMP JUMPDEST PUSH1 0x0 PUSH1 0x20 DUP3 ADD SWAP1 POP DUP2 DUP2 SUB PUSH1 0x0 DUP4 ADD MSTORE PUSH2 0x158C DUP2 PUSH2 0x1550 JUMP JUMPDEST SWAP1 POP SWAP2 SWAP1 POP JUMP JUMPDEST PUSH32 0x4E487B7100000000000000000000000000000000000000000000000000000000 PUSH1 0x0 MSTORE PUSH1 0x22 PUSH1 0x4 MSTORE PUSH1 0x24 PUSH1 0x0 REVERT JUMPDEST PUSH1 0x0 PUSH1 0x2 DUP3 DIV SWAP1 POP PUSH1 0x1 DUP3 AND DUP1 PUSH2 0x15DA JUMPI PUSH1 0x7F DUP3 AND SWAP2 POP JUMPDEST PUSH1 0x20 DUP3 LT DUP2 SUB PUSH2 0x15ED JUMPI PUSH2 0x15EC PUSH2 0x1593 JUMP JUMPDEST JUMPDEST POP SWAP2 SWAP1 POP JUMP JUMPDEST PUSH1 0x0 DUP2 SWAP1 POP DUP2 PUSH1 0x0 MSTORE PUSH1 0x20 PUSH1 0x0 KECCAK256 SWAP1 POP SWAP2 SWAP1 POP JUMP JUMPDEST PUSH1 0x0 PUSH1 0x20 PUSH1 0x1F DUP4 ADD DIV SWAP1 POP SWAP2 SWAP1 POP JUMP JUMPDEST PUSH1 0x0 DUP3 DUP3 SHL SWAP1 POP SWAP3 SWAP2 POP POP JUMP JUMPDEST PUSH1 0x0 PUSH1 0x8 DUP4 MUL PUSH2 0x1655 PUSH32 0xFFFFFFFFFFFFFFFFFFFFFFFFFFFFFFFFFFFFFFFFFFFFFFFFFFFFFFFFFFFFFFFF DUP3 PUSH2 0x1618 JUMP JUMPDEST PUSH2 0x165F DUP7 DUP4 PUSH2 0x1618 JUMP JUMPDEST SWAP6 POP DUP1 NOT DUP5 AND SWAP4 POP DUP1 DUP7 AND DUP5 OR SWAP3 POP POP POP SWAP4 SWAP3 POP POP POP JUMP JUMPDEST PUSH1 0x0 DUP2 SWAP1 POP SWAP2 SWAP1 POP JUMP JUMPDEST PUSH1 0x0 PUSH2 0x169C PUSH2 0x1697 PUSH2 0x1692 DUP5 PUSH2 0xE71 JUMP JUMPDEST PUSH2 0x1677 JUMP JUMPDEST PUSH2 0xE71 JUMP JUMPDEST SWAP1 POP SWAP2 SWAP1 POP JUMP JUMPDEST PUSH1 0x0 DUP2 SWAP1 POP SWAP2 SWAP1 POP JUMP JUMPDEST PUSH2 0x16B6 DUP4 PUSH2 0x1681 JUMP JUMPDEST PUSH2 0x16CA PUSH2 0x16C2 DUP3 PUSH2 0x16A3 JUMP JUMPDEST DUP5 DUP5 SLOAD PUSH2 0x1625 JUMP JUMPDEST DUP3 SSTORE POP POP POP POP JUMP JUMPDEST PUSH1 0x0 SWAP1 JUMP JUMPDEST PUSH2 0x16DF PUSH2 0x16D2 JUMP JUMPDEST PUSH2 0x16EA DUP2 DUP5 DUP5 PUSH2 0x16AD JUMP JUMPDEST POP POP POP JUMP JUMPDEST JUMPDEST DUP2 DUP2 LT ISZERO PUSH2 0x170E JUMPI PUSH2 0x1703 PUSH1 0x0 DUP3 PUSH2 0x16D7 JUMP JUMPDEST PUSH1 0x1 DUP2 ADD SWAP1 POP PUSH2 0x16F0 JUMP JUMPDEST POP POP JUMP JUMPDEST PUSH1 0x1F DUP3 GT ISZERO PUSH2 0x1753 JUMPI PUSH2 0x1724 DUP2 PUSH2 0x15F3 JUMP JUMPDEST PUSH2 0x172D DUP5 PUSH2 0x1608 JUMP JUMPDEST DUP2 ADD PUSH1 0x20 DUP6 LT ISZERO PUSH2 0x173C JUMPI DUP2 SWAP1 POP JUMPDEST PUSH2 0x1750 PUSH2 0x1748 DUP6 PUSH2 0x1608 JUMP JUMPDEST DUP4 ADD DUP3 PUSH2 0x16EF JUMP JUMPDEST POP POP JUMPDEST POP POP POP JUMP JUMPDEST PUSH1 0x0 DUP3 DUP3 SHR SWAP1 POP SWAP3 SWAP2 POP POP JUMP JUMPDEST PUSH1 0x0 PUSH2 0x1776 PUSH1 0x0 NOT DUP5 PUSH1 0x8 MUL PUSH2 0x1758 JUMP JUMPDEST NOT DUP1 DUP4 AND SWAP2 POP POP SWAP3 SWAP2 POP POP JUMP JUMPDEST PUSH1 0x0 PUSH2 0x178F DUP4 DUP4 PUSH2 0x1765 JUMP JUMPDEST SWAP2 POP DUP3 PUSH1 0x2 MUL DUP3 OR SWAP1 POP SWAP3 SWAP2 POP POP JUMP JUMPDEST PUSH2 0x17A8 DUP3 PUSH2 0xFCE JUMP JUMPDEST PUSH8 0xFFFFFFFFFFFFFFFF DUP2 GT ISZERO PUSH2 0x17C1 JUMPI PUSH2 0x17C0 PUSH2 0x11CB JUMP JUMPDEST JUMPDEST PUSH2 0x17CB DUP3 SLOAD PUSH2 0x15C2 JUMP JUMPDEST PUSH2 0x17D6 DUP3 DUP3 DUP6 PUSH2 0x1712 JUMP JUMPDEST PUSH1 0x0 PUSH1 0x20 SWAP1 POP PUSH1 0x1F DUP4 GT PUSH1 0x1 DUP2 EQ PUSH2 0x1809 JUMPI PUSH1 0x0 DUP5 ISZERO PUSH2 0x17F7 JUMPI DUP3 DUP8 ADD MLOAD SWAP1 POP JUMPDEST PUSH2 0x1801 DUP6 DUP3 PUSH2 0x1783 JUMP JUMPDEST DUP7 SSTORE POP PUSH2 0x1869 JUMP JUMPDEST PUSH1 0x1F NOT DUP5 AND PUSH2 0x1817 DUP7 PUSH2 0x15F3 JUMP JUMPDEST PUSH1 0x0 JUMPDEST DUP3 DUP2 LT ISZERO PUSH2 0x183F JUMPI DUP5 DUP10 ADD MLOAD DUP3 SSTORE PUSH1 0x1 DUP3 ADD SWAP2 POP PUSH1 0x20 DUP6 ADD SWAP5 POP PUSH1 0x20 DUP2 ADD SWAP1 POP PUSH2 0x181A JUMP JUMPDEST DUP7 DUP4 LT ISZERO PUSH2 0x185C JUMPI DUP5 DUP10 ADD MLOAD PUSH2 0x1858 PUSH1 0x1F DUP10 AND DUP3 PUSH2 0x1765 JUMP JUMPDEST DUP4 SSTORE POP JUMPDEST PUSH1 0x1 PUSH1 0x2 DUP9 MUL ADD DUP9 SSTORE POP POP POP JUMPDEST POP POP POP POP POP POP JUMP JUMPDEST PUSH1 0x0 PUSH2 0x187C DUP3 PUSH2 0xE71 JUMP JUMPDEST SWAP2 POP PUSH32 0xFFFFFFFFFFFFFFFFFFFFFFFFFFFFFFFFFFFFFFFFFFFFFFFFFFFFFFFFFFFFFFFF DUP3 SUB PUSH2 0x18AE JUMPI PUSH2 0x18AD PUSH2 0x145B JUMP JUMPDEST JUMPDEST PUSH1 0x1 DUP3 ADD SWAP1 POP SWAP2 SWAP1 POP JUMP JUMPDEST PUSH32 0x596F752068617665206E6F7420636F6E74726962757465640000000000000000 PUSH1 0x0 DUP3 ADD MSTORE POP JUMP JUMPDEST PUSH1 0x0 PUSH2 0x18EF PUSH1 0x18 DUP4 PUSH2 0xFD9 JUMP JUMPDEST SWAP2 POP PUSH2 0x18FA DUP3 PUSH2 0x18B9 JUMP JUMPDEST PUSH1 0x20 DUP3 ADD SWAP1 POP SWAP2 SWAP1 POP JUMP JUMPDEST PUSH1 0x0 PUSH1 0x20 DUP3 ADD SWAP1 POP DUP2 DUP2 SUB PUSH1 0x0 DUP4 ADD MSTORE PUSH2 0x191E DUP2 PUSH2 0x18E2 JUMP JUMPDEST SWAP1 POP SWAP2 SWAP1 POP JUMP JUMPDEST PUSH32 0x596F7527766520616C726561647920766F746564000000000000000000000000 PUSH1 0x0 DUP3 ADD MSTORE POP JUMP JUMPDEST PUSH1 0x0 PUSH2 0x195B PUSH1 0x14 DUP4 PUSH2 0xFD9 JUMP JUMPDEST SWAP2 POP PUSH2 0x1966 DUP3 PUSH2 0x1925 JUMP JUMPDEST PUSH1 0x20 DUP3 ADD SWAP1 POP SWAP2 SWAP1 POP JUMP JUMPDEST PUSH1 0x0 PUSH1 0x20 DUP3 ADD SWAP1 POP DUP2 DUP2 SUB PUSH1 0x0 DUP4 ADD MSTORE PUSH2 0x198A DUP2 PUSH2 0x194E JUMP JUMPDEST SWAP1 POP SWAP2 SWAP1 POP JUMP INVALID LOG2 PUSH5 0x6970667358 0x22 SLT KECCAK256 0xE5 CODECOPY BALANCE DUP11 SELFDESTRUCT 0xB9 0xB3 0x28 0xE4 DUP7 SWAP10 DUP10 DIV SWAP1 0xE3 0x25 0xA9 0xA6 PUSH18 0x4B8F2AB228127B209BBAEA147364736F6C63 NUMBER STOP ADDMOD 0xF STOP CALLER LOG2 PUSH5 0x6970667358 0x22 SLT KECCAK256 0xBD 0xDF SWAP6 0xC8 0xBE GASLIMIT DUP13 CALLER 0xA6 SIGNEXTEND DUP13 SWAP6 LOG4 0x2C DUP5 ADD CODESIZE 0xCB EXP CALLDATACOPY 0x2A 0xB7 DUP5 0xD0 0xBC 0xCC LOG0 DUP12 0xA9 PUSH17 0xA08C64736F6C634300080F003300000000 "},"gasEstimates":{"creation":{"codeDepositCost":"2088000","executionCost":"2221","totalCost":"2090221"},"external":{"createCampaign(uint256,string,string,string,uint256)":"infinite","deployedCampaigns(uint256)":"4934","getDeployCampaign()":"infinite"}},"methodIdentifiers":{"createCampaign(uint256,string,string,string,uint256)":"d4ddd71a","deployedCampaigns(uint256)":"339d50a5","getDeployCampaign()":"cd7b7329"}},"storageLayout":{"storage":[{"astId":4,"contract":"Campaign.sol:CampaignMain","label":"deployedCampaigns","offset":0,"slot":"0","type":"t_array(t_address)dyn_storage"}],"types":{"t_address":{"encoding":"inplace","label":"address","numberOfBytes":"20"},"t_array(t_address)dyn_storage":{"base":"t_address","encoding":"dynamic_array","label":"address[]","numberOfBytes":"32"}}},"userdoc":{"kind":"user","methods":{},"version":1}}